:0400000065EF5FF059
:08000800046ED8CF05F0E0CF33
:1000100006F00001E9CF0CF0EACF07F0E1CF08F0DD
:10002000E2CF09F0D9CF0AF0DACF0BF0F3CF12F01C
:10003000F4CF13F0FACF14F0F5CF15F0F6CF16F099
:10004000F7CF17F000C00EF001C00FF002C010F0A3
:1000500003C011F0F2AA30EF00F0F2B413EF1DF07C
:100060009DAA36EF00F09EBAEBEF1CF00EC000F038
:100070000FC001F010C002F011C003F00CC0E9FF86
:1000800007C0EAFF078E08C0E1FF09C0E2FF0AC00F
:10009000D9FF0BC0DAFF12C0F3FF13C0F4FF14C086
:1000A000FAFF15C0F5FF16C0F6FF17C0F7FF0450A2
:1000B00006C0E0FF05C0D8FF1000C80FF66E000EA6
:1000C000F7220900F55012000000000000000000B7
:1000D0000000000000000000000000000000000020
:1000E0000000000000000000000000000000000010
:1000F0000000000000000000000000000000000000
:1001000000000000000000000000000000000000EF
:1001100000000000000000000000000000000000DF
:1001200000000000000000000000000000000000CF
:1001300000000000000000000000000000000000BF
:1001400000000000000000000000000000000000AF
:10015000000000000000000000000000000000009F
:10016000000000000000000000000000000000008F
:10017000000000000000000000000000000000007F
:10018000000000000000000000000000000000006F
:10019000000000000000000000000000000000005F
:1001A000000000000000000000000000000000004F
:1001B000000000000000000000000000000000003F
:1001C000000000000000000055504C47423E39340A
:1001D000302B26221D18140F0A0601000000000013
:1001E000000000000000000000000000000000000F
:1001F0000005090E13171C21252A2F33383D4146CF
:100200004B4F54545454545555504C47423E393436
:10021000302B26221D18140F0A06010000000000D2
:1002200000000000000000000000000000000000CE
:100230000005090E13171C21252A2F33383D41468E
:100240004B4F54545454545555504C47423E3934F6
:10025000302B26221D18140F0A0601000000000092
:10026000000000000000000000000000000000008E
:100270000005090E13171C21252A2F33383D41464E
:100280004B4F54545454545555504C47423E3934B6
:10029000302B26221D18140F0A0601000000000052
:1002A000000000000000000000000000000000004E
:1002B0000005090E13171C21252A2F33383D41460E
:1002C0004B4F545454545454FFF9F3EDE7E1DBD54C
:1002D000CFC9C3BDB7B1ABA59F99938D87817B75FE
:1002E0006F69635D57514B453F39332D27211B15EE
:1002F0000F090300000000000000000000000000E3
:1003000000000000000000000000000000000000ED
:1003100000000000000000000000000000000000DD
:1003200000000000000000000000000000000000CD
:1003300000000000000000000000000000000000BD
:1003400000000000000000000000000000000000AD
:10035000000000000000000000000000000000009D
:10036000000000000000000000000000000000008D
:10037000000000000000000000000000000000007D
:10038000000000000000000000000000000000006D
:100390000000000000000000000000000003090F42
:1003A000151B21272D33393F454B51575D63696F2D
:1003B000757B81878D93999FA5ABB1B7BDC3C9CF1D
:1003C000D5DBE1E7EDF3F9FFFFFCF9F6F3F0EDEA39
:1003D000E7E4E1DEDBD8D5D2CFCCC9C6C3C0BDBA15
:1003E000B7B4B1AEABA8A5A29F9C999693908D8A05
:1003F0008784817E7B7875726F6C696663605D5AF5
:100400005754514E4B4845423F3C393633302D2AE4
:100410002724211E1B1815120F0C090603000000CB
:1004200000000000000000000000000000000000CC
:1004300000000000000000000000000000000000BC
:1004400000000000000000000000000000000000AC
:10045000000000000000000000000000000000009C
:10046000000000000000000000000000000000008C
:100470000000000306090C0F1215181B1E2124276B
:100480002A2D303336393C3F4245484B4E51545764
:100490005A5D606366696C6F7275787B7E81848754
:1004A0008A8D909396999C9FA2A5A8ABAEB1B4B744
:1004B000BABDC0C3C6C9CCCFD2D5D8DBDEE1E4E734
:1004C000EAEDF0F3F6F9FCFCFFFFFFFFFFFFFFFF93
:1004D000FFFFFFFFFFFFFFFFFFFFFFFFFFFFFFFF2C
:1004E000FFFFFFFFFFFFFFFFFFFFFFFFFFFFFFFF1C
:1004F000FFFFFFFFFFFFFFFFFFFFFFFFFFFFFFFF0C
:10050000FFFFFFFFFFFFFFFFFFFFFFFFFFFFFFFFFB
:10051000FFFFFFFFFFFFFFFFFFFFFFFFFFFFFFFFEB
:10052000FFFFFFFFFFFFFFFFFFFFFFFFFFFFFFFFDB
:10053000FFFFFFFFFFFFFFFFFFFFFFFFFFFFFFFFCB
:10054000FFFFFFFFFFFFFFFFFFFFFFFFFFFFFFFFBB
:10055000FFFFFFFFFFFFFFFFFFFFFFFFFFFFFFFFAB
:10056000FFFFFFFFFFFFFFFFFFFFFFFFFFFFFFFF9B
:10057000FFFFFFFFFFFFFFFFFFFFFFFFFFFFFFFF8B
:10058000FFFFFFFFFFFFFFFFFFFFFFFFFFFFFFFF7B
:10059000FFFFFFFFFFFFFFFFFFFFFFFFFFFFFFFF6B
:1005A000FFFFFFFFFFFFFFFFFFFFFFFFFFFFFFFF5B
:1005B000FFFFFFFFFFFFFFFFFFFFFFFFFFFFFFFF4B
:1005C000FFFFFFFFFFFFFFFF000000000000000033
:1005D000000000000000000000000000000000001B
:1005E000000000000000000000000000000000000B
:1005F00000000000000000000000000000000000FB
:1006000000000000000000000000000000000000EA
:1006100000000000000000000000000000000000DA
:1006200000000000000000000000000000000000CA
:1006300000000000000000000000000000000000BA
:1006400000000000000000000000000000000000AA
:10065000000000000000000000000000000000009A
:10066000000000000000000000000000000000008A
:10067000000000000000000000000000000000007A
:10068000000000000000000000000000000000006A
:10069000000000000000000000000000000000005A
:1006A000000000000000000000000000000000004A
:1006B000000000000000000000000000000000003A
:1006C000000000000000000000000000000000002A
:1006D000000000000000000000000000000000001A
:1006E000000000000000000000000000000000000A
:1006F00000000000000000000000000000000000FA
:1007000000000000000000000000000000000000E9
:1007100000000000000000000000000000000000D9
:1007200000000000000000000000000000000000C9
:1007300000000000000000000000000000000000B9
:1007400000000000000000000000000000000000A9
:100750000000000000000000000000000000000099
:100760000000000000000000000000000000000089
:100770000000000000000000000000000000000079
:100780000000000000000000000000000000000069
:100790000000000000000000000000000000000059
:1007A0000000000000000000000000000000000049
:1007B0000000000000000000000000000000000039
:1007C0000000000000000000FFFFFFFFFFFFFFFF31
:1007D000FFFFFFFFFFFFFFFFFFFFFFFFFFFFFFFF29
:1007E000FFFFFFFFFFFFFFFFFFFFFFFFFFFFFFFF19
:1007F000FFFFFFFFFFFFFFFFFFFFFFFFFFFFFFFF09
:10080000FFFFFFFFFFFFFFFFFFFFFFFFFFFFFFFFF8
:10081000FFFFFFFFFFFFFFFFFFFFFFFFFFFFFFFFE8
:10082000FFFFFFFFFFFFFFFFFFFFFFFFFFFFFFFFD8
:10083000FFFFFFFFFFFFFFFFFFFFFFFFFFFFFFFFC8
:10084000FFFFFFFFFFFFFFFFFFFFFFFFFFFFFFFFB8
:10085000FFFFFFFFFFFFFFFFFFFFFFFFFFFFFFFFA8
:10086000FFFFFFFFFFFFFFFFFFFFFFFFFFFFFFFF98
:10087000FFFFFFFFFFFFFFFFFFFFFFFFFFFFFFFF88
:10088000FFFFFFFFFFFFFFFFFFFFFFFFFFFFFFFF78
:10089000FFFFFFFFFFFFFFFFFFFFFFFFFFFFFFFF68
:1008A000FFFFFFFFFFFFFFFFFFFFFFFFFFFFFFFF58
:1008B000FFFFFFFFFFFFFFFFFFFFFFFFFFFFFFFF48
:1008C000FFFFFFFFFFFFFFFF000810182028303850
:1008D000404850586068707880889098A0A8B0B858
:1008E000C0C8D0D8E0E8F0E8E0D8D0C8C0B8B0A818
:1008F000A0989088807870686058504840383028B8
:100900002018100800081018202830384048505887
:100910006068707880889098A0A8B0B8C0C8D0D817
:10092000E0E8F0E8E0D8D0C8C0B8B0A8A0989088B7
:100930008078706860585048403830282018100877
:1009400000081018202830384048505860687078E7
:1009500080889098A0A8B0B8C0C8D0D8E0E8F0E8E7
:10096000E0D8D0C8C0B8B0A8A09890888078706847
:1009700060585048403830282018100800081018D7
:1009800020283038404850586068707880889098A7
:10099000A0A8B0B8C0C8D0D8E0E8F0E8E0D8D0C887
:1009A000C0B8B0A8A0989088807870686058504807
:1009B00040383028201810080020406080A0C0E097
:1009C000FFDFBF9F7F5F3F1F80008000800080802F
:1009D00000800080008080008000800080FF00FF99
:1009E00000FF00FFFF00FF00FF00FFFF00FF00FF10
:1009F00000FF80008000800080FF00FF00FF00FFFC
:100A00008000800080008080008000800080800066
:100A10008000800080FF00FF00FF00FFFF00FF005C
:100A2000FF00FFFF00FF00FF00FF8000800080004C
:100A300080FF00FF00FF00FF8000800080008080BA
:100A400000800080008080008000800080FF00FF28
:100A500000FF00FFFF00FF00FF00FFFF00FF00FF9F
:100A600000FF80008000800080FF00FF00FF00FF8B
:100A700080008000800080800080008000808000F6
:100A80008000800080FF00FF00FF00FFFF00FF00EC
:100A9000FF00FFFF00FF00FF00FF800080008000DC
:100AA00080FF00FF00FF00FF40004000400040408A
:100AB00000400040004040004000400040FF00FF78
:100AC00000FF00FFFF000000D60FF66E0A0EF722AF
:100AD0000900F550120000000000000000000000B6
:100AE0000000000000000000000000000000000006
:100AF00000000000000000000000000000000000F6
:100B000000000000000000000000000000000000E5
:100B100000000000000000000000000000000000D5
:100B200000000000000000000000000000000000C5
:100B300000000000000000000000000000000000B5
:100B400000000000000000000000000000000000A5
:100B50000000000000000000000000000000000095
:100B60000000000000000000000000000000000085
:100B70000000000000000000000000000000000075
:100B80000000000000000000000000000000000065
:100B90000000000000000000000000000000000055
:100BA0000000000000000000000000000000000045
:100BB0000000000000000000000000000000000035
:100BC0000000000000000000000000000000000025
:100BD0000000000000000005090E13171C21252A43
:100BE0002F33383D41464B4F545555504C47423EAC
:100BF0003934302B26221D18140F0A06010000007C
:100C000000000000000000000000000000000000E4
:100C10000000000000000005090E13171C21252A02
:100C20002F33383D41464B4F545555504C47423E6B
:100C30003934302B26221D18140F0A06010000003B
:100C400000000000000000000000000000000000A4
:100C50000000000000000005090E13171C21252AC2
:100C60002F33383D41464B4F545555504C47423E2B
:100C70003934302B26221D18140F0A0601000000FB
:100C80000000000000000000000000000000000064
:100C90000000000000000005090E13171C21252A82
:100CA0002F33383D41464B4F545555504C47423EEB
:100CB0003934302B26221D18140F0A0601000000BB
:100CC0000000000000000000000000000000000024
:100CD0000000000000000000000000000000000014
:100CE0000000000000000000000000000000000004
:100CF00000000000000000000000000000000000F4
:100D00000003090F151B21272D33393F454B515740
:100D10005D63696F757B81878D93999FA5ABB1B733
:100D2000BDC3C9CFD5DBE1E7EDF3F9FFF9F3EDE79B
:100D3000E1DBD5CFC9C3BDB7B1ABA59F99938D8773
:100D4000817B756F69635D57514B453F39332D2763
:100D5000211B150F09030000000000000000000027
:100D60000000000000000000000000000000000083
:100D70000000000000000000000000000000000073
:100D80000000000000000000000000000000000063
:100D90000000000000000000000000000000000053
:100DA0000000000000000000000000000000000043
:100DB0000000000000000000000000000000000033
:100DC0000000000000000000000000000000000023
:100DD0000000000000000306090C0F1215181B1E6E
:100DE0002124272A2D303336393C3F4245484B4E8B
:100DF0005154575A5D606366696C6F7275787B7E7B
:100E00008184878A8D909396999C9FA2A5A8ABAE6A
:100E1000B1B4B7BABDC0C3C6C9CCCFD2D5D8DBDE5A
:100E2000E1E4E7EAEDF0F3F6F9FCFFFCF9F6F3F0A4
:100E3000EDEAE7E4E1DEDBD8D5D2CFCCC9C6C3C04A
:100E4000BDBAB7B4B1AEABA8A5A29F9C999693903A
:100E50008D8A8784817E7B7875726F6C696663602A
:100E60005D5A5754514E4B4845423F3C393633301A
:100E70002D2A2724211E1B1815120F0C090603000A
:100E80000000000000000000000000000000000062
:100E90000000000000000000000000000000000052
:100EA0000000000000000000000000000000000042
:100EB0000000000000000000000000000000000032
:100EC0000000000000000000000000000000000022
:100ED0000000000000000000000000000000000012
:100EE0000000000000000000000000000000000002
:100EF00000000000000000000000000000000000F2
:100F000000000000000000000000000000000000E1
:100F100000000000000000000000000000000000D1
:100F200000000000000000000000000000000000C1
:100F300000000000000000000000000000000000B1
:100F400000000000000000000000000000000000A1
:100F50000000000000000000000000000000000091
:100F60000000000000000000000000000000000081
:100F70000000000000000000000000000000000071
:100F80000000000000000000000000000000000061
:100F90000000000000000000000000000000000051
:100FA0000000000000000000000000000000000041
:100FB0000000000000000000000000000000000031
:100FC0000000000000000000000000000000000021
:100FD000000000000000FFFFFFFFFFFFFFFFFFFF1B
:100FE000FFFFFFFFFFFFFFFFFFFFFFFFFFFFFFFF11
:100FF000FFFFFFFFFFFFFFFFFFFFFFFFFFFFFFFF01
:10100000FFFFFFFFFFFFFFFFFFFFFFFFFFFFFFFFF0
:10101000FFFFFFFFFFFFFFFFFFFFFFFFFFFFFFFFE0
:10102000FFFFFFFFFFFFFFFFFFFFFFFFFFFFFFFFD0
:10103000FFFFFFFFFFFFFFFFFFFFFFFFFFFFFFFFC0
:10104000FFFFFFFFFFFFFFFFFFFFFFFFFFFFFFFFB0
:10105000FFFFFFFFFFFFFFFFFFFFFFFFFFFFFFFFA0
:10106000FFFFFFFFFFFFFFFFFFFFFFFFFFFFFFFF90
:10107000FFFFFFFFFFFFFFFFFFFFFFFFFFFFFFFF80
:10108000FFFFFFFFFFFFFFFFFFFFFFFFFFFFFFFF70
:10109000FFFFFFFFFFFFFFFFFFFFFFFFFFFFFFFF60
:1010A000FFFFFFFFFFFFFFFFFFFFFFFFFFFFFFFF50
:1010B000FFFFFFFFFFFFFFFFFFFFFFFFFFFFFFFF40
:1010C000FFFFFFFFFFFFFFFFFFFFFFFFFFFFFFFF30
:1010D000FFFFFFFFFFFF0000000000000000000016
:1010E0000000000000000000000000000000000000
:1010F00000000000000000000000000000000000F0
:1011000000000000000000000000000000000000DF
:1011100000000000000000000000000000000000CF
:1011200000000000000000000000000000000000BF
:1011300000000000000000000000000000000000AF
:10114000000000000000000000000000000000009F
:10115000000000000000000000000000000000008F
:10116000000000000000000000000000000000007F
:10117000000000000000000000000000000000006F
:10118000000000000000000000000000000000005F
:10119000000000000000000000000000000000004F
:1011A000000000000000000000000000000000003F
:1011B000000000000000000000000000000000002F
:1011C000000000000000000000000000000000001F
:1011D000000000000000FFFFFFFFFFFFFFFFFFFF19
:1011E000FFFFFFFFFFFFFFFFFFFFFFFFFFFFFFFF0F
:1011F000FFFFFFFFFFFFFFFFFFFFFFFFFFFFFFFFFF
:10120000FFFFFFFFFFFFFFFFFFFFFFFFFFFFFFFFEE
:10121000FFFFFFFFFFFFFFFFFFFFFFFFFFFFFFFFDE
:10122000FFFFFFFFFFFFFFFFFFFFFFFFFFFFFFFFCE
:10123000FFFFFFFFFFFFFFFFFFFFFFFFFFFFFFFFBE
:10124000FFFFFFFFFFFFFFFFFFFFFFFFFFFFFFFFAE
:10125000FFFFFFFFFFFFFFFFFFFFFFFFFFFFFFFF9E
:10126000FFFFFFFFFFFFFFFFFFFFFFFFFFFFFFFF8E
:10127000FFFFFFFFFFFFFFFFFFFFFFFFFFFFFFFF7E
:10128000FFFFFFFFFFFFFFFFFFFFFFFFFFFFFFFF6E
:10129000FFFFFFFFFFFFFFFFFFFFFFFFFFFFFFFF5E
:1012A000FFFFFFFFFFFFFFFFFFFFFFFFFFFFFFFF4E
:1012B000FFFFFFFFFFFFFFFFFFFFFFFFFFFFFFFF3E
:1012C000FFFFFFFFFFFFFFFFFFFFFFFFFFFFFFFF2E
:1012D000FFFFFFFFFFFF00081018202830384048AC
:1012E00050586068707880889098A0A8B0B8C0C83E
:1012F000D0D8E0E8F0E8E0D8D0C8C0B8B0A8A0984E
:10130000908880787068605850484038302820189D
:1013100010080008101820283038404850586068DD
:10132000707880889098A0A8B0B8C0C8D0D8E0E8FD
:10133000F0E8E0D8D0C8C0B8B0A8A098908880786D
:10134000706860585048403830282018100800084D
:1013500010182028303840485058606870788088CD
:101360009098A0A8B0B8C0C8D0D8E0E8F0E8E0D81D
:10137000D0C8C0B8B0A8A09890888078706860582D
:10138000504840383028201810080008101820282D
:101390003038404850586068707880889098A0A88D
:1013A000B0B8C0C8D0D8E0E8F0E8E0D8D0C8C0B83D
:1013B000B0A8A098908880787068605850484038ED
:1013C0003028201810080020406080A0C0E0FFDF17
:1013D000BF9F7F5F3F3F0080800000808000808053
:1013E0000000808000FFFF0000FFFF008080000001
:1013F00080800080800000808000FFFF0000FFFFF1
:1014000000FFFF0000FFFF00FFFF0000FFFF008064
:1014100080000080800080800000808000FFFF004E
:1014200000FFFF008080000080800080800000803E
:101430008000FFFF0000FFFF00FFFF0000FFFF0034
:10144000FFFF0000FFFF00808000008080008080A0
:101450000000808000FFFF0000FFFF008080000090
:1014600080800080800000808000FFFF0000FFFF80
:1014700000FFFF0000FFFF00FFFF0000FFFF0080F4
:1014800080000080800080800000808000FFFF00DE
:1014900000FFFF00808000008080008080000080CE
:1014A0008000FFFF0000FFFF00FFFF0000FFFF00C4
:1014B000FFFF0000FFFF00404000004040004040B0
:1014C0000000404000FFFF0000FFFF004040000020
:1014D000404000FF0000E40FF66E140EF7220900F2
:1014E000F5501200000000000000000000000000A5
:1014F00000000000000000000000000000000000EC
:1015000000000000000000000000000000000000DB
:1015100000000000000000000000000000000000CB
:1015200000000000000000000000000000000000BB
:1015300000000000000000000000000000000000AB
:10154000000000000000000000000000000000009B
:10155000000000000000000000000000000000008B
:10156000000000000000000000000000000000007B
:10157000000000000000000000000000000000006B
:10158000000000000000000000000000000000005B
:10159000000000000000000000000000000000004B
:1015A000000000000000000000000000000000003B
:1015B000000000000000000000000000000000002B
:1015C000000000000000000000000000000000001B
:1015D000000000000000000000000000000000000B
:1015E00000000000000000000000000000000000FB
:1015F00000000000000000000005090E13171C2168
:10160000252A2F33383D41464B4F545555504C47B2
:10161000423E3934302B26221D18140F0A060100D1
:1016200000000000000000000000000000000000BA
:1016300000000000000000000005090E13171C2127
:10164000252A2F33383D41464B4F545555504C4772
:10165000423E3934302B26221D18140F0A06010091
:10166000000000000000000000000000000000007A
:1016700000000000000000000005090E13171C21E7
:10168000252A2F33383D41464B4F545555504C4732
:10169000423E3934302B26221D18140F0A06010051
:1016A000000000000000000000000000000000003A
:1016B00000000000000000000005090E13171C21A7
:1016C000252A2F33383D41464B4F545555504C47F2
:1016D000423E3934302B26221D18140F0A06010011
:1016E00000000000000000000000000000000000FA
:1016F00000000000000000000000000000000000EA
:1017000000000000000000000000000000000000D9
:1017100000000000000000000000000000000000C9
:1017200000000000000000000000000000000000B9
:1017300000000000000000000000000000000000A9
:101740000000000000000000000000000000000099
:101750000000000000000000000000000000000089
:101760000000000003090F151B21272D33393F45C9
:101770004B51575D63696F757B81878D93999FA5E9
:10178000ABB1B7BDC3C9CFD5DBE1E7EDF3F9FFF9E5
:10179000F3EDE7E1DBD5CFC9C3BDB7B1ABA59F99E9
:1017A000938D87817B756F69635D57514B453F39D9
:1017B000332D27211B150F09030000000000000036
:1017C0000000000000000000000000000000000019
:1017D0000000000000000000000000000000000009
:1017E00000000000000000000000000000000000F9
:1017F00000000000000000000000000000000000E9
:1018000000000000000000000000000000000000D8
:1018100000000000000000000000000000000000C8
:1018200000000000000000000000000000000000B8
:1018300000000000000000000306090C0F1215183C
:101840001B1E2124272A2D303336393C3F42454880
:101850004B4E5154575A5D606366696C6F72757870
:101860007B7E8184878A8D909396999C9FA2A5A860
:10187000ABAEB1B4B7BABDC0C3C6C9CCCFD2D5D850
:10188000DBDEE1E4E7EAEDF0F3F6F9FCFFFCF9F664
:10189000F3F0EDEAE7E4E1DEDBD8D5D2CFCCC9C680
:1018A000C3C0BDBAB7B4B1AEABA8A5A29F9C999670
:1018B00093908D8A8784817E7B7875726F6C696660
:1018C00063605D5A5754514E4B4845423F3C393650
:1018D00033302D2A2724211E1B1815120F0C090640
:1018E00003000000000000000000000000000000F5
:1018F00000000000000000000000000000000000E8
:1019000000000000000000000000000000000000D7
:1019100000000000000000000000000000000000C7
:1019200000000000000000000000000000000000B7
:1019300000000000000000000000000000000000A7
:101940000000000000000000000000000000000097
:101950000000000000000000000000000000000087
:101960000000000000000000000000000000000077
:101970000000000000000000000000000000000067
:101980000000000000000000000000000000000057
:101990000000000000000000000000000000000047
:1019A0000000000000000000000000000000000037
:1019B0000000000000000000000000000000000027
:1019C0000000000000000000000000000000000017
:1019D0000000000000000000000000000000000007
:1019E00000000000000000000000000000000000F7
:1019F00000000000000000000000000000000000E7
:101A000000000000000000000000000000000000D6
:101A100000000000000000000000000000000000C6
:101A200000000000000000000000000000000000B6
:101A300000000000000000000000000000000000A6
:101A40000000000000000000000000000000000096
:101A50000000000000000000000000000000000086
:101A60000000000000000000000000000000000076
:101A70000000000000000000000000000000000066
:101A80000000000000000000000000000000000056
:101A90000000000000000000000000000000000046
:101AA0000000000000000000000000000000000036
:101AB0000000000000000000000000000000000026
:101AC0000000000000000000000000000000000016
:101AD0000000000000000000000000000000000006
:101AE00000000000FFFFFFFFFFFFFFFFFFFFFFFF02
:101AF000FFFFFFFFFFFFFFFFFFFFFFFFFFFFFFFFF6
:101B0000FFFFFFFFFFFFFFFFFFFFFFFFFFFFFFFFE5
:101B1000FFFFFFFFFFFFFFFFFFFFFFFFFFFFFFFFD5
:101B2000FFFFFFFFFFFFFFFFFFFFFFFFFFFFFFFFC5
:101B3000FFFFFFFFFFFFFFFFFFFFFFFFFFFFFFFFB5
:101B4000FFFFFFFFFFFFFFFFFFFFFFFFFFFFFFFFA5
:101B5000FFFFFFFFFFFFFFFFFFFFFFFFFFFFFFFF95
:101B6000FFFFFFFFFFFFFFFFFFFFFFFFFFFFFFFF85
:101B7000FFFFFFFFFFFFFFFFFFFFFFFFFFFFFFFF75
:101B8000FFFFFFFFFFFFFFFFFFFFFFFFFFFFFFFF65
:101B9000FFFFFFFFFFFFFFFFFFFFFFFFFFFFFFFF55
:101BA000FFFFFFFFFFFFFFFFFFFFFFFFFFFFFFFF45
:101BB000FFFFFFFFFFFFFFFFFFFFFFFFFFFFFFFF35
:101BC000FFFFFFFFFFFFFFFFFFFFFFFFFFFFFFFF25
:101BD000FFFFFFFFFFFFFFFFFFFFFFFFFFFFFFFF15
:101BE000FFFFFFFFFFFFFFFFFFFFFFFFFFFFFFFF05
:101BF000FFFFFFFFFFFFFFFFFFFFFFFFFFFFFFFFF5
:101C0000FFFFFFFFFFFFFFFFFFFFFFFFFFFFFFFFE4
:101C1000FFFFFFFFFFFFFFFFFFFFFFFFFFFFFFFFD4
:101C2000FFFFFFFFFFFFFFFFFFFFFFFFFFFFFFFFC4
:101C3000FFFFFFFFFFFFFFFFFFFFFFFFFFFFFFFFB4
:101C4000FFFFFFFFFFFFFFFFFFFFFFFFFFFFFFFFA4
:101C5000FFFFFFFFFFFFFFFFFFFFFFFFFFFFFFFF94
:101C6000FFFFFFFFFFFFFFFFFFFFFFFFFFFFFFFF84
:101C7000FFFFFFFFFFFFFFFFFFFFFFFFFFFFFFFF74
:101C8000FFFFFFFFFFFFFFFFFFFFFFFFFFFFFFFF64
:101C9000FFFFFFFFFFFFFFFFFFFFFFFFFFFFFFFF54
:101CA000FFFFFFFFFFFFFFFFFFFFFFFFFFFFFFFF44
:101CB000FFFFFFFFFFFFFFFFFFFFFFFFFFFFFFFF34
:101CC000FFFFFFFFFFFFFFFFFFFFFFFFFFFFFFFF24
:101CD000FFFFFFFFFFFFFFFFFFFFFFFFFFFFFFFF14
:101CE000FFFFFFFF000810182028303840485058E8
:101CF0006068707880889098A0A8B0B8C0C8D0D824
:101D0000E0E8F0E8E0D8D0C8C0B8B0A8A0989088C3
:101D10008078706860585048403830282018100883
:101D200000081018202830384048505860687078F3
:101D300080889098A0A8B0B8C0C8D0D8E0E8F0E8F3
:101D4000E0D8D0C8C0B8B0A8A09890888078706853
:101D500060585048403830282018100800081018E3
:101D600020283038404850586068707880889098B3
:101D7000A0A8B0B8C0C8D0D8E0E8F0E8E0D8D0C893
:101D8000C0B8B0A8A0989088807870686058504813
:101D90004038302820181008000810182028303843
:101DA000404850586068707880889098A0A8B0B873
:101DB000C0C8D0D8E0E8F0E8E0D8D0C8C0B8B0A833
:101DC000A0989088807870686058504840383028D3
:101DD000201810080020406080A0C0E0FFDFBF9FF7
:101DE0007F5F3F3F00000080808080000000FFFF99
:101DF000FFFF0000008080808000000080808080E5
:101E0000000000FFFFFFFF000000808080800000D6
:101E100000FFFFFFFF000000FFFFFFFF000000804A
:101E2000808080000000FFFFFFFF000000808080B6
:101E30008000000080808080000000FFFFFFFF0026
:101E4000000080808080000000FFFFFFFF00000096
:101E5000FFFFFFFF00000080808080000000FFFF88
:101E6000FFFF000000808080800000008080808074
:101E7000000000FFFFFFFF00000080808080000066
:101E800000FFFFFFFF000000FFFFFFFF00000080DA
:101E9000808080000000FFFFFFFF00000080808046
:101EA0008000000080808080000000FFFFFFFF00B6
:101EB000000080808080000000FFFFFFFF00000026
:101EC000FFFFFFFF00000040404040000000FFFF18
:101ED000FFFF000000404040400000004040404004
:101EE0000000FFFFF20FF66E1E0EF7220900F550FC
:101EF0001200000000000000004F00000007000773
:101F000000147F147F14242A7F2A1223130864628A
:101F100036495522500005030000001C22410000F4
:101F200041221C0014083E081408083E080800500E
:101F30003000000808080808006060000020100851
:101F400004023E5149453E00427F400042615149F2
:101F5000462141454B311814127F1027454545391C
:101F60003C4A494930017109050336494949360659
:101F70004949291E00363600000056360000081474
:101F800022410014141414140041221408020151B7
:101F90000906324979413E7E1111117E7F49494936
:101FA000363E414141227F4141221C7F49494941FE
:101FB0007F090909013E4149497A7F0808087F00E5
:101FC000417F41002040413F017F081422417F4072
:101FD0004040407F020C027F7F0408107F3E414159
:101FE000413E7F090909063E4151215E7F091929B9
:101FF00046464949493101017F01013F4040403F88
:102000001F2040201F3F4038403F631408146307DF
:10201000087008076151494543007F4141000204AF
:102020000810200041417F000402010204404040AA
:102030004040000102040020545454787F48444436
:10204000383844444420384444487F385454541861
:10205000087E0901020C5252523E7F0804047800A7
:10206000447D40002040443D007F10284400004152
:102070007F40007C041804787C08040478384444C9
:1020800044387C14141408081414187C7C080404C4
:10209000084854545420043F4440203C4040207C95
:1020A0001C2040201C3C4030403C44281028440C5C
:1020B0005050503C4464544C4400083641000000E9
:1020C0007F0000004136080008082A1C08081C2A66
:1020D00008080402FF02042040FF40202C32023294
:1020E0002C443C047C44635549414114147C141233
:1020F000443C1414747C141C147C10105410107F75
:102100007F7F7F7F05057D0505728D8A8810444499
:102110005F444400000000000000000000000000D8
:1021200000000000000000000000000000000000AF
:10213000000000000000000000000000000000009F
:10214000000000000000000000000000000000008F
:10215000000000000000000000000000000000007F
:10216000000000000000000000000000000000006F
:1021700000000000000000705070000000000F011F
:1021800001404078000010204000000018180000B6
:102190000A0A4A2A1E042434140C20107804001859
:1021A000084C483848487848484828187C08087C33
:1021B00008281840484878405454547C0018005867
:1021C0004038080808080801413D090720107C0232
:1021D000010E0243221E42427E424222120A7F0226
:1021E000423F02423E0A0A7F0A0A084642221E0471
:1021F00003423E04424242427E024F221F024A4AAA
:1022000040201C4222122A46023F424A46064840CB
:10221000201E08464A321E0A4A3E09080E004E2079
:102220001E04453D0504007F08100044241F0404DB
:102230004042424240422A122A0622127B162200C3
:1022400040201F0078000204783F44444444024286
:1022500042221E040204083032027F02320212229D
:10226000520E002A2A2A40382422207040281028A2
:10227000060A3E4A4A4A047F04140C4042427E4009
:102280004A4A4A4A7E040545251C0F40201F007C0F
:10229000007E80307E402010087E4242427E0E0248
:1022A00042221E4242402018020401020007050794
:1022B0000000C00FF66E220EF7220900F550120042
:1022C000008C02222222DC0020FF200000000000FF
:1022D000000000000000000000000020702000004E
:1022E00000000000000000000000000000000000EE
:1022F000000000000020702000000000000000002E
:102300000000000000000000000083C3E3331F0F43
:10231000070000FFFFFF333333330080FCFFFFC7AC
:10232000FFFFFC8000030303FFFFFF03030300FF25
:10233000FFFF333333330000FCFEFF0303C7C684C3
:10234000000102020202010020FF20000000000044
:10235000000000000000000000000000000000007D
:10236000000000000000000000000000000000006D
:10237000000000000000000000000000000000005D
:10238000000000000000000000000303030303033B
:102390000300C0630303030303030083434340803C
:1023A00000C3434340404000639393608040202338
:1023B000234383030303000000010303030301001D
:1023C0000018048242221C0020FF200000000000B0
:1023D000000000000000000000000020702000004D
:1023E00000000000000000000000000000000000ED
:1023F000000000000020702000000000000000002D
:10240000000000000000000000000000000080E06C
:10241000782F010000000000000043605048444352
:102420000027424242241800000000001F204040C4
:102430004020190000000000000000000000000023
:10244000000203020202020020FF20000000000040
:10245000000000000000000000000000000000007C
:10246000000000000000000000000000000000006C
:10247000000000000000000000000000000000005C
:102480000000000000000000000080E0380E0300A3
:1024900000000000000000000000300888888870FC
:1024A0000000806018F800007088F040B00800005C
:1024B000000000000000000000000000000000001C
:1024C00000000404FE00000020FF200000000000C7
:1024D000000080C040203010080808247422020246
:1024E00002020404040C0818102040C08000000000
:1024F000000000000020702000000000000000002C
:1025000000000000008040201806030000000020AA
:1025100070200000000000000000060808080807FE
:1025200000030202020F020008060107080700006C
:10253000000000000000000000000000000000009B
:10254000000000000300000020FF20C060301806DB
:102550000201010000000000000000000000000077
:102560000000000000000000000000000001020266
:102570000408081010202040404040202020101067
:10258000080C040201000000000000000000000030
:1025900000000000000000000000000202FF000038
:1025A000000C824121110E007C820101827C00F826
:1025B000100808F0100808F000C0704E414E70C0BE
:1025C00000F804020204F800203F202020202020F0
:1025D000202020202020202020A02020702020A0AB
:1025E000A02020202020202020202020202020206B
:1025F0002020A0A0A020702020A0A020202020200B
:102600002020202020202020202020A0A0A0A020CA
:10261000702020A0A02020000000C02090919020D9
:102620000011111111D13100E010111110E00081E1
:102630000000000180000081808100000000000196
:102640000000010202010000000000000000000084
:10265000000000000000000101FF0000003E41807A
:1026600080413E000000000000000000000000006B
:1026700086C1A0908887003E418080413E000000D6
:102680000000000000000000000063808888887758
:10269000003E418080413E00000007091010100FED
:1026A00000000018070000000E111111110E000F9C
:1026B000101010081F000912141409000000000077
:1026C000F76AD00FF66E260EF7220900F5501200B9
:1026D0003F0D00004D4F44453A5561727420202053
:1026E00020202020202530346C75256300002D2DFE
:1026F0002D2D2D2D2D2D2D2D2D2D2D2D2D2D2D2D0A
:102700002D2D2D2D000075617274312076616C7550
:10271000653D253033752020202020202D004D4F91
:1027200044453A536572766F284F55543A413729DC
:102730002530336C752563002D2D2D2D2D2D2D2D40
:102740002D2D2D2D2D2D2D2D2D2D2D2D2D2D000013
:1027500025303163416E676C65203D20253033752F
:10276000202530346C75757320202D0025303163A1
:10277000546172676574416E676C65203D20253039
:1027800033752020202D000025303163537465708F
:10279000416E676C65203D20253033752020202058
:1027A000202D0000253031635475726E203D2000CD
:1027B0004F4646202020202020202020202D0000D1
:1027C00025303163205B4F726967696E5D2054610B
:1027D00072676574202020202D0025303163202071
:1027E0004F726967696E205B5461726765745D2022
:1027F00020202D004F4E202020202020202020208F
:10280000202D000025303163205B53746F705D20F4
:102810005374617274202020202020202D00253048
:102820003163202053746F70205B53746172745D48
:102830002020202020202D003C456E7465723E2013
:10284000746F206E6578742E2020202020202D00AB
:102850004D4F44453A54656D702652482020202043
:10286000202530346C75256300002D2D2D2D2D2D48
:102870002D2D2D2D2D2D2D2D2D2D2D2D2D2D2D2D88
:10288000000020424D453238302020202020414D8C
:10289000323332302020202D000020414D3233329F
:1028A0003220202020202020202020202020202D09
:1028B0000000202020202020202020202020202058
:1028C000202020202020202D00002020202020203B
:1028D0002020202020202020202020202020202DEB
:1028E0000000202020536F7272792E20202020209B
:1028F000202020202020202D0000202020696E2074
:102900007072657061726174696F6E2E2020202D67
:1029100000004D4F44453A495220202020202020DD
:102920002020202530346C75256300002D2D2D2DA1
:102930002D2D2D2D2D2D2D2D2D2D2D2D2D2D2D2DC7
:102940002D2D0000202020202020202020202020AD
:102950002020202020202020202D000020202020AA
:102960002020202020202020202020202020202067
:10297000202D00002020202020202020202020208A
:102980002020202020202020202D0000202020207A
:102990002020202020202020202020202020202037
:1029A000202D0000202020536F7272792E202020CD
:1029B0002020202020202020202D00002020206901
:1029C0006E207072657061726174696F6E2E202066
:1029D000202D00004D4F44453A52464944202020C6
:1029E00020202020202530346C75256300002D2DFB
:1029F0002D2D2D2D2D2D2D2D2D2D2D2D2D2D2D2D07
:102A00002D2D2D2D000020202020202020202020D2
:102A100020202020202020202020202D00002020E9
:102A200020202020202020202020202020202020A6
:102A30002020202D000020202020202020202020C9
:102A400020202020202020202020202D00002020B9
:102A50002020202020202020202020202020202076
:102A60002020202D0000202020536F7272792E200C
:102A700020202020202020202020202D0000202089
:102A800020696E207072657061726174696F6E2E5C
:102A90002020202D00004D4F44453A4D503320203A
:102AA000202020202020202530346C752563000054
:102AB0002D2D2D2D2D2D2D2D2D2D2D2D2D2D2D2D46
:102AC0002D2D2D2D2D2D0000204B54343033412041
:102AD000202020202020202020202020202D000029
:102AE00020202020202020202020202020202020E6
:102AF00020202020202D0000202020202020202009
:102B0000202020202020202020202020202D0000F8
:102B100020202020202020202020202020202020B5
:102B200020202020202D0000202020536F72727959
:102B30002E2020202020202020202020202D0000BA
:102B4000202020696E207072657061726174696FF7
:102B50006E2E2020202D00004D4F44453A4D6F74BD
:102B6000696F6E20202020202530346C752563008D
:102B70002D2D2D2D2D2D2D2D2D2D2D2D2D2D2D2D85
:102B80002D2D2D2D2D2D000020424D583035352076
:102B9000202020202020202020202020202D000068
:102BA0002020202020202020202020202020202025
:102BB00020202020202D0000202020202020202048
:102BC000202020202020202020202020202D000038
:102BD00020202020202020202020202020202020F5
:102BE00020202020202D0000202020536F72727999
:102BF0002E2020202020202020202020202D0000FA
:102C0000202020696E207072657061726174696F36
:102C10006E2E2020202D00004D4F44453A4C434459
:102C2000204572726F722020202530346C75256328
:102C300000002D2D2D2D2D2D2D2D2D2D2D2D2D2D1E
:102C40002D2D2D2D2D2D2D2D000020637572736FD0
:102C5000725F696E6465783D2530336C7520202085
:102C6000202D000020202020202020202020202097
:102C70002020202020202020202D00002020202087
:102C80002020202020202020202020202020202044
:102C9000202D000020202020202020202020202067
:102CA0002020202020202020202D00002020205324
:102CB0006F7272792E2020202020202020202020BA
:102CC000202D0000202020696E20707265706172D6
:102CD0006174696F6E2E2020202D00004D4F4445F9
:102CE0003A4F70656E696E672020202020202530C5
:102CF000336C7525303163002D2D2D2D2D2D2D2D6F
:102D00002D2D2D2D2D2D2D2D2D2D2D2D2D2D00004D
:102D1000546869732073686F77206E6578742074C7
:102D2000696D653F202D00002020202020202020DC
:102D300020202020253031635965732025303163F0
:102D40004E6F202D00002020202020202020202039
:102D500020202020202020202020202D000020487E
:102D60006F7720746F2075736520627574746F6E51
:102D70002E20202D0000456E7465722043616E6325
:102D8000656C20557020446F776E202D0000253033
:102D90003163202020202025303163202020202076
:102DA0002025303163202020202530316320202D44
:102DB00000004D4F44453A4D6F646553656C736335
:102DC000742020202530336C7525303163002D2D83
:102DD0002D2D2D2D2D2D2D2D2D2D2D2D2D2D2D2D23
:102DE0002D2D2D2D00002530316348617264496E10
:102DF000666F20253031635254432020202020204C
:102E0000202D000025303163494F20202020202034
:102E10002025303163536572766F20202020202DCD
:102E20000000253031635553415254202020202585
:102E3000303163496C6C756D694C4544202D000040
:102E40002530316347726170686963202025303115
:102E50006354656D702652482020202D00003C43AD
:102E6000414E53454C3E4261636B20746F202020DD
:102E70002020202D00002020202074686973206D00
:102E80006F64652073656C6563742E2D00004D4F73
:102E900044453A4D6F646553656C7363742020201C
:102EA0002530336C7525303163002D2D2D2D2D2DC2
:102EB0002D2D2D2D2D2D2D2D2D2D2D2D2D2D2D2D42
:102EC0000000253031634952202020202025303158
:102ED000633539352631363520202020202D00005D
:102EE00025303163524649442020202020202020D4
:102EF00020202020202020202D00253031634D501F
:102F000033202020202020202020202020202020AE
:102F100020202D00253031634D6F74696F6E2020A5
:102F20002020202020202020202020202D003C4375
:102F3000414E53454C3E4261636B20746F2020200C
:102F40002020202D00002020202074686973206D2F
:102F50006F64652073656C6563742E2D00004D4FA2
:102F600044453A4861726477617265496E666F20C4
:102F70002530336C752563002D2D2D2D2D2D2D2DF8
:102F80002D2D2D2D2D2D2D2D2D2D2D2D2D2D0000CB
:102F90004350553D4D6963726F636869702020200E
:102FA00020202020202D00002020202050494331C7
:102FB000384634364B32322020202020202D00008D
:102FC0004C43443D544F50574159204C4D363032BC
:102FD00039534357202D0000566F6C746167653A72
:102FE000332E33562020202020202020202D0000AA
:102FF000446F743A31323878363420546578743AF4
:1030000032317838202D0000202020202020202060
:1030100020202020202020253031634E4558542088
:103020002D004D4F44453A4861726477617265499D
:103030006E666F202530336C752563002D2D2D2D88
:103040002D2D2D2D2D2D2D2D2D2D2D2D2D2D2D2DB0
:103050002D2D000050726F64756365723D5A4541B5
:103060005445432020202020202D000054656D7001
:103070006C61746520736F667477617265202020BF
:10308000202D000020202020205665723D25732D24
:103090000000202020202020202025303163476F91
:1030A000746F204F70656E696E672D00506C65619E
:1030B000736520736F66747761726520202020200D
:1030C000202D0000202020202020207573652069FD
:1030D0007420667265656C79212D00004D4F444562
:1030E0003A494F2020202020202020202025303445
:1030F0006C75256300002D2D2D2D2D2D2D2D2D2DA5
:103100002D2D2D2D2D2D2D2D2D2D2D2D000049A5B5
:103110004F207261372D303D2530317525303175A6
:1031200025303175253031752C25303175253031FC
:103130007525303175253031752020202D004F55F3
:1031400054207262352D303D253031752530317572
:103150002530317525303175253031752530317583
:1031600020202020202D0000414E207265312D307E
:103170003D2530346C752C2530346C752020202D85
:10318000000020202020202020202020202020207F
:10319000202020202020202D000020202020202062
:1031A0002020202020202020202020202020202D12
:1031B000000020202020202020202020202020204F
:1031C000202020202020202D00004D4F44453A494A
:1031D0006C6C756D694C4544202020202530336C83
:1031E000752563002D2D2D2D2D2D2D2D2D2D2D2DC6
:1031F0002D2D2D2D2D2D2D2D2D2D00002530316324
:10320000575332383132622C32383131284F5554CD
:103210003A4136292D002020202020202020202067
:1032200020202020202020202020202D00002020D1
:10323000202020202020202020202020202020208E
:103240002020202D000020202020202020202020B1
:1032500020202020202020202020202D00002020A1
:10326000202020202020202020202020202020205E
:103270002020202D00002020202020202020202081
:1032800020202020202020202020202D00004D4F15
:1032900044453A575332383132622C32383131207A
:1032A0002530336C752563002D2D2D2D2D2D2D2DC5
:1032B0002D2D2D2D2D2D2D2D2D2D2D2D2D2D000098
:1032C000206C65645F76616C75653D2530336C7587
:1032D000202020202020202D000025303163636F26
:1032E0006C6F725F7365743D25303275202020202D
:1032F000202020202D00253031636D6F64655F73C1
:1033000065743D253032752020202020202020208B
:103310002D002530316373706565643D253032754D
:103320002020202020202020202020202D0025309B
:1033300031637369676E616C747970653D253032F5
:1033400075202020202020202D0025303163746935
:103350006D696E673D2530327520202020202020A9
:10336000202020202D004D4F44453A57533238310C
:1033700032622C32383131202530336C75256300B0
:103380002D2D2D2D2D2D2D2D2D2D2D2D2D2D2D2D6D
:103390002D2D2D2D2D2D0000253031636272696792
:1033A00068746E6573733D253033752020202020AE
:1033B000202D000020202020202020202020202040
:1033C0002020202020202020202D00002020202030
:1033D00020202020202020202020202020202020ED
:1033E000202D000020202020202020202020202010
:1033F0002020202020202020202D00002020202000
:1034000020202020202020202020202020202020BC
:10341000202D0000202020202020202020202020DF
:103420002020202020202020202D00004D4F44452A
:103430003A52544328525838393030292020253008
:10344000336C752563004164643A572F523D3078E0
:1034500036342F30783635202020202D000044418E
:1034600054453A3230253032782F253032782F25A6
:1034700030327820000054494D453A253032783AB0
:10348000253032783A253032782020202020202024
:10349000202D00002020202020202020202020205F
:1034A0002020202020202020202D00003C456E746C
:1034B00065723E20746F2054696D65456469742E91
:1034C000202D0000444154453A202020202F253053
:1034D00032782F25303278200000444154453A326A
:1034E00030253032782F253032782F253032782031
:1034F000000054494D453A253032783A253032782B
:103500003A2530327820202020202020202D000055
:1035100020202020202020202020202020202020AB
:1035200020202020202D00003C456E7465723E2036
:10353000746F204E6578742E20202020202D0000EE
:10354000444154453A3230253032782F20202F25FF
:10355000303278200000444154453A323025303230
:10356000782F253032782F253032782000005449CA
:103570004D453A253032783A253032783A25303286
:103580007820202020202020202D00002020202016
:10359000202020202020202020202020202020202B
:1035A000202D00003C456E7465723E20746F204EE5
:1035B0006578742E20202020202D000044415445A1
:1035C0003A3230253032782F253032782F202020A3
:1035D0000000444154453A3230253032782F2530AE
:1035E00032782F2530327820000054494D453A2555
:1035F0003032783A253032783A253032782020201F
:1036000020202020202D00002020202020202020ED
:10361000202020202020202020202020202D0000DD
:103620003C456E7465723E20746F204E6578742E32
:1036300020202020202D0000444154453A323025DE
:103640003032782F253032782F2530327820000024
:1036500020202020202D000054494D453A253032AD
:10366000783A253032783A253032782020202020D0
:103670002020202D0000202020202020202020207D
:1036800020202020202020202020202D00003C452C
:103690006E7465723E20746F204E6578742E202003
:1036A0002020202D0000444154453A32302530324C
:1036B000782F253032782F25303278200000544979
:1036C0004D453A20203A253032783A25303278205C
:1036D000202020202020202D000054494D453A254F
:1036E0003032783A253032783A253032782020202E
:1036F00020202020202D00002020202020202020FD
:10370000202020202020202020202020202D0000EC
:103710003C456E7465723E20746F204E6578742E41
:1037200020202020202D0000444154453A323025ED
:103730003032782F253032782F2530327820000033
:1037400054494D453A253032783A20203A253032D6
:103750007820202020202020202D000054494D4595
:103760003A253032783A253032783A25303278208E
:10377000202020202020202D00002020202020207C
:103780002020202020202020202020202020202D2C
:1037900000003C456E7465723E20746F204E657863
:1037A000742E20202020202D0000444154453A3220
:1037B00030253032782F253032782F25303278205E
:1037C000000054494D453A253032783A2530327858
:1037D0003A202020202020202020202D00005449A5
:1037E0004D453A253032783A253032783A25303214
:1037F0007820202020202020202D000020202020A4
:1038000020202020202020202020202020202020B8
:10381000202D00003C456E7465723E20746F204E72
:103820006578742E20202020202D000053617665BD
:103830003F20202020202020202020202020202069
:10384000202D00003C456E7465723E206F72203C56
:1038500043616E63656C3E20202D000020202020F7
:103860002020202020202020202020202020202058
:10387000202D00002020202020202020202020207B
:103880002020202020202020202D00004D4F4445C6
:103890003A35393526313635202020202025303460
:1038A0006C75256300002D2D2D2D2D2D2D2D2D2DED
:1038B0002D2D2D2D2D2D2D2D2D2D2D2D0000233198
:1038C00020373448433539353D2531782531782541
:1038D00031782531782025317825317825317825C2
:1038E0003178202D000020202020202020202020A2
:1038F0002025303163253031632530316325303167
:103900006320253031632530316325303163253024
:103910003163202D000023322037344843353935B8
:103920003D253178253178253178253178202531AC
:1039300078253178253178253178202D0000202018
:1039400020202020202020202025303163253031E8
:1039500063253031632530316320253031632530D4
:1039600031632530316325303163202D0000233150
:1039700020373448433136353D2531782531782597
:103980003178253178202531782531782531782511
:103990003178202D0000233220373448433136352A
:1039A0003D2531782531782531782531782025312C
:1039B00078253178253178253178202D00009EAA90
:1039C000FED7ABCF1FF0AECF01F01FA202D0AB9855
:1039D000AB88F9EF1CF09EAA23D0036A6651670FEB
:1039E000E96E000E0320EA6EEACF86F4E9CF85F493
:1039F000E6D786C4EAFF85C4E9FF01C0EFFF036A8A
:103A00006651670FE96E000E0320EA6EEFCF83F474
:103A1000040183519EA8FED7AD6E0001662BDBD753
:103A20009E9A36EF00F020C1D7FF1FC1D6FF2E525D
:103A300002E0000E01D0010E2E6E010E2F6E01016C
:103A4000156F406E416E3E2A3E2C01D0422A4352F1
:103A500013E1C282C2B2FED70401D890C334566EBD
:103A6000C434576E010E436E180E016EC250830BA4
:103A70000110C26E13D00101432C11D0C282C2B218
:103A8000FED70401D890C334586EC434596E436ACB
:103A9000140E016EC250830B0110C26E0101375229
:103AA00003E13650090810E2376A366A305202E004
:103AB000000E01D0010E306E010E316E215103084F
:103AC00002E1216B01D0212B362AD8B4372A395292
:103AD00003E1385031080AE2396A386A325202E0AA
:103AE000000E01D0010E326E010E336E382AD8B4AA
:103AF000392A3B5203E13A5063080BE23B6A3A6AC7
:103B0000345202E0000E01D0010E346E010E356E0B
:103B10003F6E3A2AD8B43B2A3C2AD8B43D2AF294C4
:103B2000000136EF00F05A542D2A2A2A2A2D534F2D
:103B30004654205665722E302E393020554152544D
:103B4000310D0A00616E616C6F675F76616C75653F
:103B50003D2530346C646D560D0A00007261313DB4
:103B600025640D0A000004017E518003F3CF01F0AB
:103B7000F4CF00F08103F35000267F518003F3500F
:103B80000020026E000112008E0E006E50C401F083
:103B90004FC402F0036A015209E102C001F0026A57
:103BA000080E005E015202E1006A08D0D89001BE02
:103BB00004D0023601360006F9D7019E1200040136
:103BC0004F51D8B471D0006E5351D8B46DD0002687
:103BD00004E3810E002668E204D07F0E005E64E3F9
:103BE00063E050C457F45451571B508F548F5251B7
:103BF0005603F4CF59F451515503F4CF03F0F3CFEA
:103C000058F45603F3505927F4505823000E03225A
:103C100052515503F3505927F4505823000E026AAD
:103C20000322022250515603F3505827F450032226
:103C3000000E022250515503F3500326F450022285
:103C4000000E016A012252515403F3505827F450D8
:103C50000322000E0222012251515403F350032685
:103C6000F4500222000E012250515403F350022658
:103C7000F4500122002A01BE05D05837033602361F
:103C800001360006000E58AF0AD0032A0222012294
:103C9000015005E1025003E1035001E1002A57BF42
:103CA000018E57AF019E04D0006A016A026A036A5E
:103CB000000112008E0E006E04014F51005E50C4D0
:103CC00002F051C401F0028E005209E0D890025275
:103CD00002E1015204E002320132002EF7D750AF68
:103CE00005D0011E021E012AD8B4022A00011200CA
:103CF0000401476B466B476B466B47513C5DD8A050
:103D000035D104E13B51465DD8B030D1380E46255F
:103D1000E96E010E4721EA6E7F6B45C47EF4010E09
:103D2000816F806B00011FDF02C04BF401C04AF4B9
:103D3000040146510124016E47510220036E0150D7
:103D400003C0F7FF00015DEC00F004014A6F506B07
:103D500037C14FF4000118DF03C052F402C051F420
:103D600001C050F400C04FF40A0E0401566FD70E84
:103D7000556F230E546F780E536F000120DF00C083
:103D80004BF401C04CF402C04DF403C04EF40401E6
:103D9000506B4AC44FF40001F7DE03C052F402C076
:103DA00051F401C050F400C04FF44EC456F44DC459
:103DB00055F44CC454F44BC453F401DF03C052F423
:103DC00002C051F401C050F400C04FF473DF01C0D1
:103DD000EFFF390E04014625E96E020E4721EA6E17
:103DE0007F6B45C47EF4010E816F806B0001BBDEEA
:103DF00002C04BF401C04AF4040146510124016E93
:103E000047510220036E015003C0F7FF000164EC2C
:103E100005F004014A6F506B37C14FF40001B4DE66
:103E200003C052F402C051F401C050F400C04FF47A
:103E30000A0E0401566FD70E556F230E546F780E7D
:103E4000536F0001BCDE00C04BF401C04CF402C053
:103E50004DF403C04EF40401506B4AC44FF400010A
:103E600093DE03C052F402C051F401C050F400C00C
:103E70004FF44EC456F44DC455F44CC454F44BC4E2
:103E800053F49DDE03C052F402C051F401C050F45B
:103E900000C04FF40FDF01C0EFFF3A0E04014625CA
:103EA000E96E030E4721EA6E7F6B45C47EF4010E76
:103EB000816F806B000157DE02C04BF401C04AF4F1
:103EC000040146510124016E47510220036E015046
:103ED00003C0F7FF00016BEC0AF004014A6F506B5E
:103EE00037C14FF4000150DE03C052F402C051F458
:103EF00001C050F400C04FF40A0E0401566FD70EF3
:103F0000556F230E546F780E536F000158DE00C0BA
:103F10004BF401C04CF402C04DF403C04EF4040154
:103F2000506B4AC44FF400012FDE03C052F402C0AC
:103F300051F401C050F400C04FF44EC456F44DC4C7
:103F400055F44CC454F44BC453F439DE03C052F45A
:103F500002C051F401C050F400C04FF4ABDE01C008
:103F6000EFFF0401462BD8B4472BC7D6000112003F
:103F7000040EEA6E4A0EE96EEF500EE0140E016E6A
:103F8000006A002EFED7012EFBD7BF0E006E002E5A
:103F9000FED700D0EF2EF2D712008B929492956A42
:103FA00073C48CFF8B9094908B80949012008B84C0
:103FB00094948B8294928B8094908B8494948B9421
:103FC0009494050E04014A6F0001D2DF8B8494940F
:103FD0000F0E006E002EFED700D0AF0E0401736FDF
:103FE0000001DBDF400E0401736F0001D6DFA00E7D
:103FF0000401736F0001D1DFA60E0401736F00018D
:10400000CCDFA40E0401736F0001C7DFA20E040110
:10401000736F0001C2DFC80E0401736F0001BDDFC2
:104020002F0E0401736F0001B8DF250E0401736FBA
:104030000001B3DF810E0401736F0001AEDF40C4E5
:1040400073F4ABDF79EF21F00401416B700ED36E96
:104050009B8C9B9E870ED56EF28A9D8AC00EF212B3
:10406000D180FD0E0101206F8C0E1F6F20C1D7FF84
:104070001FC1D6FFA00E0F01426FC050C00B070931
:10408000C06EC08EC280C150F00B0809C16E000E18
:10409000386F030E3C6F000E396F3A6F3B6F0F0E97
:1040A000926E080E936E980E946E000E956E96802A
:1040B000968296949696D0500F0BD0A8000ED08082
:1040C000D082D088D886D8882D6E92820401416B28
:1040D00080A2412BF2CF42F4F29EAA6AA96AA69C62
:1040E000A69EA680A85042BFF28E0101126F116BEE
:1040F000F2CF42F4F29EAA6A010EA96EA69CA69E79
:10410000A680A850040142BFF28E01011127000EC3
:104110001223113D03D0123D01D004D00401412DE2
:1041200004D00101126B116B0401F2CF42F4F29E34
:10413000AA6A100EA96EA69CA69EA680A85042BF91
:10414000F28E0101326F323D01D004D00401412DC5
:1041500004D00101010E326F0401F2CF42F4F29E4D
:10416000AA6A110EA96EA69CA69EA680A85042BF60
:10417000F28E0101336F333D01D004D00401412D93
:1041800004D00101010E336F0401F2CF42F4F29E1C
:10419000AA6A120EA96EA69CA69EA680A85042BF2F
:1041A000F28E0101346F343D01D004D00401412D61
:1041B00004D00101010E346F0401F2CF42F4F29EEB
:1041C000AA6A130EA96EA69CA69EA680A85042BFFE
:1041D000F28E0101356F353D01D004D00401412D2F
:1041E00003D00101356B0401F2CF42F4F29EAA6ABA
:1041F000140EA96EA69CA69EA680A85042BFF28E61
:104200000101366F363D01D004D00401412D03D0A9
:104210000101366B0401F2CF42F4F29EAA6A150E38
:10422000A96EA69CA69EA680A85042BFF28E010150
:10423000376F373D01D004D00401412D03D0010177
:104240000A0E376F0101115306E1125304E1146B9A
:10425000010E136F4BD011510A0806E1125304E10D
:10426000146B010E136F42D0125303E11151630816
:1042700009E2125307E11151C60804E3146B010E61
:10428000136F34D01151580807E11251020804E1AC
:10429000146B010E136F2AD01151BD080CE112519D
:1042A000020809E1146B010E136F32C145F40001DD
:1042B0001FDD1DD001011151BE080CE11251020891
:1042C00009E1146B060E136F32C145F4000110DDD5
:1042D0000ED001011151140807E11251050804E143
:1042E000146B010E136F02D0146B136B00010400EA
:1042F0005ED6D2EF60F09280486A80A0482A48C01B
:104300005AF09282496A80A2492A49C05CF092849C
:104310004A6A80A44A2A4AC05EF092864B6A80A606
:104320004B2A4BC060F05A5203E1636B626B16D0AC
:104330005A2C09D0635307E16251630804E3622BEE
:10434000D8B4632B0BD05A2C09D06251640806E113
:10435000635304E10101126B0A0E116F0001D8EFE3
:1043600060F00401486B0A0E476F46C448F445C428
:1043700047F4AA6A010EA96E47C4A8FFA69CA69E90
:10438000A684F250006EF29E0F01550EA76EAA0E83
:10439000A76EA682A6B2FED7A6940050F21248C419
:1043A00047F40401486BAA6AA96A47C4A8FFA69CFF
:1043B000A69EA684F250006EF29E0F01550EA76EC7
:1043C000AA0EA76EA682A6B2FED7A6940050F2123D
:1043D000000112000401416B426B436B446B5A5065
:1043E0005B5C04E05A5202E1010E416F5AC05BF07F
:1043F0005C505D5C04E05C5202E1010E426F5CC007
:104400005DF05E505F5C04E05E5202E1010E436FBE
:104410005EC05FF000016051615D06E0605304E141
:10442000010E0401446F000160C061F004014153BA
:10443000D8B4A3D0416B0101125321E111510908F5
:104440001EE3126B0A0E116F132D09D0145307E1EE
:104450000401466B456B000184DF0CD00101135150
:10446000020809E1145307E112C146F411C145F4F1
:10447000000177DF0101146B010E136F7DD0125321
:1044800004E111510908D8B077D01253D8A474D0E0
:1044900011516308D8A070D014C17FF413C17EF409
:1044A0000401816B640E806F0001B3EC1DF002C04B
:1044B00012F101C011F112C146F411C145F451DFEE
:1044C0000101132D06D0145304E1146B010E136F78
:1044D00053D01351020803E1145301E14DD013519D
:1044E000030803E1145301E147D01351040803E129
:1044F000145301E141D01351050803E1145301E1C4
:104500003BD01351060806E1145304E1146B010E6D
:10451000136F32D01351070806E1145304E1146BF2
:10452000010E136F29D01351080803E1145301E160
:1045300023D01351090803E1145301E11DD0135195
:104540000A0803E1145301E117D013510B0803E1EA
:10455000145301E111D013510C0803E1145301E18C
:104560000BD013510D0806E1145304E1146B010E36
:10457000136F02D0146B136B04014253D8A4426B27
:10458000435325E0436B010112530DE1115109081A
:104590000AE3145303E11351010804E21351D8B4A0
:1045A0001407130713D0125303E1115109080EE247
:1045B00012530CE11151630809E3145303E1135141
:1045C000010804E21351D8B414071307040144533B
:1045D00023E0446B010112530CE11151090809E376
:1045E000145306E11351010803E3132BD8B4142B21
:1045F00012D0125303E1115109080DE212530BE1DD
:104600001151630808E3145306E113510C0803E346
:10461000132BD8B4142B04010001E1EF60F0B00EAD
:1046200004017125726F736F0001B7DC100E040175
:10463000736F0001B2DC0401736B0001AEDC120089
:104640008B829492956A7FC48CFF8B9094908B8020
:1046500094901200200E04017B5D7D6F7F6B7E6F56
:10466000816B050E806F0001B3EC1DF002C07DF47C
:1046700001C07CF402C003F00401015002C0F7FF46
:10468000000172EC0FF004017E6F7F6F0001D8DF34
:10469000200E04017B5D7D6F7F6B7E6F816B050E4D
:1046A000806F0001B3EC1DF002C07DF401C07CF40A
:1046B000010E04010124016E000E0220036E015060
:1046C00003C0F7FF000172EC0FF004017C6F7F6FF5
:1046D0000001B6DF200E04017B5D7D6F7F6B7E6F76
:1046E000816B050E806F0001B3EC1DF002C07DF4FC
:1046F00001C07CF4020E04010124016E000E0220B0
:10470000036E015003C0F7FF000172EC0FF00401CB
:104710007C6F7F6F000194DF200E04017B5D7D6F55
:104720007F6B7E6F816B050E806F0001B3EC1DF017
:1047300002C07DF401C07CF4030E04010124016E6B
:10474000000E0220036E015003C0F7FF000172EC5F
:104750000FF004017C6F7F6F000172DF200E0401F7
:104760007B5D7D6F7F6B7E6F816B050E806F0001BF
:10477000B3EC1DF002C07DF401C07CF4040E040112
:104780000124016E000E0220036E015003C0F7FFEA
:10479000000172EC0FF004017C6F7F6F000150DFAD
:1047A00004017F6B00014CDF12000900F6CF73F4A7
:1047B000F7CF74F4F5CF7BF44DDF73C4F6FF74C408
:1047C000F7FF0401722F01D002D00001EED70001E3
:1047D0001200EACF7AF4E9CF79F404017339F009D1
:1047E000756F7527E20F766F320F786F73510F0B6D
:1047F000762776277827E90F776F7727772772391B
:104800000F0B7727782777377837781F78377251EB
:104810000F0B78277537070E746F0A0E7707782706
:10482000FDE376077727FDE375077627FDE3740739
:104830007527FDE3040EEA6E740EE96E070E791516
:10484000799DE926780EE95CD8B4798DEF50006E39
:1048500008E179BD06D079B915D079B702D0200E1C
:1048600003D079877999300E0026EACF73F4E9CF27
:1048700072F400C07BF40001EDDE73C4EAFF72C481
:10488000E9FF0401EE5079ADDDD700011200090007
:10489000F5520CE0F6CF71F4F7CF72F4F5CF7BF45C
:1048A000D9DE71C4F6FF72C4F7FFF1D71200200EF3
:1048B0000401416F426F436F446F456F466F476F0E
:1048C000486F496F4A6F4B6F4C6F4D6F4E6F4F6F14
:1048D000506F516F526F536F546F410E010113258A
:1048E000E96E040E1421EA6E3E0EEF6E1153D8A449
:1048F000C1D01253D8A4BED00401716B00018FDE69
:10490000036A01012151220FE96E010E0320EA6EB4
:10491000EFCF55F4DC0EF66E2C0EF76E120E04017E
:10492000726F000142DF0A0EE96E12C173F411C109
:1049300072F44FDF55C47BF48DDE010E0401716FFC
:1049400000016DDEF80EF66E2C0EF76EA0DF020E83
:104950000401716F000163DE100EF66E2D0EF76E0E
:1049600096DF030E0401716F000159DE280EF66E0A
:104970002D0EF76E0C0E0401726F000116DF42C49B
:104980007BF468DE380EF66E2D0EF76E040E040111
:10499000726F00010ADF43C47BF45CDE400EF66EEA
:1049A0002D0EF76E040E0401726F0001FEDE040E80
:1049B0000401716F000133DE460EF66E2D0EF76EA8
:1049C00066DF050E0401716F000129DE5E0EF66ED2
:1049D0002D0EF76E5CDF060E0401716F00011FDE05
:1049E000760EF66E2D0EF76E52DF070E0401716F14
:1049F000000115DE810E04017B6F00012BDE920E9B
:104A0000F66E2D0EF76E050E0401726F0001CDDEFD
:104A1000810E04017B6F00011DDE9B0EF66E2D0ED4
:104A2000F76E060E0401726F0001BFDE810E0401F5
:104A30007B6F00010FDEA50EF66E2D0EF76E040ED5
:104A40000401726F0001B1DE810E04017B6F000171
:104A500001DE200E04017B6F0001FCDD200E04014D
:104A60007B6F0001F7DD2D0E04017B6F0001F2DD8D
:104A700059D1010111510A08D8A455D11253D8A413
:104A800052D11453D8A4B9D013510808D8A0B5D026
:104A90000401716B0001C3DD036A01012151220F82
:104AA000E96E010E0320EA6EEFCF55F4B20EF66EFA
:104AB0002D0EF76E120E0401726F000176DE0A0EE3
:104AC000E96E12C173F411C172F483DE55C47BF434
:104AD000C1DD010E0401716F0001A1DDCE0EF66E85
:104AE0002D0EF76ED4DE020E0401716F000197DD0A
:104AF00042C47BF4AFDDEA0EF66E2D0EF76E090EA2
:104B00000401726F000151DE46C47BF4A3DDF70E91
:104B1000F66E2D0EF76E0B0E0401726F000145DE6E
:104B2000030E0401716F00017ADD43C47BF492DD52
:104B3000080EF66E2E0EF76E090E0401726F00015C
:104B400034DE47C47BF486DD150EF66E2E0EF76E4E
:104B50000B0E0401726F000128DE040E0401716F58
:104B600000015DDD44C47BF475DD260EF66E2E0E6D
:104B7000F76E090E0401726F000117DE48C47BF462
:104B800069DD330EF66E2E0EF76E0B0E0401726F9A
:104B900000010BDE050E0401716F000140DD45C40C
:104BA0007BF458DD440EF66E2E0EF76E090E0401EE
:104BB000726F0001FADD49C47BF44CDD510EF66ED4
:104BC0002E0EF76E0B0E0401726F0001EEDD060E65
:104BD0000401716F000123DD5E0EF66E2E0EF76E7E
:104BE00056DE070E0401716F000119DD760EF66EB8
:104BF0002E0EF76E4CDE96D00101145304E11351D2
:104C00000808D8B090D00401716B000108DD036A78
:104C100001012151220FE96E010E0320EA6EEFCF50
:104C200055F48E0EF66E2E0EF76E120E0401726F94
:104C30000001BBDD0A0EE96E12C173F411C172F4FA
:104C4000C8DD55C47BF406DD010E0401716F00015F
:104C5000E6DCAA0EF66E2E0EF76E19DE020E0401C9
:104C6000716F0001DCDC4AC47BF4F4DCC60EF66E26
:104C70002E0EF76E070E0401726F000196DD4EC412
:104C80007BF4E8DCD10EF66E2E0EF76E0D0E0401ED
:104C9000726F00018ADD030E0401716F0001BFDC39
:104CA0004BC47BF4D7DCE40EF66E2E0EF76E150EB9
:104CB0000401726F000179DD040E0401716F0001BF
:104CC000AEDC4CC47BF4C6DCFE0EF66E2E0EF76E28
:104CD000150E0401726F000168DD050E0401716F8D
:104CE00000019DDC4DC47BF4B5DC180EF66E2F0E72
:104CF000F76E150E0401726F000157DD060E0401F8
:104D0000716F00018CDC2E0EF66E2F0EF76EBFDD7C
:104D1000070E0401716F000182DC460EF66E2F0E45
:104D2000F76EB5DD01010001E6EF60F00401416BB3
:104D3000426B436B446B5A505B5C04E05A5202E195
:104D4000010E416F5AC05BF05C505D5C04E05C5248
:104D500002E1010E426F5CC05DF05E505F5C04E0FA
:104D60005E5202E1010E436F5EC05FF000016051D0
:104D7000615D06E0605304E1010E0401446F00012F
:104D800060C061F00401415313E0416B0101115116
:104D9000640806E1125304E1126B650E116F07D02F
:104DA0001151650804E1125302E1126B116B040109
:104DB000425309E0426B0101126B0A0E116F146B32
:104DC000010E136F04010001F5EF60F0EF520FE0E8
:104DD000EACF74F4E9CF73F4EFCF7BF43BDC74C417
:104DE000EAFF73C4E9FFE92AD8B4EA2AEFD7120030
:104DF000200E0401416F426F436F446F456F466F51
:104E0000476F486F496F4A6F4B6B410E0101132585
:104E1000E96E040E1421EA6E3E0EEF6E1151640825
:104E2000D8A486D01253D8A483D00401716B00019A
:104E30000FEC23F0036A01012151220FE96E010EEC
:104E40000320EA6EEFCF4CF45E0EF66E2F0EF76E77
:104E5000120E0401726F0001A8DC0A0EE96E12C185
:104E600073F411C172F4B5DC4CC47BF42AEC23F06A
:104E7000010E0401716F00010FEC23F0780EF66E45
:104E80002F0EF76E04DD020E0401716F00010FECAE
:104E900023F0900EF66E2F0EF76EF9DC030E040170
:104EA000716F00010FEC23F0A80EF66E2F0EF76E57
:104EB000EEDC040E0401716F00010FEC23F0C00E54
:104EC000F66E2F0EF76EE3DC050E0401716F000124
:104ED0000FEC23F0D80EF66E2F0EF76ED8DC060E10
:104EE0000401716F00010FEC23F0F00EF66E2F0E2F
:104EF000F76ECDDC070E0401716F00010FEC23F09B
:104F0000080EF66E300EF76E0F0E0401726F000180
:104F10004CDC42C47BF42AEC23F01B0EF66E300E00
:104F2000F76E060E0401726F00013FDC9AD001019A
:104F300011516508D8A496D01253D8A493D0040177
:104F4000716B00010FEC23F0036A01012151220F64
:104F5000E96E010E0320EA6EEFCF4CF4220EF66EDE
:104F6000300EF76E120E0401726F00011EDC0A0E85
:104F7000E96E12C173F411C172F42BDC4CC47BF4E2
:104F80002AEC23F0010E0401716F00010FEC23F0F5
:104F90003C0EF66E300EF76E7ADC020E0401716F75
:104FA00000010FEC23F0540EF66E300EF76E6FDC3E
:104FB000030E0401716F00010FEC23F06C0EF66E0E
:104FC000300EF76E64DC040E0401716F00010FEC0B
:104FD00023F0840EF66E300EF76E090E0401726F28
:104FE0000001D5EC23F0EA6A200EE96EEFDE2D0E0B
:104FF00004017B6F00012AEC23F0050E0401716FA0
:1050000000010FEC23F0920EF66E300EF76E080ED4
:105010000401726F0001D5EC23F042C47BF42AEC4A
:1050200023F09E0EF66E300EF76E0D0E0401726FB9
:105030000001D5EC23F0060E0401716F00010FECA6
:1050400023F0AC0EF66E300EF76E21DC070E040175
:10505000716F00010FEC23F0C40EF66E300EF76E88
:1050600016DC01010001FAEF60F00401416B426BB4
:10507000436B446B5A505B5C04E05A5202E1010EF0
:10508000416F5AC05BF05C505D5C04E05C5202E131
:10509000010E426F5CC05DF05E505F5C04E05E52EA
:1050A00002E1010E436F5EC05FF000016051615D7F
:1050B00006E0605304E1010E0401446F000160C08A
:1050C00061F00401415301E0416B425309E0426B3E
:1050D0000101126B0A0E116F146B020E136F0401A3
:1050E00000010BEF61F004014E51016A4D5D03E2D6
:1050F0004DC400F00CD0006A080E4F6F4D370036DB
:105100004E51005CD8B0006E01364F2FF7D700012A
:10511000120001504BC44DF4640E04014E6F0001A7
:10512000E2DF00C04BF40150300E08E104014CA353
:1051300010D04CB70ED04CB9200E04D004014C97BF
:105140004C994C81012601C07BF400012AEC23F02C
:1051500004014BC44DF40A0E4E6F0001C4DF00C0C1
:105160004BF40150300E08E104014CB70BD04CA1B8
:1051700009D04CB9200E0001012601C07BF42AECB5
:1051800023F00401300E4B274BC47BF400012AECC2
:1051900023F0120001011151C808D8A425D11253DF
:1051A000D8A422D10401716B00010FEC23F0036A33
:1051B00001012151220FE96E010E0320EA6EEFCFAB
:1051C00041F4DC0EF66E300EF76E110E0401726FB4
:1051D0000001D5EC23F0090EE96E12C173F411C180
:1051E00072F4E9EC23F041C47BF42AEC23F0010EC5
:1051F0000401716F00010FEC23F0F60EF66E300E15
:10520000F76E47EC24F0020E0401716F00010FEC01
:1052100023F00E0EF66E310EF76E0A0E0401726F59
:105220000001D5EC23F04FC04BF4080E04014C6F85
:1052300000016FDF4EC04BF4080E04014C6F0001FB
:1052400068DF4DC04BF4080E04014C6F000161DFB4
:105250004CC04BF4080E04014C6F00015ADF2C0EB9
:1052600004017B6F00012AEC23F04BC04BF4080EC5
:1052700004014C6F00014DDF4AC04BF4080E0401DD
:105280004C6F000146DF49C04BF4080E04014C6F1F
:1052900000013FDF48C04BF4080E04014C6F0001D1
:1052A00038DF390EF66E310EF76E040E0401726FA0
:1052B0000001D5EC23F0030E0401716F00010FEC27
:1052C00023F03E0EF66E310EF76E0A0E0401726F79
:1052D0000001D5EC23F055C04BF4080E04014C6FCF
:1052E000000117DF54C04BF4080E04014C6F00019D
:1052F00010DF53C04BF4080E04014C6F000109DFAE
:1053000052C04BF4080E04014C6F000102DF51C083
:105310004BF4080E04014C6F0001FBDE50C04BF44F
:10532000080E04014C6F0001F4DE600EF66E310EC3
:10533000F76E060E0401726F0001D5EC23F0040E27
:105340000401716F00010FEC23F0680EF66E310E50
:10535000F76E090E0401726F0001D5EC23F0090EFF
:10536000E96E59C073F458C072F4E9EC23F02C0EC6
:1053700004017B6F00012AEC23F0090EE96E57C08F
:1053800073F456C072F4E9EC23F07C0EF66E310E25
:10539000F76E040E0401726F0001D5EC23F0050EC8
:1053A0000401716F00010FEC23F0820EF66E310ED6
:1053B000F76E47EC24F0060E0401716F00010FEC4C
:1053C00023F09A0EF66E310EF76E47EC24F0070EBE
:1053D0000401716F00010FEC23F0B20EF66E310E76
:1053E000F76E47EC24F00101000110EF61F04DC4AD
:1053F00051F44CC450F451C403F0040150C4E9FF0B
:1054000051C4EAFFEF5230E04FC453F44EC452F49B
:1054100053C403F052C4E9FF53C4EAFFEF520AE158
:105420004C51505D006E4D515159036E00C001F05A
:1054300023D010D050C4E9FF51C4EAFFEFCF54F499
:1054400053C403F052C4E9FF53C4EAFFEF50545D64
:1054500001E104D0522BD8B4532BDAD7502BD8B457
:10546000512B0001C8D704014C51505D006E4D51C5
:105470005159036E00C001F0000194EF2AF04DC4B1
:1054800051F44CC450F451C403F0040150C4E9FF7A
:1054900051C4EAFFEF522AE04FC453F44EC452F411
:1054A00053C403F052C4E9FF53C4EAFFEF5218E0BB
:1054B00050C4E9FF51C4EAFFEFCF54F453C403F0E2
:1054C00052C4E9FF53C4EAFFEF50545D05E150C4F4
:1054D00001F051C402F00DD0522BD8B4532BE0D7B9
:1054E000502BD8B4512B0001CED70401000E016E11
:1054F000026E0001B5EF2AF004014451451104E0A9
:1055000045C403F0445103D01AC003F01950486F4A
:1055100003C049F449C44DF448C44CF447C44FF4A3
:1055200046C44EF4000163D7015004014827000E21
:10553000492349C403F048C4E9FF49C4EAFFEF52D4
:105540000AE119C0E9FF1AC0EAFF200EEF6E000E53
:10555000016E026E27D049C44DF448C44CF447C4D0
:105560004FF446C44EF400018AD702C04BF401C088
:105570004AF44BC403F004014AC4E9FF4BC4EAFFF8
:10558000EF5208E04AC4E9FF4BC4EAFFEF6A4A2B36
:10559000D8B44B2B4BC41AF04AC419F048C401F0DC
:1055A00049C402F0000123EF2CF0040144C4E9FFD8
:1055B00045C4EAFFEFCF48F447C403F046C4E9FF0F
:1055C00047C4EAFFEF50485D15E145C403F044C409
:1055D000E9FF03C0EAFFEF5203E1000E016E1FD0A6
:1055E00045C403F04451442BD8B4452B462BD8B4C2
:1055F000472BDCD745C403F044C4E9FF45C4EAFFA8
:10560000EFCF48F447C403F046C4E9FF47C4EAFFBC
:10561000EF50485D02E2FF0E01D0010E016E000165
:1056200047EF2CF00900F5520DE0F6CF44F4F7CF28
:1056300045F4F5509EA8FED7AD6E44C4F6FF45C4B0
:10564000F7FFF0D74EEF2CF00900F6CF45F4F7CF77
:1056500046F4F5509EA8FED7AD6E45C4F6FF46C48D
:10566000F7FF0401442F01D002D00001EDD7000163
:105670001200EACF4CF4E9CF4BF4040145AF08D057
:105680004B8F4BA94B2B441F451F442BD8B4452BA4
:105690004539F009476F4727E20F486F320F4A6FCD
:1056A00045510F0B482748274A27E90F496F4927DB
:1056B000492744390F0B49274A2749374A374A1F98
:1056C0004A3744510F0B4A274737070E466F0A0ED9
:1056D00049074A27FDE348074927FDE347074827CD
:1056E000FDE346074727FDE3040EEA6E460EE96E2A
:1056F000070E4B154B9DE9064B1507E14BB9E92AFF
:105700004BB903D0200E006E1CD0E9264A0EE95C8E
:10571000D8B44B8DEF50006E08E14BBD06D04BB9AD
:1057200014D04BB702D0200E0BD04BAF06D02D0EAD
:10573000006EED504B9D4B9F04D04B874B99300E24
:10574000002600509EA8FED7AD6EEE504BADDED7C2
:1057500000015FEF2CF0200E040145A9300E466FCA
:1057600044C400F044AF08D0001E002A00C044F436
:105770002D0E466F458F4581015044C44DF4640E93
:105780004E6F0001B0DC00C044F4300E012404016F
:10579000476F44C44DF40A0E4E6F0001A4DC300E76
:1057A00000240401496F300E0124486F46C400F004
:1057B000300E475D04E0458345BF458512D046C4A1
:1057C00047F4200E466F300E485D04E0458145BF2A
:1057D000458307D0D8A4458104E147C448F4200E8E
:1057E000476F45B505D045B307D045B109D00CD0BA
:1057F00046519EA8FED7AD6E47519EA8FED7AD6E0E
:1058000048519EA8FED7AD6E49519EA8FED7AD6EF9
:10581000000178EF2CF00401416B010E0001665D80
:10582000036A670FE96E000E0320EA6EEF500D0861
:10583000D8A486D00401456B670E446F476B640E95
:10584000466F000159D602C043F401C042F40D0E68
:105850009EA8FED7AD6E0A0E9EA8FED7AD6E010EB5
:10586000EA6E070EE96E000E60EC13F00A00090004
:10587000F550EE6E0009FBE143C445F442C444F424
:10588000010E0401476F070E466F00018ED60152CC
:1058900037E1260EF66E3B0EF76EC4D6440EF66E5A
:1058A0003B0EF76E0D0E0401446F0001CDDE0A0EB3
:1058B000E96E0401456B440E446F0001DAD6560EC2
:1058C000F66E3B0EF76E040E0401446F0001BCDE61
:1058D0005C0EF66E3B0EF76E040E0401446F000181
:1058E000B3DE49C044F4180E0401456F000133D7FC
:1058F0000D0E9EA8FED7AD6E0A0E9EA8FED7AD6E09
:105900000401416B41514F080AE3036A4151670F9B
:10591000E96E000E0320EA6EEF6A412BF3D7000117
:10592000666B0401416B415109080AE3036A415166
:10593000070FE96E010E0320EA6EEF6A412BF3D7E1
:10594000000124EF61F00401416B426B436B446B37
:105950005A505B5C04E05A5202E1010E416F5AC09A
:105960005BF05C505D5C04E05C5202E1010E426F52
:105970005CC05DF05E505F5C04E05E5202E1010ECF
:10598000436F5EC05FF000016051615D06E06053EF
:1059900004E1010E0401446F000160C061F00401E4
:1059A000415301E0416B425309E0426B0101126B2C
:1059B0000A0E116F146B030E136F0401000126EF22
:1059C00061F0040172BF12D00F0E006E7139001623
:1059D0000A0E005C03E2300E002602D0725100264F
:1059E00000C07BF400012AEC23F004010F0E7117B4
:1059F0000A0E715D02E2300E02D0729F7251712761
:105A000071C47BF400012AEC23F0120004014D6BF9
:105A10004C6B4D534CE14C51070849E34C51B009D4
:105A2000506F4DC451F4736F0001CDEC1FF0100E98
:105A30000401736F0001CDEC1FF00401736B0001D2
:105A4000CDEC1FF004014F6B4E6B4F532CE14E51C8
:105A50007F0829E34C35506F4D35516F5037513722
:105A600050375137503751375037513750375137FA
:105A700050375137800E50174E5150274F515123F8
:105A800051C403F0505151C4F7FF000159EC11F01B
:105A9000E8CF4BF44BC47FF420EC23F004014E2BF1
:105AA000D8B44F2BD2D74C2BD8B44D2BB2D7000142
:105AB000BFEF2FF0200E0401416F426F436F446F20
:105AC000456F466F476F486F496F4A6B010111512F
:105AD0002C08D8A44DD2122D4BD20401716B0001B9
