:04000000CAEF59F0FA
:08000800046ED8CF05F0E0CF33
:1000100006F00001E9CF0CF0EACF07F0E1CF08F0DD
:10002000E2CF09F0D9CF0AF0DACF0BF0F3CF12F01C
:10003000F4CF13F0FACF14F0F5CF15F0F6CF16F099
:10004000F7CF17F000C00EF001C00FF002C010F0A3
:1000500003C011F0F2AA30EF00F0F2B478EF1CF018
:100060009DAA36EF00F09EBA50EF1CF00EC000F0D3
:100070000FC001F010C002F011C003F00CC0E9FF86
:1000800007C0EAFF078E08C0E1FF09C0E2FF0AC00F
:10009000D9FF0BC0DAFF12C0F3FF13C0F4FF14C086
:1000A000FAFF15C0F5FF16C0F6FF17C0F7FF0450A2
:1000B00006C0E0FF05C0D8FF1000C80FF66E000EA6
:1000C000F7220900F55012000000000000000000B7
:1000D0000000000000000000000000000000000020
:1000E0000000000000000000000000000000000010
:1000F0000000000000000000000000000000000000
:1001000000000000000000000000000000000000EF
:1001100000000000000000000000000000000000DF
:1001200000000000000000000000000000000000CF
:1001300000000000000000000000000000000000BF
:1001400000000000000000000000000000000000AF
:10015000000000000000000000000000000000009F
:10016000000000000000000000000000000000008F
:10017000000000000000000000000000000000007F
:10018000000000000000000000000000000000006F
:10019000000000000000000000000000000000005F
:1001A000000000000000000000000000000000004F
:1001B000000000000000000000000000000000003F
:1001C000000000000000000055504C47423E39340A
:1001D000302B26221D18140F0A0601000000000013
:1001E000000000000000000000000000000000000F
:1001F0000005090E13171C21252A2F33383D4146CF
:100200004B4F54545454545555504C47423E393436
:10021000302B26221D18140F0A06010000000000D2
:1002200000000000000000000000000000000000CE
:100230000005090E13171C21252A2F33383D41468E
:100240004B4F54545454545555504C47423E3934F6
:10025000302B26221D18140F0A0601000000000092
:10026000000000000000000000000000000000008E
:100270000005090E13171C21252A2F33383D41464E
:100280004B4F54545454545555504C47423E3934B6
:10029000302B26221D18140F0A0601000000000052
:1002A000000000000000000000000000000000004E
:1002B0000005090E13171C21252A2F33383D41460E
:1002C0004B4F545454545454FFF9F3EDE7E1DBD54C
:1002D000CFC9C3BDB7B1ABA59F99938D87817B75FE
:1002E0006F69635D57514B453F39332D27211B15EE
:1002F0000F090300000000000000000000000000E3
:1003000000000000000000000000000000000000ED
:1003100000000000000000000000000000000000DD
:1003200000000000000000000000000000000000CD
:1003300000000000000000000000000000000000BD
:1003400000000000000000000000000000000000AD
:10035000000000000000000000000000000000009D
:10036000000000000000000000000000000000008D
:10037000000000000000000000000000000000007D
:10038000000000000000000000000000000000006D
:100390000000000000000000000000000003090F42
:1003A000151B21272D33393F454B51575D63696F2D
:1003B000757B81878D93999FA5ABB1B7BDC3C9CF1D
:1003C000D5DBE1E7EDF3F9FFFFFCF9F6F3F0EDEA39
:1003D000E7E4E1DEDBD8D5D2CFCCC9C6C3C0BDBA15
:1003E000B7B4B1AEABA8A5A29F9C999693908D8A05
:1003F0008784817E7B7875726F6C696663605D5AF5
:100400005754514E4B4845423F3C393633302D2AE4
:100410002724211E1B1815120F0C090603000000CB
:1004200000000000000000000000000000000000CC
:1004300000000000000000000000000000000000BC
:1004400000000000000000000000000000000000AC
:10045000000000000000000000000000000000009C
:10046000000000000000000000000000000000008C
:100470000000000306090C0F1215181B1E2124276B
:100480002A2D303336393C3F4245484B4E51545764
:100490005A5D606366696C6F7275787B7E81848754
:1004A0008A8D909396999C9FA2A5A8ABAEB1B4B744
:1004B000BABDC0C3C6C9CCCFD2D5D8DBDEE1E4E734
:1004C000EAEDF0F3F6F9FCFCFFFFFFFFFFFFFFFF93
:1004D000FFFFFFFFFFFFFFFFFFFFFFFFFFFFFFFF2C
:1004E000FFFFFFFFFFFFFFFFFFFFFFFFFFFFFFFF1C
:1004F000FFFFFFFFFFFFFFFFFFFFFFFFFFFFFFFF0C
:10050000FFFFFFFFFFFFFFFFFFFFFFFFFFFFFFFFFB
:10051000FFFFFFFFFFFFFFFFFFFFFFFFFFFFFFFFEB
:10052000FFFFFFFFFFFFFFFFFFFFFFFFFFFFFFFFDB
:10053000FFFFFFFFFFFFFFFFFFFFFFFFFFFFFFFFCB
:10054000FFFFFFFFFFFFFFFFFFFFFFFFFFFFFFFFBB
:10055000FFFFFFFFFFFFFFFFFFFFFFFFFFFFFFFFAB
:10056000FFFFFFFFFFFFFFFFFFFFFFFFFFFFFFFF9B
:10057000FFFFFFFFFFFFFFFFFFFFFFFFFFFFFFFF8B
:10058000FFFFFFFFFFFFFFFFFFFFFFFFFFFFFFFF7B
:10059000FFFFFFFFFFFFFFFFFFFFFFFFFFFFFFFF6B
:1005A000FFFFFFFFFFFFFFFFFFFFFFFFFFFFFFFF5B
:1005B000FFFFFFFFFFFFFFFFFFFFFFFFFFFFFFFF4B
:1005C000FFFFFFFFFFFFFFFF000000000000000033
:1005D000000000000000000000000000000000001B
:1005E000000000000000000000000000000000000B
:1005F00000000000000000000000000000000000FB
:1006000000000000000000000000000000000000EA
:1006100000000000000000000000000000000000DA
:1006200000000000000000000000000000000000CA
:1006300000000000000000000000000000000000BA
:1006400000000000000000000000000000000000AA
:10065000000000000000000000000000000000009A
:10066000000000000000000000000000000000008A
:10067000000000000000000000000000000000007A
:10068000000000000000000000000000000000006A
:10069000000000000000000000000000000000005A
:1006A000000000000000000000000000000000004A
:1006B000000000000000000000000000000000003A
:1006C000000000000000000000000000000000002A
:1006D000000000000000000000000000000000001A
:1006E000000000000000000000000000000000000A
:1006F00000000000000000000000000000000000FA
:1007000000000000000000000000000000000000E9
:1007100000000000000000000000000000000000D9
:1007200000000000000000000000000000000000C9
:1007300000000000000000000000000000000000B9
:1007400000000000000000000000000000000000A9
:100750000000000000000000000000000000000099
:100760000000000000000000000000000000000089
:100770000000000000000000000000000000000079
:100780000000000000000000000000000000000069
:100790000000000000000000000000000000000059
:1007A0000000000000000000000000000000000049
:1007B0000000000000000000000000000000000039
:1007C0000000000000000000FFFFFFFFFFFFFFFF31
:1007D000FFFFFFFFFFFFFFFFFFFFFFFFFFFFFFFF29
:1007E000FFFFFFFFFFFFFFFFFFFFFFFFFFFFFFFF19
:1007F000FFFFFFFFFFFFFFFFFFFFFFFFFFFFFFFF09
:10080000FFFFFFFFFFFFFFFFFFFFFFFFFFFFFFFFF8
:10081000FFFFFFFFFFFFFFFFFFFFFFFFFFFFFFFFE8
:10082000FFFFFFFFFFFFFFFFFFFFFFFFFFFFFFFFD8
:10083000FFFFFFFFFFFFFFFFFFFFFFFFFFFFFFFFC8
:10084000FFFFFFFFFFFFFFFFFFFFFFFFFFFFFFFFB8
:10085000FFFFFFFFFFFFFFFFFFFFFFFFFFFFFFFFA8
:10086000FFFFFFFFFFFFFFFFFFFFFFFFFFFFFFFF98
:10087000FFFFFFFFFFFFFFFFFFFFFFFFFFFFFFFF88
:10088000FFFFFFFFFFFFFFFFFFFFFFFFFFFFFFFF78
:10089000FFFFFFFFFFFFFFFFFFFFFFFFFFFFFFFF68
:1008A000FFFFFFFFFFFFFFFFFFFFFFFFFFFFFFFF58
:1008B000FFFFFFFFFFFFFFFFFFFFFFFFFFFFFFFF48
:1008C000FFFFFFFFFFFFFFFF000810182028303850
:1008D000404850586068707880889098A0A8B0B858
:1008E000C0C8D0D8E0E8F0E8E0D8D0C8C0B8B0A818
:1008F000A0989088807870686058504840383028B8
:100900002018100800081018202830384048505887
:100910006068707880889098A0A8B0B8C0C8D0D817
:10092000E0E8F0E8E0D8D0C8C0B8B0A8A0989088B7
:100930008078706860585048403830282018100877
:1009400000081018202830384048505860687078E7
:1009500080889098A0A8B0B8C0C8D0D8E0E8F0E8E7
:10096000E0D8D0C8C0B8B0A8A09890888078706847
:1009700060585048403830282018100800081018D7
:1009800020283038404850586068707880889098A7
:10099000A0A8B0B8C0C8D0D8E0E8F0E8E0D8D0C887
:1009A000C0B8B0A8A0989088807870686058504807
:1009B00040383028201810080020406080A0C0E097
:1009C000FFDFBF9F7F5F3F1F80008000800080802F
:1009D00000800080008080008000800080FF00FF99
:1009E00000FF00FFFF00FF00FF00FFFF00FF00FF10
:1009F00000FF80008000800080FF00FF00FF00FFFC
:100A00008000800080008080008000800080800066
:100A10008000800080FF00FF00FF00FFFF00FF005C
:100A2000FF00FFFF00FF00FF00FF8000800080004C
:100A300080FF00FF00FF00FF8000800080008080BA
:100A400000800080008080008000800080FF00FF28
:100A500000FF00FFFF00FF00FF00FFFF00FF00FF9F
:100A600000FF80008000800080FF00FF00FF00FF8B
:100A700080008000800080800080008000808000F6
:100A80008000800080FF00FF00FF00FFFF00FF00EC
:100A9000FF00FFFF00FF00FF00FF800080008000DC
:100AA00080FF00FF00FF00FF40004000400040408A
:100AB00000400040004040004000400040FF00FF78
:100AC00000FF00FFFF000000D60FF66E0A0EF722AF
:100AD0000900F550120000000000000000000000B6
:100AE0000000000000000000000000000000000006
:100AF00000000000000000000000000000000000F6
:100B000000000000000000000000000000000000E5
:100B100000000000000000000000000000000000D5
:100B200000000000000000000000000000000000C5
:100B300000000000000000000000000000000000B5
:100B400000000000000000000000000000000000A5
:100B50000000000000000000000000000000000095
:100B60000000000000000000000000000000000085
:100B70000000000000000000000000000000000075
:100B80000000000000000000000000000000000065
:100B90000000000000000000000000000000000055
:100BA0000000000000000000000000000000000045
:100BB0000000000000000000000000000000000035
:100BC0000000000000000000000000000000000025
:100BD0000000000000000005090E13171C21252A43
:100BE0002F33383D41464B4F545555504C47423EAC
:100BF0003934302B26221D18140F0A06010000007C
:100C000000000000000000000000000000000000E4
:100C10000000000000000005090E13171C21252A02
:100C20002F33383D41464B4F545555504C47423E6B
:100C30003934302B26221D18140F0A06010000003B
:100C400000000000000000000000000000000000A4
:100C50000000000000000005090E13171C21252AC2
:100C60002F33383D41464B4F545555504C47423E2B
:100C70003934302B26221D18140F0A0601000000FB
:100C80000000000000000000000000000000000064
:100C90000000000000000005090E13171C21252A82
:100CA0002F33383D41464B4F545555504C47423EEB
:100CB0003934302B26221D18140F0A0601000000BB
:100CC0000000000000000000000000000000000024
:100CD0000000000000000000000000000000000014
:100CE0000000000000000000000000000000000004
:100CF00000000000000000000000000000000000F4
:100D00000003090F151B21272D33393F454B515740
:100D10005D63696F757B81878D93999FA5ABB1B733
:100D2000BDC3C9CFD5DBE1E7EDF3F9FFF9F3EDE79B
:100D3000E1DBD5CFC9C3BDB7B1ABA59F99938D8773
:100D4000817B756F69635D57514B453F39332D2763
:100D5000211B150F09030000000000000000000027
:100D60000000000000000000000000000000000083
:100D70000000000000000000000000000000000073
:100D80000000000000000000000000000000000063
:100D90000000000000000000000000000000000053
:100DA0000000000000000000000000000000000043
:100DB0000000000000000000000000000000000033
:100DC0000000000000000000000000000000000023
:100DD0000000000000000306090C0F1215181B1E6E
:100DE0002124272A2D303336393C3F4245484B4E8B
:100DF0005154575A5D606366696C6F7275787B7E7B
:100E00008184878A8D909396999C9FA2A5A8ABAE6A
:100E1000B1B4B7BABDC0C3C6C9CCCFD2D5D8DBDE5A
:100E2000E1E4E7EAEDF0F3F6F9FCFFFCF9F6F3F0A4
:100E3000EDEAE7E4E1DEDBD8D5D2CFCCC9C6C3C04A
:100E4000BDBAB7B4B1AEABA8A5A29F9C999693903A
:100E50008D8A8784817E7B7875726F6C696663602A
:100E60005D5A5754514E4B4845423F3C393633301A
:100E70002D2A2724211E1B1815120F0C090603000A
:100E80000000000000000000000000000000000062
:100E90000000000000000000000000000000000052
:100EA0000000000000000000000000000000000042
:100EB0000000000000000000000000000000000032
:100EC0000000000000000000000000000000000022
:100ED0000000000000000000000000000000000012
:100EE0000000000000000000000000000000000002
:100EF00000000000000000000000000000000000F2
:100F000000000000000000000000000000000000E1
:100F100000000000000000000000000000000000D1
:100F200000000000000000000000000000000000C1
:100F300000000000000000000000000000000000B1
:100F400000000000000000000000000000000000A1
:100F50000000000000000000000000000000000091
:100F60000000000000000000000000000000000081
:100F70000000000000000000000000000000000071
:100F80000000000000000000000000000000000061
:100F90000000000000000000000000000000000051
:100FA0000000000000000000000000000000000041
:100FB0000000000000000000000000000000000031
:100FC0000000000000000000000000000000000021
:100FD000000000000000FFFFFFFFFFFFFFFFFFFF1B
:100FE000FFFFFFFFFFFFFFFFFFFFFFFFFFFFFFFF11
:100FF000FFFFFFFFFFFFFFFFFFFFFFFFFFFFFFFF01
:10100000FFFFFFFFFFFFFFFFFFFFFFFFFFFFFFFFF0
:10101000FFFFFFFFFFFFFFFFFFFFFFFFFFFFFFFFE0
:10102000FFFFFFFFFFFFFFFFFFFFFFFFFFFFFFFFD0
:10103000FFFFFFFFFFFFFFFFFFFFFFFFFFFFFFFFC0
:10104000FFFFFFFFFFFFFFFFFFFFFFFFFFFFFFFFB0
:10105000FFFFFFFFFFFFFFFFFFFFFFFFFFFFFFFFA0
:10106000FFFFFFFFFFFFFFFFFFFFFFFFFFFFFFFF90
:10107000FFFFFFFFFFFFFFFFFFFFFFFFFFFFFFFF80
:10108000FFFFFFFFFFFFFFFFFFFFFFFFFFFFFFFF70
:10109000FFFFFFFFFFFFFFFFFFFFFFFFFFFFFFFF60
:1010A000FFFFFFFFFFFFFFFFFFFFFFFFFFFFFFFF50
:1010B000FFFFFFFFFFFFFFFFFFFFFFFFFFFFFFFF40
:1010C000FFFFFFFFFFFFFFFFFFFFFFFFFFFFFFFF30
:1010D000FFFFFFFFFFFF0000000000000000000016
:1010E0000000000000000000000000000000000000
:1010F00000000000000000000000000000000000F0
:1011000000000000000000000000000000000000DF
:1011100000000000000000000000000000000000CF
:1011200000000000000000000000000000000000BF
:1011300000000000000000000000000000000000AF
:10114000000000000000000000000000000000009F
:10115000000000000000000000000000000000008F
:10116000000000000000000000000000000000007F
:10117000000000000000000000000000000000006F
:10118000000000000000000000000000000000005F
:10119000000000000000000000000000000000004F
:1011A000000000000000000000000000000000003F
:1011B000000000000000000000000000000000002F
:1011C000000000000000000000000000000000001F
:1011D000000000000000FFFFFFFFFFFFFFFFFFFF19
:1011E000FFFFFFFFFFFFFFFFFFFFFFFFFFFFFFFF0F
:1011F000FFFFFFFFFFFFFFFFFFFFFFFFFFFFFFFFFF
:10120000FFFFFFFFFFFFFFFFFFFFFFFFFFFFFFFFEE
:10121000FFFFFFFFFFFFFFFFFFFFFFFFFFFFFFFFDE
:10122000FFFFFFFFFFFFFFFFFFFFFFFFFFFFFFFFCE
:10123000FFFFFFFFFFFFFFFFFFFFFFFFFFFFFFFFBE
:10124000FFFFFFFFFFFFFFFFFFFFFFFFFFFFFFFFAE
:10125000FFFFFFFFFFFFFFFFFFFFFFFFFFFFFFFF9E
:10126000FFFFFFFFFFFFFFFFFFFFFFFFFFFFFFFF8E
:10127000FFFFFFFFFFFFFFFFFFFFFFFFFFFFFFFF7E
:10128000FFFFFFFFFFFFFFFFFFFFFFFFFFFFFFFF6E
:10129000FFFFFFFFFFFFFFFFFFFFFFFFFFFFFFFF5E
:1012A000FFFFFFFFFFFFFFFFFFFFFFFFFFFFFFFF4E
:1012B000FFFFFFFFFFFFFFFFFFFFFFFFFFFFFFFF3E
:1012C000FFFFFFFFFFFFFFFFFFFFFFFFFFFFFFFF2E
:1012D000FFFFFFFFFFFF00081018202830384048AC
:1012E00050586068707880889098A0A8B0B8C0C83E
:1012F000D0D8E0E8F0E8E0D8D0C8C0B8B0A8A0984E
:10130000908880787068605850484038302820189D
:1013100010080008101820283038404850586068DD
:10132000707880889098A0A8B0B8C0C8D0D8E0E8FD
:10133000F0E8E0D8D0C8C0B8B0A8A098908880786D
:10134000706860585048403830282018100800084D
:1013500010182028303840485058606870788088CD
:101360009098A0A8B0B8C0C8D0D8E0E8F0E8E0D81D
:10137000D0C8C0B8B0A8A09890888078706860582D
:10138000504840383028201810080008101820282D
:101390003038404850586068707880889098A0A88D
:1013A000B0B8C0C8D0D8E0E8F0E8E0D8D0C8C0B83D
:1013B000B0A8A098908880787068605850484038ED
:1013C0003028201810080020406080A0C0E0FFDF17
:1013D000BF9F7F5F3F3F0080800000808000808053
:1013E0000000808000FFFF0000FFFF008080000001
:1013F00080800080800000808000FFFF0000FFFFF1
:1014000000FFFF0000FFFF00FFFF0000FFFF008064
:1014100080000080800080800000808000FFFF004E
:1014200000FFFF008080000080800080800000803E
:101430008000FFFF0000FFFF00FFFF0000FFFF0034
:10144000FFFF0000FFFF00808000008080008080A0
:101450000000808000FFFF0000FFFF008080000090
:1014600080800080800000808000FFFF0000FFFF80
:1014700000FFFF0000FFFF00FFFF0000FFFF0080F4
:1014800080000080800080800000808000FFFF00DE
:1014900000FFFF00808000008080008080000080CE
:1014A0008000FFFF0000FFFF00FFFF0000FFFF00C4
:1014B000FFFF0000FFFF00404000004040004040B0
:1014C0000000404000FFFF0000FFFF004040000020
:1014D000404000FF0000E40FF66E140EF7220900F2
:1014E000F5501200000000000000000000000000A5
:1014F00000000000000000000000000000000000EC
:1015000000000000000000000000000000000000DB
:1015100000000000000000000000000000000000CB
:1015200000000000000000000000000000000000BB
:1015300000000000000000000000000000000000AB
:10154000000000000000000000000000000000009B
:10155000000000000000000000000000000000008B
:10156000000000000000000000000000000000007B
:10157000000000000000000000000000000000006B
:10158000000000000000000000000000000000005B
:10159000000000000000000000000000000000004B
:1015A000000000000000000000000000000000003B
:1015B000000000000000000000000000000000002B
:1015C000000000000000000000000000000000001B
:1015D000000000000000000000000000000000000B
:1015E00000000000000000000000000000000000FB
:1015F00000000000000000000005090E13171C2168
:10160000252A2F33383D41464B4F545555504C47B2
:10161000423E3934302B26221D18140F0A060100D1
:1016200000000000000000000000000000000000BA
:1016300000000000000000000005090E13171C2127
:10164000252A2F33383D41464B4F545555504C4772
:10165000423E3934302B26221D18140F0A06010091
:10166000000000000000000000000000000000007A
:1016700000000000000000000005090E13171C21E7
:10168000252A2F33383D41464B4F545555504C4732
:10169000423E3934302B26221D18140F0A06010051
:1016A000000000000000000000000000000000003A
:1016B00000000000000000000005090E13171C21A7
:1016C000252A2F33383D41464B4F545555504C47F2
:1016D000423E3934302B26221D18140F0A06010011
:1016E00000000000000000000000000000000000FA
:1016F00000000000000000000000000000000000EA
:1017000000000000000000000000000000000000D9
:1017100000000000000000000000000000000000C9
:1017200000000000000000000000000000000000B9
:1017300000000000000000000000000000000000A9
:101740000000000000000000000000000000000099
:101750000000000000000000000000000000000089
:101760000000000003090F151B21272D33393F45C9
:101770004B51575D63696F757B81878D93999FA5E9
:10178000ABB1B7BDC3C9CFD5DBE1E7EDF3F9FFF9E5
:10179000F3EDE7E1DBD5CFC9C3BDB7B1ABA59F99E9
:1017A000938D87817B756F69635D57514B453F39D9
:1017B000332D27211B150F09030000000000000036
:1017C0000000000000000000000000000000000019
:1017D0000000000000000000000000000000000009
:1017E00000000000000000000000000000000000F9
:1017F00000000000000000000000000000000000E9
:1018000000000000000000000000000000000000D8
:1018100000000000000000000000000000000000C8
:1018200000000000000000000000000000000000B8
:1018300000000000000000000306090C0F1215183C
:101840001B1E2124272A2D303336393C3F42454880
:101850004B4E5154575A5D606366696C6F72757870
:101860007B7E8184878A8D909396999C9FA2A5A860
:10187000ABAEB1B4B7BABDC0C3C6C9CCCFD2D5D850
:10188000DBDEE1E4E7EAEDF0F3F6F9FCFFFCF9F664
:10189000F3F0EDEAE7E4E1DEDBD8D5D2CFCCC9C680
:1018A000C3C0BDBAB7B4B1AEABA8A5A29F9C999670
:1018B00093908D8A8784817E7B7875726F6C696660
:1018C00063605D5A5754514E4B4845423F3C393650
:1018D00033302D2A2724211E1B1815120F0C090640
:1018E00003000000000000000000000000000000F5
:1018F00000000000000000000000000000000000E8
:1019000000000000000000000000000000000000D7
:1019100000000000000000000000000000000000C7
:1019200000000000000000000000000000000000B7
:1019300000000000000000000000000000000000A7
:101940000000000000000000000000000000000097
:101950000000000000000000000000000000000087
:101960000000000000000000000000000000000077
:101970000000000000000000000000000000000067
:101980000000000000000000000000000000000057
:101990000000000000000000000000000000000047
:1019A0000000000000000000000000000000000037
:1019B0000000000000000000000000000000000027
:1019C0000000000000000000000000000000000017
:1019D0000000000000000000000000000000000007
:1019E00000000000000000000000000000000000F7
:1019F00000000000000000000000000000000000E7
:101A000000000000000000000000000000000000D6
:101A100000000000000000000000000000000000C6
:101A200000000000000000000000000000000000B6
:101A300000000000000000000000000000000000A6
:101A40000000000000000000000000000000000096
:101A50000000000000000000000000000000000086
:101A60000000000000000000000000000000000076
:101A70000000000000000000000000000000000066
:101A80000000000000000000000000000000000056
:101A90000000000000000000000000000000000046
:101AA0000000000000000000000000000000000036
:101AB0000000000000000000000000000000000026
:101AC0000000000000000000000000000000000016
:101AD0000000000000000000000000000000000006
:101AE00000000000FFFFFFFFFFFFFFFFFFFFFFFF02
:101AF000FFFFFFFFFFFFFFFFFFFFFFFFFFFFFFFFF6
:101B0000FFFFFFFFFFFFFFFFFFFFFFFFFFFFFFFFE5
:101B1000FFFFFFFFFFFFFFFFFFFFFFFFFFFFFFFFD5
:101B2000FFFFFFFFFFFFFFFFFFFFFFFFFFFFFFFFC5
:101B3000FFFFFFFFFFFFFFFFFFFFFFFFFFFFFFFFB5
:101B4000FFFFFFFFFFFFFFFFFFFFFFFFFFFFFFFFA5
:101B5000FFFFFFFFFFFFFFFFFFFFFFFFFFFFFFFF95
:101B6000FFFFFFFFFFFFFFFFFFFFFFFFFFFFFFFF85
:101B7000FFFFFFFFFFFFFFFFFFFFFFFFFFFFFFFF75
:101B8000FFFFFFFFFFFFFFFFFFFFFFFFFFFFFFFF65
:101B9000FFFFFFFFFFFFFFFFFFFFFFFFFFFFFFFF55
:101BA000FFFFFFFFFFFFFFFFFFFFFFFFFFFFFFFF45
:101BB000FFFFFFFFFFFFFFFFFFFFFFFFFFFFFFFF35
:101BC000FFFFFFFFFFFFFFFFFFFFFFFFFFFFFFFF25
:101BD000FFFFFFFFFFFFFFFFFFFFFFFFFFFFFFFF15
:101BE000FFFFFFFFFFFFFFFFFFFFFFFFFFFFFFFF05
:101BF000FFFFFFFFFFFFFFFFFFFFFFFFFFFFFFFFF5
:101C0000FFFFFFFFFFFFFFFFFFFFFFFFFFFFFFFFE4
:101C1000FFFFFFFFFFFFFFFFFFFFFFFFFFFFFFFFD4
:101C2000FFFFFFFFFFFFFFFFFFFFFFFFFFFFFFFFC4
:101C3000FFFFFFFFFFFFFFFFFFFFFFFFFFFFFFFFB4
:101C4000FFFFFFFFFFFFFFFFFFFFFFFFFFFFFFFFA4
:101C5000FFFFFFFFFFFFFFFFFFFFFFFFFFFFFFFF94
:101C6000FFFFFFFFFFFFFFFFFFFFFFFFFFFFFFFF84
:101C7000FFFFFFFFFFFFFFFFFFFFFFFFFFFFFFFF74
:101C8000FFFFFFFFFFFFFFFFFFFFFFFFFFFFFFFF64
:101C9000FFFFFFFFFFFFFFFFFFFFFFFFFFFFFFFF54
:101CA000FFFFFFFFFFFFFFFFFFFFFFFFFFFFFFFF44
:101CB000FFFFFFFFFFFFFFFFFFFFFFFFFFFFFFFF34
:101CC000FFFFFFFFFFFFFFFFFFFFFFFFFFFFFFFF24
:101CD000FFFFFFFFFFFFFFFFFFFFFFFFFFFFFFFF14
:101CE000FFFFFFFF000810182028303840485058E8
:101CF0006068707880889098A0A8B0B8C0C8D0D824
:101D0000E0E8F0E8E0D8D0C8C0B8B0A8A0989088C3
:101D10008078706860585048403830282018100883
:101D200000081018202830384048505860687078F3
:101D300080889098A0A8B0B8C0C8D0D8E0E8F0E8F3
:101D4000E0D8D0C8C0B8B0A8A09890888078706853
:101D500060585048403830282018100800081018E3
:101D600020283038404850586068707880889098B3
:101D7000A0A8B0B8C0C8D0D8E0E8F0E8E0D8D0C893
:101D8000C0B8B0A8A0989088807870686058504813
:101D90004038302820181008000810182028303843
:101DA000404850586068707880889098A0A8B0B873
:101DB000C0C8D0D8E0E8F0E8E0D8D0C8C0B8B0A833
:101DC000A0989088807870686058504840383028D3
:101DD000201810080020406080A0C0E0FFDFBF9FF7
:101DE0007F5F3F3F00000080808080000000FFFF99
:101DF000FFFF0000008080808000000080808080E5
:101E0000000000FFFFFFFF000000808080800000D6
:101E100000FFFFFFFF000000FFFFFFFF000000804A
:101E2000808080000000FFFFFFFF000000808080B6
:101E30008000000080808080000000FFFFFFFF0026
:101E4000000080808080000000FFFFFFFF00000096
:101E5000FFFFFFFF00000080808080000000FFFF88
:101E6000FFFF000000808080800000008080808074
:101E7000000000FFFFFFFF00000080808080000066
:101E800000FFFFFFFF000000FFFFFFFF00000080DA
:101E9000808080000000FFFFFFFF00000080808046
:101EA0008000000080808080000000FFFFFFFF00B6
:101EB000000080808080000000FFFFFFFF00000026
:101EC000FFFFFFFF00000040404040000000FFFF18
:101ED000FFFF000000404040400000004040404004
:101EE0000000FFFFF20FF66E1E0EF7220900F550FC
:101EF0001200000000000000004F00000007000773
:101F000000147F147F14242A7F2A1223130864628A
:101F100036495522500005030000001C22410000F4
:101F200041221C0014083E081408083E080800500E
:101F30003000000808080808006060000020100851
:101F400004023E5149453E00427F400042615149F2
:101F5000462141454B311814127F1027454545391C
:101F60003C4A494930017109050336494949360659
:101F70004949291E00363600000056360000081474
:101F800022410014141414140041221408020151B7
:101F90000906324979413E7E1111117E7F49494936
:101FA000363E414141227F4141221C7F49494941FE
:101FB0007F090909013E4149497A7F0808087F00E5
:101FC000417F41002040413F017F081422417F4072
:101FD0004040407F020C027F7F0408107F3E414159
:101FE000413E7F090909063E4151215E7F091929B9
:101FF00046464949493101017F01013F4040403F88
:102000001F2040201F3F4038403F631408146307DF
:10201000087008076151494543007F4141000204AF
:102020000810200041417F000402010204404040AA
:102030004040000102040020545454787F48444436
:10204000383844444420384444487F385454541861
:10205000087E0901020C5252523E7F0804047800A7
:10206000447D40002040443D007F10284400004152
:102070007F40007C041804787C08040478384444C9
:1020800044387C14141408081414187C7C080404C4
:10209000084854545420043F4440203C4040207C95
:1020A0001C2040201C3C4030403C44281028440C5C
:1020B0005050503C4464544C4400083641000000E9
:1020C0007F0000004136080008082A1C08081C2A66
:1020D00008080402FF02042040FF40202C32023294
:1020E0002C443C047C44635549414114147C141233
:1020F000443C1414747C141C147C10105410107F75
:102100007F7F7F7F05057D0505728D8A8810444499
:102110005F444400000000000000000000000000D8
:1021200000000000000000000000000000000000AF
:10213000000000000000000000000000000000009F
:10214000000000000000000000000000000000008F
:10215000000000000000000000000000000000007F
:10216000000000000000000000000000000000006F
:1021700000000000000000705070000000000F011F
:1021800001404078000010204000000018180000B6
:102190000A0A4A2A1E042434140C20107804001859
:1021A000084C483848487848484828187C08087C33
:1021B00008281840484878405454547C0018005867
:1021C0004038080808080801413D090720107C0232
:1021D000010E0243221E42427E424222120A7F0226
:1021E000423F02423E0A0A7F0A0A084642221E0471
:1021F00003423E04424242427E024F221F024A4AAA
:1022000040201C4222122A46023F424A46064840CB
:10221000201E08464A321E0A4A3E09080E004E2079
:102220001E04453D0504007F08100044241F0404DB
:102230004042424240422A122A0622127B162200C3
:1022400040201F0078000204783F44444444024286
:1022500042221E040204083032027F02320212229D
:10226000520E002A2A2A40382422207040281028A2
:10227000060A3E4A4A4A047F04140C4042427E4009
:102280004A4A4A4A7E040545251C0F40201F007C0F
:10229000007E80307E402010087E4242427E0E0248
:1022A00042221E4242402018020401020007050794
:1022B0000000C00FF66E220EF7220900F550120042
:1022C000008C02222222DC0020FF200000000000FF
:1022D000000000000000000000000020702000004E
:1022E00000000000000000000000000000000000EE
:1022F000000000000020702000000000000000002E
:102300000000000000000000000083C3E3331F0F43
:10231000070000FFFFFF333333330080FCFFFFC7AC
:10232000FFFFFC8000030303FFFFFF03030300FF25
:10233000FFFF333333330000FCFEFF0303C7C684C3
:10234000000102020202010020FF20000000000044
:10235000000000000000000000000000000000007D
:10236000000000000000000000000000000000006D
:10237000000000000000000000000000000000005D
:10238000000000000000000000000303030303033B
:102390000300C0630303030303030083434340803C
:1023A00000C3434340404000639393608040202338
:1023B000234383030303000000010303030301001D
:1023C0000018048242221C0020FF200000000000B0
:1023D000000000000000000000000020702000004D
:1023E00000000000000000000000000000000000ED
:1023F000000000000020702000000000000000002D
:10240000000000000000000000000000000080E06C
:10241000782F010000000000000043605048444352
:102420000027424242241800000000001F204040C4
:102430004020190000000000000000000000000023
:10244000000203020202020020FF20000000000040
:10245000000000000000000000000000000000007C
:10246000000000000000000000000000000000006C
:10247000000000000000000000000000000000005C
:102480000000000000000000000080E0380E0300A3
:1024900000000000000000000000300888888870FC
:1024A0000000806018F800007088F040B00800005C
:1024B000000000000000000000000000000000001C
:1024C00000000404FE00000020FF200000000000C7
:1024D000000080C040203010080808247422020246
:1024E00002020404040C0818102040C08000000000
:1024F000000000000020702000000000000000002C
:1025000000000000008040201806030000000020AA
:1025100070200000000000000000060808080807FE
:1025200000030202020F020008060107080700006C
:10253000000000000000000000000000000000009B
:10254000000000000300000020FF20C060301806DB
:102550000201010000000000000000000000000077
:102560000000000000000000000000000001020266
:102570000408081010202040404040202020101067
:10258000080C040201000000000000000000000030
:1025900000000000000000000000000202FF000038
:1025A000000C824121110E007C820101827C00F826
:1025B000100808F0100808F000C0704E414E70C0BE
:1025C00000F804020204F800203F202020202020F0
:1025D000202020202020202020A02020702020A0AB
:1025E000A02020202020202020202020202020206B
:1025F0002020A0A0A020702020A0A020202020200B
:102600002020202020202020202020A0A0A0A020CA
:10261000702020A0A02020000000C02090919020D9
:102620000011111111D13100E010111110E00081E1
:102630000000000180000081808100000000000196
:102640000000010202010000000000000000000084
:10265000000000000000000101FF0000003E41807A
:1026600080413E000000000000000000000000006B
:1026700086C1A0908887003E418080413E000000D6
:102680000000000000000000000063808888887758
:10269000003E418080413E00000007091010100FED
:1026A00000000018070000000E111111110E000F9C
:1026B000101010081F000912141409000000000077
:1026C000F76AD00FF66E260EF7220900F5501200B9
:1026D0003F0D00004D4F44453A5561727420202053
:1026E00020202020202530346C75256300002D2DFE
:1026F0002D2D2D2D2D2D2D2D2D2D2D2D2D2D2D2D0A
:102700002D2D2D2D000075617274312076616C7550
:10271000653D253033752020202020202D004D4F91
:1027200044453A536572766F284F55543A413729DC
:102730002530336C752563002D2D2D2D2D2D2D2D40
:102740002D2D2D2D2D2D2D2D2D2D2D2D2D2D000013
:1027500025303163416E676C65203D20253033752F
:10276000202530346C75757320202D0025303163A1
:10277000546172676574416E676C65203D20253039
:1027800033752020202D000025303163537465708F
:10279000416E676C65203D20253033752020202058
:1027A000202D0000253031635475726E203D2000CD
:1027B0004F4646202020202020202020202D0000D1
:1027C00025303163205B4F726967696E5D2054610B
:1027D00072676574202020202D0025303163202071
:1027E0004F726967696E205B5461726765745D2022
:1027F00020202D004F4E202020202020202020208F
:10280000202D000025303163205B53746F705D20F4
:102810005374617274202020202020202D00253048
:102820003163202053746F70205B53746172745D48
:102830002020202020202D003C456E7465723E2013
:10284000746F206E6578742E2020202020202D00AB
:102850004D4F44453A54656D702652482020202043
:10286000202530346C75256300002D2D2D2D2D2D48
:102870002D2D2D2D2D2D2D2D2D2D2D2D2D2D2D2D88
:10288000000020424D453238302020202020414D8C
:10289000323332302020202D000020414D3233329F
:1028A0003220202020202020202020202020202D09
:1028B0000000202020202020202020202020202058
:1028C000202020202020202D00002020202020203B
:1028D0002020202020202020202020202020202DEB
:1028E0000000202020536F7272792E20202020209B
:1028F000202020202020202D0000202020696E2074
:102900007072657061726174696F6E2E2020202D67
:1029100000004D4F44453A495220202020202020DD
:102920002020202530346C75256300002D2D2D2DA1
:102930002D2D2D2D2D2D2D2D2D2D2D2D2D2D2D2DC7
:102940002D2D0000202020202020202020202020AD
:102950002020202020202020202D000020202020AA
:102960002020202020202020202020202020202067
:10297000202D00002020202020202020202020208A
:102980002020202020202020202D0000202020207A
:102990002020202020202020202020202020202037
:1029A000202D0000202020536F7272792E202020CD
:1029B0002020202020202020202D00002020206901
:1029C0006E207072657061726174696F6E2E202066
:1029D000202D00004D4F44453A52464944202020C6
:1029E00020202020202530346C75256300002D2DFB
:1029F0002D2D2D2D2D2D2D2D2D2D2D2D2D2D2D2D07
:102A00002D2D2D2D000020202020202020202020D2
:102A100020202020202020202020202D00002020E9
:102A200020202020202020202020202020202020A6
:102A30002020202D000020202020202020202020C9
:102A400020202020202020202020202D00002020B9
:102A50002020202020202020202020202020202076
:102A60002020202D0000202020536F7272792E200C
:102A700020202020202020202020202D0000202089
:102A800020696E207072657061726174696F6E2E5C
:102A90002020202D00004D4F44453A4D503320203A
:102AA000202020202020202530346C752563000054
:102AB0002D2D2D2D2D2D2D2D2D2D2D2D2D2D2D2D46
:102AC0002D2D2D2D2D2D0000204B54343033412041
:102AD000202020202020202020202020202D000029
:102AE00020202020202020202020202020202020E6
:102AF00020202020202D0000202020202020202009
:102B0000202020202020202020202020202D0000F8
:102B100020202020202020202020202020202020B5
:102B200020202020202D0000202020536F72727959
:102B30002E2020202020202020202020202D0000BA
:102B4000202020696E207072657061726174696FF7
:102B50006E2E2020202D00004D4F44453A4D6F74BD
:102B6000696F6E20202020202530346C752563008D
:102B70002D2D2D2D2D2D2D2D2D2D2D2D2D2D2D2D85
:102B80002D2D2D2D2D2D000020424D583035352076
:102B9000202020202020202020202020202D000068
:102BA0002020202020202020202020202020202025
:102BB00020202020202D0000202020202020202048
:102BC000202020202020202020202020202D000038
:102BD00020202020202020202020202020202020F5
:102BE00020202020202D0000202020536F72727999
:102BF0002E2020202020202020202020202D0000FA
:102C0000202020696E207072657061726174696F36
:102C10006E2E2020202D00004D4F44453A4C434459
:102C2000204572726F722020202530346C75256328
:102C300000002D2D2D2D2D2D2D2D2D2D2D2D2D2D1E
:102C40002D2D2D2D2D2D2D2D000020637572736FD0
:102C5000725F696E6465783D2530336C7520202085
:102C6000202D000020202020202020202020202097
:102C70002020202020202020202D00002020202087
:102C80002020202020202020202020202020202044
:102C9000202D000020202020202020202020202067
:102CA0002020202020202020202D00002020205324
:102CB0006F7272792E2020202020202020202020BA
:102CC000202D0000202020696E20707265706172D6
:102CD0006174696F6E2E2020202D00004D4F4445F9
:102CE0003A4F70656E696E672020202020202530C5
:102CF000336C7525303163002D2D2D2D2D2D2D2D6F
:102D00002D2D2D2D2D2D2D2D2D2D2D2D2D2D00004D
:102D1000546869732073686F77206E6578742074C7
:102D2000696D653F202D00002020202020202020DC
:102D300020202020253031635965732025303163F0
:102D40004E6F202D00002020202020202020202039
:102D500020202020202020202020202D000020487E
:102D60006F7720746F2075736520627574746F6E51
:102D70002E20202D0000456E7465722043616E6325
:102D8000656C20557020446F776E202D0000253033
:102D90003163202020202025303163202020202076
:102DA0002025303163202020202530316320202D44
:102DB00000004D4F44453A4D6F646553656C736335
:102DC000742020202530336C7525303163002D2D83
:102DD0002D2D2D2D2D2D2D2D2D2D2D2D2D2D2D2D23
:102DE0002D2D2D2D00002530316348617264496E10
:102DF000666F20253031635254432020202020204C
:102E0000202D000025303163494F20202020202034
:102E10002025303163536572766F20202020202DCD
:102E200000002530316355415254202020202025B8
:102E3000303163496C6C756D694C4544202D000040
:102E40002530316347726170686963202025303115
:102E50006354656D702652482020202D00003C43AD
:102E6000414E53454C3E4261636B20746F202020DD
:102E70002020202D00002020202074686973206D00
:102E80006F64652073656C6563742E2D00004D4F73
:102E900044453A4D6F646553656C7363742020201C
:102EA0002530336C7525303163002D2D2D2D2D2DC2
:102EB0002D2D2D2D2D2D2D2D2D2D2D2D2D2D2D2D42
:102EC000000025303163495220202020202020207E
:102ED000202020202020202020202D00253031639C
:102EE000524649442020202020202020202020203D
:102EF000202020202D00253031634D50332020200C
:102F000020202020202020202020202020202D00D4
:102F1000253031634D6F74696F6E20202020202092
:102F200020202020202020202D003C43414E5345CE
:102F30004C3E4261636B20746F2020202020202DA6
:102F400000002020202074686973206D6F64652064
:102F500073656C6563742E2D00004D4F44453A48EF
:102F600061726477617265496E666F202530336CDB
:102F7000752563002D2D2D2D2D2D2D2D2D2D2D2D38
:102F80002D2D2D2D2D2D2D2D2D2D00004350553D5A
:102F90004D6963726F6368697020202020202020B3
:102FA000202D00002020202050494331384634365F
:102FB0004B32322020202020202D00004C43443D65
:102FC000544F50574159204C4D36303239534357A6
:102FD000202D0000566F6C746167653A332E3356AE
:102FE0002020202020202020202D0000446F743A33
:102FF00031323878363420546578743A3231783842
:10300000202D0000202020202020202020202020F3
:10301000202020253031634E455854202D004D4F3F
:1030200044453A4861726477617265496E666F2003
:103030002530336C752563002D2D2D2D2D2D2D2D37
:103040002D2D2D2D2D2D2D2D2D2D2D2D2D2D00000A
:1030500050726F64756365723D5A45415445432013
:1030600020202020202D000054656D706C61746557
:1030700020736F667477617265202020202D000018
:1030800020202020205665723D25732D0000202031
:1030900020202020202025303163476F746F204F7F
:1030A00070656E696E672D00506C65617365207385
:1030B0006F6674776172652020202020202D00002B
:1030C00020202020202020757365206974206672DE
:1030D00065656C79212D00004D4F44453A494F20DC
:1030E0002020202020202020202530346C752563CE
:1030F00000002D2D2D2D2D2D2D2D2D2D2D2D2D2D5A
:103100002D2D2D2D2D2D2D2D000049A54F20726127
:10311000372D303D253031752530317525303175ED
:10312000253031752C2530317525303175253031FC
:1031300075253031752020202D004F5554207262A6
:10314000352D303D253031752530317525303175BF
:1031500025303175253031752530317520202020FE
:10316000202D0000414E207265312D303D25303438
:103170006C752C2530346C752020202D000020200B
:10318000202020202020202020202020202020203F
:103190002020202D00002020202020202020202062
:1031A00020202020202020202020202D0000202052
:1031B000202020202020202020202020202020200F
:1031C0002020202D00004D4F44453A496C6C756D10
:1031D000694C4544202020202530336C7525630040
:1031E0002D2D2D2D2D2D2D2D2D2D2D2D2D2D2D2D0F
:1031F0002D2D2D2D2D2D00002530316357533238C4
:103200003132622C32383131284F55543A41362907
:103210002D002020202020202020202020202020C1
:10322000202020202020202D0000202020202020D1
:103230002020202020202020202020202020202D81
:1032400000002020202020202020202020202020BE
:10325000202020202020202D0000202020202020A1
:103260002020202020202020202020202020202D51
:10327000000020202020202020202020202020208E
:10328000202020202020202D00004D4F44453A577B
:103290005332383132622C32383131202530336CA0
:1032A000752563002D2D2D2D2D2D2D2D2D2D2D2D05
:1032B0002D2D2D2D2D2D2D2D2D2D0000206C6564F7
:1032C0005F76616C75653D2530336C75202020205C
:1032D0002020202D000025303163636F6C6F725FFA
:1032E0007365743D25303275202020202020202059
:1032F0002D00253031636D6F64655F7365743D2506
:103300003032752020202020202020202D00253044
:10331000316373706565643D25303275202020204F
:1033200020202020202020202D00253031637369AB
:10333000676E616C747970653D2530327520202090
:10334000202020202D002530316374696D696E675F
:103350003D253032752020202020202020202020D4
:103360002D004D4F44453A575332383132622C329A
:10337000383131202530336C752563002D2D2D2DEE
:103380002D2D2D2D2D2D2D2D2D2D2D2D2D2D2D2D6D
:103390002D2D0000253031636272696768746E6597
:1033A00073733D253033752020202020202D000010
:1033B000202020202020202020202020202020200D
:1033C00020202020202D0000202020202020202030
:1033D000202020202020202020202020202D000020
:1033E00020202020202020202020202020202020DD
:1033F00020202020202D0000202020202020202000
:10340000202020202020202020202020202D0000EF
:1034100020202020202020202020202020202020AC
:1034200020202020202D00004D4F44453A52544387
:10343000285258383930302920202530336C7525F2
:1034400063004164643A572F523D307836342F3050
:10345000783635202020202D0000444154453A3252
:1034600030253032782F253032782F2530327820B1
:10347000000054494D453A253032783A25303278AB
:103480003A2530327820202020202020202D0000D6
:10349000202020202020202020202020202020202C
:1034A00020202020202D00003C456E7465723E20B7
:1034B000746F2054696D65456469742E202D000079
:1034C000444154453A202020202F253032782F25A2
:1034D000303278200000444154453A3230253032B1
:1034E000782F253032782F2530327820000054494B
:1034F0004D453A253032783A253032783A25303207
:103500007820202020202020202D00002020202096
:1035100020202020202020202020202020202020AB
:10352000202D00003C456E7465723E20746F204E65
:103530006578742E20202020202D00004441544521
:103540003A3230253032782F20202F253032782023
:103550000000444154453A3230253032782F25302E
:1035600032782F2530327820000054494D453A25D5
:103570003032783A253032783A253032782020209F
:1035800020202020202D000020202020202020206E
:10359000202020202020202020202020202D00005E
:1035A0003C456E7465723E20746F204E6578742EB3
:1035B00020202020202D0000444154453A3230255F
:1035C0003032782F253032782F20202000004441DF
:1035D00054453A3230253032782F253032782F2535
:1035E00030327820000054494D453A253032783A3F
:1035F000253032783A2530327820202020202020B3
:10360000202D0000202020202020202020202020ED
:103610002020202020202020202D00003C456E74FA
:1036200065723E20746F204E6578742E2020202015
:10363000202D0000444154453A3230253032782F55
:10364000253032782F2530327820000020202020AD
:10365000202D000054494D453A253032783A253026
:1036600032783A2530327820202020202020202D4A
:10367000000020202020202020202020202020208A
:10368000202020202020202D00003C456E746572F3
:103690003E20746F204E6578742E20202020202D2F
:1036A0000000444154453A3230253032782F2530DD
:1036B00032782F2530327820000054494D453A2089
:1036C000203A253032783A253032782020202020C8
:1036D0002020202D000054494D453A253032783ABB
:1036E000253032783A2530327820202020202020C2
:1036F000202D0000202020202020202020202020FD
:103700002020202020202020202D00003C456E7409
:1037100065723E20746F204E6578742E2020202024
:10372000202D0000444154453A3230253032782F64
:10373000253032782F2530327820000054494D450D
:103740003A253032783A20203A253032782020202D
:1037500020202020202D000054494D453A253032AC
:10376000783A253032783A253032782020202020CF
:103770002020202D0000202020202020202020207C
:1037800020202020202020202020202D00003C452B
:103790006E7465723E20746F204E6578742E202002
:1037A0002020202D0000444154453A32302530324B
:1037B000782F253032782F25303278200000544978
:1037C0004D453A253032783A253032783A2020205B
:1037D000202020202020202D000054494D453A254E
:1037E0003032783A253032783A253032782020202D
:1037F00020202020202D00002020202020202020FC
:10380000202020202020202020202020202D0000EB
:103810003C456E7465723E20746F204E6578742E40
:1038200020202020202D0000536176653F2020209D
:10383000202020202020202020202020202D0000BB
:103840003C456E7465723E206F72203C43616E632E
:10385000656C3E20202D00002020202020202020EC
:10386000202020202020202020202020202D00008B
:103870002020202020202020202020202020202048
:1038800020202020202D00009EAAFED7ABCF1FF0C5
:10389000AECF01F01FA202D0AB98AB885EEF1CF058
:1038A0009EAA23D0036A6651670FE96E000E0320BB
:1038B000EA6EEACF82F4E9CF81F4E6D782C4EAFF68
:1038C00081C4E9FF01C0EFFF036A6651670FE96E2B
:1038D000000E0320EA6EEFCF7FF404017F519EA813
:1038E000FED7AD6E0001662BDBD79E9A36EF00F057
:1038F00020C1D7FF1FC1D6FF2E5202E0000E01D01B
:10390000010E2E6E010E2F6E0101156F406E416E7D
:103910003E2A3E2C01D0422A435213E1C282C2B257
:10392000FED70401D890C334566EC434576E010ECE
:10393000436E180E016EC250830B0110C26E13D07D
:103940000101432C11D0C282C2B2FED70401D8902B
:10395000C334586EC434596E436A140E016EC2509B
:10396000830B0110C26E0101375203E13650090882
:1039700010E2376A366A305202E0000E01D0010EC2
:10398000306E010E316E2151030802E1216B01D02E
:10399000212B362AD8B4372A395203E1385031085E
:1039A0000AE2396A386A325202E0000E01D0010E92
:1039B000326E010E336E382AD8B4392A3B5203E1F5
:1039C0003A5063080BE23B6A3A6A345202E0000E56
:1039D00001D0010E346E010E356E3F6E3A2AD8B416
:1039E0003B2A3C2AD8B43D2AF294000136EF00F07D
:1039F0005A542D2A2A2A2A2D534F4654205665728E
:103A00002E302E39302055415254310D0A00616E4E
:103A1000616C6F675F76616C75653D2530346C64F1
:103A20006D560D0A00007261313D25640D0A0000DB
:103A300004017A517C03F3CF01F0F4CF00F07D0351
:103A4000F35000267B517C03F3500020026E0001EE
:103A500012008E0E006E4CC401F04BC402F0036ADB
:103A6000015209E102C001F0026A080E005E015233
:103A700002E1006A08D0D89001BE04D002360136B7
:103A80000006F9D7019E120004014B51D8B471D041
:103A9000006E4F51D8B46DD0002604E3810E00268D
:103AA00068E204D07F0E005E64E363E04CC453F42C
:103AB0005051531B4C8F508F4E515203F4CF55F43D
:103AC0004D515103F4CF03F0F3CF54F45203F350AC
:103AD0005527F4505423000E03224E515103F35046
:103AE0005527F4505423000E026A032202224C513F
:103AF0005203F3505427F4500322000E02224C517B
:103B00005103F3500326F4500222000E016A0122F1
:103B10004E515003F3505427F4500322000E02225A
:103B200001224D515003F3500326F4500222000E9F
:103B300001224C515003F3500226F4500122002A76
:103B400001BE05D054370336023601360006000E9A
:103B500054AF0AD0032A02220122015005E102508B
:103B600003E1035001E1002A53BF018E53AF019ED0
:103B700004D0006A016A026A036A000112008E0E14
:103B8000006E04014B51005E4CC402F04DC401F0C4
:103B9000028E005209E0D890025202E1015204E084
:103BA00002320132002EF7D74CAF05D0011E021EA3
:103BB000012AD8B4022A000112000401436B426BAF
:103BC000436B426B4351385DD8A035D104E1375186
:103BD000425DD8B030D1340E4225E96E010E43214A
:103BE000EA6E7B6B41C47AF4010E7D6F7C6B000141
:103BF0001FDF02C047F401C046F404014251012412
:103C0000016E43510220036E015003C0F7FF000113
:103C10005DEC00F00401466F4C6B33C14BF40001C6
:103C200018DF03C04EF402C04DF401C04CF400C0D4
:103C30004BF40A0E0401526FD70E516F230E506FD2
:103C4000780E4F6F000120DF00C047F401C048F438
:103C500002C049F403C04AF404014C6B46C44BF45F
:103C60000001F7DE03C04EF402C04DF401C04CF475
:103C700000C04BF44AC452F449C451F448C450F44F
:103C800047C44FF401DF03C04EF402C04DF401C03D
:103C90004CF400C04BF473DF01C0EFFF350E04019C
:103CA0004225E96E020E4321EA6E7B6B41C47AF431
:103CB000010E7D6F7C6B0001BBDE02C047F401C0CA
:103CC00046F4040142510124016E43510220036E67
:103CD000015003C0F7FF000164EC05F00401466FDA
:103CE0004C6B33C14BF40001B4DE03C04EF402C090
:103CF0004DF401C04CF400C04BF40A0E0401526FA5
:103D0000D70E516F230E506F780E4F6F0001BCDE3F
:103D100000C047F401C048F402C049F403C04AF4AB
:103D200004014C6B46C44BF4000193DE03C04EF417
:103D300002C04DF401C04CF400C04BF44AC452F42C
:103D400049C451F448C450F447C44FF49DDE03C045
:103D50004EF402C04DF401C04CF400C04BF40FDF30
:103D600001C0EFFF360E04014225E96E030E432128
:103D7000EA6E7B6B41C47AF4010E7D6F7C6B0001AF
:103D800057DE02C047F401C046F404014251012449
:103D9000016E43510220036E015003C0F7FF000182
:103DA0006BEC0AF00401466F4C6B33C14BF400011D
:103DB00050DE03C04EF402C04DF401C04CF400C00C
:103DC0004BF40A0E0401526FD70E516F230E506F41
:103DD000780E4F6F000158DE00C047F401C048F470
:103DE00002C049F403C04AF404014C6B46C44BF4CE
:103DF00000012FDE03C04EF402C04DF401C04CF4AC
:103E000000C04BF44AC452F449C451F448C450F4BD
:103E100047C44FF439DE03C04EF402C04DF401C074
:103E20004CF400C04BF4ABDE01C0EFFF0401422BA9
:103E3000D8B4432BC7D600011200040EEA6E460E1A
:103E4000E96EEF500EE0140E016E006A002EFED7F0
:103E5000012EFBD7BF0E006E002EFED700D0EF2E36
:103E6000F2D712008B929492956A6FC48CFF8B905C
:103E700094908B80949012008B8494948B82949273
:103E80008B8094908B8494948B949494050E04016D
:103E9000466F0001D2DF8B8494940F0E006E002ECB
:103EA000FED700D0AF0E04016F6F0001DBDF400EC4
:103EB00004016F6F0001D6DFA00E04016F6F0001D7
:103EC000D1DFA60E04016F6F0001CCDFA40E040148
:103ED0006F6F0001C7DFA20E04016F6F0001C2DF28
:103EE000C80E04016F6F0001BDDF2F0E04016F6F5C
:103EF0000001B8DF250E04016F6F0001B3DF810EF2
:103F000004016F6F0001AEDF3CC46FF4ABDFAAEFBA
:103F100020F0700ED36E9B8C9B9E870ED56EF28A1E
:103F20009D8AC00EF212D180FD0E0101206F8C0E11
:103F30001F6F20C1D7FF1FC1D6FFA00E0F01426F18
:103F4000C050C00B0709C06EC08EC280C150F00BBC
:103F50000809C16E000E386F030E3C6F000E396FFA
:103F60003A6F3B6F0F0E926E000E936E980E946E2A
:103F7000000E956E9680968296949696D0500F0B72
:103F8000D0A8000ED080D082D088D886D8882D6E58
:103F9000F2CF3DF4F29EAA6AA96AA69CA69EA680CC
:103FA000A85004013DBFF28E0101126F116BF2CFD8
:103FB0003DF4F29EAA6A010EA96EA69CA69EA6805A
:103FC000A85004013DBFF28E01011127000E1223FB
:103FD000113D04D0123D02D0126B116BF2CF3DF4B3
:103FE000F29EAA6A100EA96EA69CA69EA680A85054
:103FF00004013DBFF28E01012E6F2E3D02D0010E55
:104000002E6FF2CF3DF4F29EAA6A110EA96EA69C05
:10401000A69EA680A85004013DBFF28E01012F6F1D
:104020002F3D02D0010E2F6FF2CF3DF4F29EAA6A0F
:10403000120EA96EA69CA69EA680A85004013DBFA4
:10404000F28E0101306F303D02D0010E306FF2CFA1
:104050003DF4F29EAA6A130EA96EA69CA69EA680A7
:10406000A85004013DBFF28E0101316F313D01D0F6
:10407000316BF2CF3DF4F29EAA6A140EA96EA69C93
:10408000A69EA680A85004013DBFF28E0101326FAA
:10409000323D01D0326BF2CF3DF4F29EAA6A150E8A
:1040A000A96EA69CA69EA680A85004013DBFF28ED4
:1040B0000101336F333D02D00A0E336F115306E115
:1040C000125304E1146B010E136F41D011510A0811
:1040D00006E1125304E1146B010E136F38D0125332
:1040E00003E11151630809E2125307E11151C608B7
:1040F00004E3146B010E136F2AD01151580807E125
:104100001251020804E1146B010E136F20D01151FB
:10411000BD080CE11251020809E1146B010E136F86
:104120002EC141F4000149DD13D001011151BE0837
:104130000CE11251020809E1146B060E136F2EC137
:1041400041F400013ADD04D00101146B136B00014E
:10415000040092D632EF5BF09280486A80A0482A31
:1041600048C05AF09282496A80A2492A49C05CF04C
:1041700092844A6A80A44A2A4AC05EF092864B6AB8
:1041800080A64B2A4BC060F05A5203E1636B626B0E
:1041900016D05A2C09D0635307E16251630804E337
:1041A000622BD8B4632B0BD05A2C09D0625164080F
:1041B00006E1635304E10101126B0A0E116F000165
:1041C00038EF5BF00401446B0A0E436F42C444F4C1
:1041D00041C443F4AA6A010EA96E43C4A8FFA69C79
:1041E000A69EA684F250006EF29E0F01550EA76E99
:1041F000AA0EA76EA682A6B2FED7A6940050F2120F
:1042000044C443F40401446BAA6AA96A43C4A8FFE6
:10421000A69CA69EA684F250006EF29E0F01550E3B
:10422000A76EAA0EA76EA682A6B2FED7A6940050CD
:10423000F2120001120004013D6B3E6B3F6B406BBC
:104240005A505B5C04E05A5202E1010E3D6F5AC0C5
:104250005BF05C505D5C04E05C5202E1010E3E6F7D
:104260005CC05DF05E505F5C04E05E5202E1010EF6
:104270003F6F5EC05FF000016051615D06E060531A
:1042800004E1010E0401406F000160C061F004010F
:104290003D53D8B467D03D6B0101125321E1115158
:1042A00009081EE3126B0A0E116F132D09D0145367
:1042B00007E10401426B416B000184DF0CD0010176
:1042C0001351020809E1145307E112C142F411C16C
:1042D00041F4000177DF0101146B010E136F41D02F
:1042E000125303E1115109083CE212533AE1115112
:1042F000630837E314C17BF413C17AF404017D6BC6
:10430000640E7C6F000118EC1DF002C012F101C0B8
:1043100011F112C142F411C141F454DF0101132D16
:1043200006D0145304E1146B010E136F1AD013510D
:10433000020803E1145301E114D01351060806E109
:10434000145304E1146B010E136F0BD013510708C3
:1043500006E1145304E1146B010E136F02D0146BC9
:10436000136B04013E53D8A43E6B3F5325E03F6BD3
:10437000010112530DE1115109080AE3145303E13D
:104380001351010804E21351D8B41407130713D0D2
:10439000125303E1115109080EE212530CE11151BD
:1043A000630809E3145303E11351010804E21351B4
:1043B000D8B4140713070401405323E0406B0101F4
:1043C00012530CE11151090809E3145306E113518A
:1043D000010803E3132BD8B4142B12D0125303E1BA
:1043E000115109080DE212530BE11151630808E362
:1043F000145306E113510B0803E3132BD8B4142B09
:104400000401000141EF5BF0B00E04016D256E6FF9
:104410006F6F000127DD100E04016F6F000122DDB8
:1044200004016F6B00011EDD12008B829492956A6D
:104430007BC48CFF8B9094908B8094901200200E04
:104440000401775D796F7B6B7A6F7D6B050E7C6FF6
:10445000000118EC1DF002C079F401C078F402C02C
:1044600003F00401015002C0F7FF000172EC0FF0ED
:1044700004017A6F7B6F0001D8DF200E0401775DA5
:10448000796F7B6B7A6F7D6B050E7C6F000118EC8A
:104490001DF002C079F401C078F4010E040101247A
:1044A000016E000E0220036E015003C0F7FF0001F1
:1044B00072EC0FF00401786F7B6F0001B6DF200E05
:1044C0000401775D796F7B6B7A6F7D6B050E7C6F76
:1044D000000118EC1DF002C079F401C078F4020E5E
:1044E00004010124016E000E0220036E015003C07E
:1044F000F7FF000172EC0FF00401786F7B6F000191
:1045000094DF200E0401775D796F7B6B7A6F7D6B92
:10451000050E7C6F000118EC1DF002C079F401C09B
:1045200078F4030E04010124016E000E0220036ED4
:10453000015003C0F7FF000172EC0FF00401786F27
:104540007B6F000172DF200E0401775D796F7B6B5A
:104550007A6F7D6B050E7C6F000118EC1DF002C0B8
:1045600079F401C078F4040E04010124016E000EF8
:104570000220036E015003C0F7FF000172EC0FF040
:104580000401786F7B6F000150DF04017B6B000139
:104590004CDF12000900F6CF6FF4F7CF70F4F5CFBF
:1045A00077F44DDF6FC4F6FF70C4F7FF04016E2F80
:1045B00001D002D00001EED700011200EACF76F45C
:1045C000E9CF75F404016F39F009716F7127E20FBB
:1045D000726F320F746F6F510F0B7227722774272F
:1045E000E90F736F732773276E390F0B73277427C7
:1045F00073377437741F74376E510F0B742771370C
:10460000070E706F0A0E73077427FDE37207732796
:10461000FDE371077227FDE370077127FDE3040EC8
:10462000EA6E700EE96E070E7515759DE926740E1B
:10463000E95CD8B4758DEF50006E08E175BD06D009
:1046400075B915D075B702D0200E03D0758775994E
:10465000300E0026EACF6FF4E9CF6EF400C077F495
:104660000001EDDE6FC4EAFF6EC4E9FF0401EE5005
:1046700075ADDDD7000112000900F5520CE0F6CF50
:104680006DF4F7CF6EF4F5CF77F4D9DE6DC4F6FF95
:104690006EC4F7FFF1D71200200E04013D6F3E6F8C
:1046A0003F6F406F416F426F436F446F456F466F7E
:1046B000476F486F496F4A6F4B6F4C6F4D6F4E6F2E
:1046C0004F6F506F3D0E01011325E96E040E14214A
:1046D000EA6E3E0EEF6E1153D8A4C1D01253D8A487
:1046E000BED004016D6B00018FDE036A0101215110
:1046F000220FE96E010E0320EA6EEFCF51F4DC0EBB
:10470000F66E2C0EF76E120E04016E6F000142DF82
:104710000A0EE96E12C16FF411C16EF44FDF51C47D
:1047200077F48DDE010E04016D6F00016DDEF80E71
:10473000F66E2C0EF76EA0DF020E04016D6F000105
:1047400063DE100EF66E2D0EF76E96DF030E04017B
:104750006D6F000159DE280EF66E2D0EF76E0C0EF1
:1047600004016E6F000116DF3EC477F468DE380E78
:10477000F66E2D0EF76E040E04016E6F00010ADF57
:104780003FC477F45CDE400EF66E2D0EF76E040E1D
:1047900004016E6F0001FEDE040E04016D6F000166
:1047A00033DE460EF66E2D0EF76E66DF050E040143
:1047B0006D6F000129DE5E0EF66E2D0EF76E5CDF6A
:1047C000060E04016D6F00011FDE760EF66E2D0ED3
:1047D000F76E52DF070E04016D6F000115DE810ECA
:1047E0000401776F00012BDE920EF66E2D0EF76E30
:1047F000050E04016E6F0001CDDE810E0401776F9E
:1048000000011DDE9B0EF66E2D0EF76E060E0401E6
:104810006E6F0001BFDE810E0401776F00010FDEB5
:10482000A50EF66E2D0EF76E040E04016E6F0001DC
:10483000B1DE810E0401776F000101DE200E04015C
:10484000776F0001FCDD200E0401776F0001F7DDBA
:104850002D0E0401776F0001F2DD4DD101011151E0
:104860000A08D8A449D11253D8A446D11453D8A4C5
:10487000B9D013510808D8A0B5D004016D6B000160
:10488000C3DD036A01012151220FE96E010E0320ED
:10489000EA6EEFCF51F4B20EF66E2D0EF76E120ED9
:1048A00004016E6F000176DE0A0EE96E12C16FF42C
:1048B00011C16EF483DE51C477F4C1DD010E040131
:1048C0006D6F0001A1DDCE0EF66E2D0EF76ED4DEFB
:1048D000020E04016D6F000197DD3EC477F4AFDD79
:1048E000EA0EF66E2D0EF76E090E04016E6F0001D2
:1048F00051DE42C477F4A3DDF70EF66E2D0EF76E8F
:104900000B0E04016E6F000145DE030E04016D6F96
:1049100000017ADD3FC477F492DD080EF66E2E0EAC
:10492000F76E090E04016E6F000134DE43C477F4A4
:1049300086DD150EF66E2E0EF76E0B0E04016E6FF1
:10494000000128DE040E04016D6F00015DDD40C42E
:1049500077F475DD260EF66E2E0EF76E090E040145
:104960006E6F000117DE44C477F469DD330EF66E16
:104970002E0EF76E0B0E04016E6F00010BDE050E9E
:1049800004016D6F000140DD41C477F458DD440E31
:10499000F66E2E0EF76E090E04016E6F0001FADD41
:1049A00045C477F44CDD510EF66E2E0EF76E0B0EED
:1049B00004016E6F0001EEDD060E04016D6F000153
:1049C00023DD5E0EF66E2E0EF76E56DE070E040128
:1049D0006D6F000119DD760EF66E2E0EF76E4CDE51
:1049E0008AD00101145304E113510808D8B084D0CF
:1049F00004016D6B000108DD036A01012151220FE2
:104A0000E96E010E0320EA6EEFCF51F48E0EF66EC2
:104A10002E0EF76E120E04016E6F0001BBDD0A0E42
:104A2000E96E12C16FF411C16EF4C8DD51C477F4A0
:104A300006DD010E04016D6F0001E6DCAA0EF66EC4
:104A40002E0EF76E19DE020E04016D6F0001DCDC24
:104A500046C477F4F4DCC60EF66E2E0EF76E150E15
:104A600004016E6F000196DD030E04016D6F0001FD
:104A7000CBDC47C477F4E3DCE00EF66E2E0EF76E67
:104A8000150E04016E6F000185DD040E04016D6FCB
:104A90000001BADC48C477F4D2DCFA0EF66E2E0EB2
:104AA000F76E150E04016E6F000174DD050E040132
:104AB0006D6F0001A9DC49C477F4C1DC140EF66EF9
:104AC0002F0EF76E150E04016E6F000163DD060EEA
:104AD00004016D6F000198DC2A0EF66E2F0EF76E42
:104AE000CBDD070E04016D6F00018EDC420EF66E09
:104AF0002F0EF76EC1DD0101000146EF5BF00401EE
:104B00003D6B3E6B3F6B406B5A505B5C04E05A520E
:104B100002E1010E3D6F5AC05BF05C505D5C04E049
:104B20005C5202E1010E3E6F5CC05DF05E505F5C66
:104B300004E05E5202E1010E3F6F5EC05FF00001D3
:104B40006051615D06E0605304E1010E0401406FB5
:104B5000000160C061F004013D5313E03D6B0101B1
:104B60001151640806E1125304E1126B650E116FD6
:104B700007D01151650804E1125302E1126B116B69
:104B800004013E5309E03E6B0101126B0A0E116FE6
:104B9000146B010E136F0401000155EF5BF0EF522F
:104BA0000FE0EACF70F4E9CF6FF4EFCF77F447DC92
:104BB00070C4EAFF6FC4E9FFE92AD8B4EA2AEFD744
:104BC0001200200E04013D6F3E6F3F6F406F416F3A
:104BD000426F436F446F456F466F476B3D0E010157
:104BE0001325E96E040E1421EA6E3E0EEF6E11518C
:104BF0006408D8A484D01253D8A481D004016D6B6A
:104C0000000102DC036A01012151220FE96E010E4D
:104C10000320EA6EEFCF48F45A0EF66E2F0EF76EB1
:104C2000120E04016E6F0001B5DC0A0EE96E12C1AE
:104C30006FF411C16EF4C2DC48C477F400DC010EDD
:104C400004016D6F000104EC22F0740EF66E2F0E5D
:104C5000F76E12DD020E04016D6F000104EC22F00C
:104C60008C0EF66E2F0EF76E07DD030E04016D6FCE
:104C7000000104EC22F0A40EF66E2F0EF76EFCDCA1
:104C8000040E04016D6F000104EC22F0BC0EF66E00
:104C90002F0EF76EF1DC050E04016D6F000104ECC0
:104CA00022F0D40EF66E2F0EF76EE6DC060E04012F
:104CB0006D6F000104EC22F0EC0EF66E2F0EF76E15
:104CC000DBDC070E04016D6F000104EC22F0040E22
:104CD000F66E300EF76E0F0E04016E6F00015ADC97
:104CE0003EC477F41FEC22F0170EF66E300EF76E0E
:104CF000060E04016E6F00014DDC9AD001011151C6
:104D00006508D8A496D01253D8A493D004016D6B33
:104D1000000104EC22F0036A01012151220FE96E27
:104D2000010E0320EA6EEFCF48F41E0EF66E300E31
:104D3000F76E120E04016E6F00012CDC0A0EE96E94
:104D400012C16FF411C16EF439DC48C477F41FEC62
:104D500022F0010E04016D6F000104EC22F0380E08
:104D6000F66E300EF76E88DC020E04016D6F0001E6
:104D700004EC22F0500EF66E300EF76E7DDC030E62
:104D800004016D6F000104EC22F0680EF66E300E27
:104D9000F76E72DC040E04016D6F000104EC22F06A
:104DA000800EF66E300EF76E090E04016E6F000174
:104DB000CAEC22F0EA6A200EE96EF1DE2D0E040143
:104DC000776F00011FEC22F0050E04016D6F0001EA
:104DD00004EC22F08E0EF66E300EF76E080E040113
:104DE0006E6F0001CAEC22F03EC477F41FEC22F093
:104DF0009A0EF66E300EF76E0D0E04016E6F000106
:104E0000CAEC22F0060E04016D6F000104EC22F0E2
:104E1000A80EF66E300EF76E2FDC070E04016D6FD4
:104E2000000104EC22F0C00EF66E300EF76E24DCAA
:104E3000010100015AEF5BF004013D6B3E6B3F6BDB
:104E4000406B5A505B5C04E05A5202E1010E3D6F28
:104E50005AC05BF05C505D5C04E05C5202E1010E04
:104E60003E6F5CC05DF05E505F5C04E05E5202E14C
:104E7000010E3F6F5EC05FF000016051615D06E0B2
:104E8000605304E1010E0401406F000160C061F055
:104E900004013D5301E03D6B3E5309E03E6B0101CF
:104EA000126B0A0E116F146B020E136F04010001D6
:104EB0006BEF5BF004014A51016A495D03E249C4AA
:104EC00000F00CD0006A080E4B6F493700364A518B
:104ED000005CD8B0006E01364B2FF7D700011200EE
:104EE000015047C449F4640E04014A6F0001E2DF37
:104EF00000C047F40150300E08E1040148A310D06F
:104F000048B70ED048B9200E04D0040148974899FC
:104F10004881012601C077F400011FEC22F0040152
:104F200047C449F40A0E4A6F0001C4DF00C047F4C9
:104F30000150300E08E1040148B70BD048A109D058
:104F400048B9200E0001012601C077F41FEC22F0C1
:104F50000401300E472747C477F400011FEC22F00C
:104F6000120001011151C808D8A425D11253D8A4A8
:104F700022D104016D6B000104EC22F0036A0101EF
:104F80002151220FE96E010E0320EA6EEFCF3DF4AE
:104F9000D80EF66E300EF76E110E04016E6F000122
:104FA000CAEC22F0090EE96E12C16FF411C16EF461
:104FB000DEEC22F03DC477F41FEC22F0010E040178
:104FC0006D6F000104EC22F0F20EF66E300EF76EFB
:104FD0003CEC23F0020E04016D6F000104EC22F0A2
:104FE0000A0EF66E310EF76E0A0E04016E6F0001A6
:104FF000CAEC22F04FC047F4080E0401486F0001CC
:105000006FDF4EC047F4080E0401486F000168DFEF
:105010004DC047F4080E0401486F000161DF4CC029
:1050200047F4080E0401486F00015ADF2C0E0401FA
:10503000776F00011FEC22F04BC047F4080E04010B
:10504000486F00014DDF4AC047F4080E0401486F65
:10505000000146DF49C047F4080E0401486F000113
:105060003FDF48C047F4080E0401486F000138DFF5
:10507000350EF66E310EF76E040E04016E6F0001F0
:10508000CAEC22F0030E04016D6F000104EC22F063
:105090003A0EF66E310EF76E0A0E04016E6F0001C5
:1050A000CAEC22F055C047F4080E0401486F000115
:1050B00017DF54C047F4080E0401486F000110DFE9
:1050C00053C047F4080E0401486F000109DF52C0C5
:1050D00047F4080E0401486F000102DF51C047F495
:1050E000080E0401486F0001FBDE50C047F4080EB3
:1050F0000401486F0001F4DE5C0EF66E310EF76EAF
:10510000060E04016E6F0001CAEC22F0040E0401C9
:105110006D6F000104EC22F0640EF66E310EF76E36
:10512000090E04016E6F0001CAEC22F0090EE96E4F
:1051300059C06FF458C06EF4DEEC22F02C0E04015E
:10514000776F00011FEC22F0090EE96E57C06FF473
:1051500056C06EF4DEEC22F0780EF66E310EF76E6D
:10516000040E04016E6F0001CAEC22F0050E04016A
:105170006D6F000104EC22F07E0EF66E310EF76EBC
:105180003CEC23F0060E04016D6F000104EC22F0EC
:10519000960EF66E310EF76E3CEC23F0070E04010E
:1051A0006D6F000104EC22F0AE0EF66E310EF76E5C
:1051B0003CEC23F00101000170EF5BF049C44DF4B9
:1051C00048C44CF44DC403F004014CC4E9FF4DC481
:1051D000EAFFEF5230E04BC44FF44AC44EF44FC4E0
:1051E00003F04EC4E9FF4FC4EAFFEF520AE1485111
:1051F0004C5D006E49514D59036E00C001F023D043
:1052000010D04CC4E9FF4DC4EAFFEFCF50F44FC4B7
:1052100003F04EC4E9FF4FC4EAFFEF50505D01E1D7
:1052200004D04E2BD8B44F2BDAD74C2BD8B44D2BFF
:105230000001C8D7040148514C5D006E49514D59D9
:10524000036E00C001F000017BEF29F049C44DF46A
:1052500048C44CF44DC403F004014CC4E9FF4DC4F0
:10526000EAFFEF522AE04BC44FF44AC44EF44FC455
:1052700003F04EC4E9FF4FC4EAFFEF5218E04CC4FC
:10528000E9FF4DC4EAFFEFCF50F44FC403F04EC422
:10529000E9FF4FC4EAFFEF50505D05E14CC401F057
:1052A0004DC402F00DD04E2BD8B44F2BE0D74C2B71
:1052B000D8B44D2B0001CED70401000E016E026E52
:1052C00000019CEF29F004014051411104E041C468
:1052D00003F0405103D01AC003F01950446F03C0CB
:1052E00045F445C449F444C448F443C44BF442C4AF
:1052F0004AF4000163D7015004014427000E4523FE
:1053000045C403F044C4E9FF45C4EAFFEF520AE193
:1053100019C0E9FF1AC0EAFF200EEF6E000E016E01
:10532000026E27D045C449F444C448F443C44BF446
:1053300042C44AF400018AD702C047F401C046F4CF
:1053400047C403F0040146C4E9FF47C4EAFFEF5233
:1053500008E046C4E9FF47C4EAFFEF6A462BD8B429
:10536000472B47C41AF046C419F044C401F045C4A1
:1053700002F000010AEF2BF0040140C4E9FF41C430
:10538000EAFFEFCF44F443C403F042C4E9FF43C44F
:10539000EAFFEF50445D15E141C403F040C4E9FF6A
:1053A00003C0EAFFEF5203E1000E016E1FD041C4BB
:1053B00003F04051402BD8B4412B422BD8B4432B9F
:1053C000DCD741C403F040C4E9FF41C4EAFFEFCF9A
:1053D00044F443C403F042C4E9FF43C4EAFFEF507E
:1053E000445D02E2FF0E01D0010E016E00012EEFBE
:1053F0002BF00900F5520DE0F6CF40F4F7CF41F461
:10540000F5509EA8FED7AD6E40C4F6FF41C4F7FF2D
:10541000F0D735EF2BF00900F6CF41F4F7CF42F487
:10542000F5509EA8FED7AD6E41C4F6FF42C4F7FF0B
:105430000401402F01D002D00001EDD7000112007D
:10544000EACF48F4E9CF47F4040141AF08D0478FD1
:1054500047A9472B401F411F402BD8B4412B41394E
:10546000F009436F4327E20F446F320F466F4151FB
:105470000F0B442744274627E90F456F452745274B
:1054800040390F0B4527462745374637461F4637D5
:1054900040510F0B46274337070E426F0A0E450750
:1054A0004627FDE344074527FDE343074427FDE383
:1054B00042074327FDE3040EEA6E420EE96E070E33
:1054C0004715479DE906471507E147B9E92A47B956
:1054D00003D0200E006E1CD0E926460EE95CD8B43D
:1054E000478DEF50006E08E147BD06D047B914D094
:1054F00047B702D0200E0BD047AF06D02D0E006E5E
:10550000ED50479D479F04D047874799300E0026AE
:1055100000509EA8FED7AD6EEE5047ADDED700011D
:1055200046EF2BF0200E040141A9300E426F40C41B
:1055300000F040AF08D0001E002A00C040F42D0E3D
:10554000426F418F4181015040C449F4640E4A6F5B
:105550000001B0DC00C040F4300E01240401436FB0
:1055600040C449F40A0E4A6F0001A4DC300E002446
:105570000401456F300E0124446F42C400F0300E28
:10558000435D04E0418341BF418512D042C443F4EE
:10559000200E426F300E445D04E0418141BF4183E3
:1055A00007D0D8A4418104E143C444F4200E436FE2
:1055B00041B505D041B307D041B109D00CD042511B
:1055C0009EA8FED7AD6E43519EA8FED7AD6E445146
:1055D0009EA8FED7AD6E45519EA8FED7AD6E0001C8
:1055E0005FEF2BF004013D6B010E0001665D036A65
:1055F000670FE96E000E0320EA6EEF500D08D8A485
:1056000086D00401416B670E406F436B640E426F9E
:10561000000159D602C03FF401C03EF40D0E9EA811
:10562000FED7AD6E0A0E9EA8FED7AD6E010EEA6ED5
:10563000070EE96E000E60EC13F00A000900F55049
:10564000EE6E0009FBE13FC441F43EC440F4010E9C
:105650000401436F070E426F00018ED6015237E1FD
:10566000F00EF66E390EF76EC4D60E0EF66E3A0ECA
:10567000F76E0D0E0401406F0001CDDE0A0EE96EDB
:105680000401416B440E406F0001DAD6200EF66E25
:105690003A0EF76E040E0401406F0001BCDE260EC8
:1056A000F66E3A0EF76E040E0401406F0001B3DE91
:1056B00049C040F4180E0401416F000133D70D0EAC
:1056C0009EA8FED7AD6E0A0E9EA8FED7AD6E040151
:1056D0003D6B3D514F080AE3036A3D51670FE96E88
:1056E000000E0320EA6EEF6A3D2BF3D70001666BD4
:1056F00004013D6B3D5109080AE3036A3D51070F60
:10570000E96E010E0320EA6EEF6A3D2BF3D700012C
:1057100084EF5BF004013D6B3E6B3F6B406B5A5076
:105720005B5C04E05A5202E1010E3D6F5AC05BF02F
:105730005C505D5C04E05C5202E1010E3E6F5CC0B7
:105740005DF05E505F5C04E05E5202E1010E3F6F6F
:105750005EC05FF000016051615D06E0605304E1EE
:10576000010E0401406F000160C061F004013D536F
:1057700001E03D6B3E5309E03E6B0101126B0A0EE6
:10578000116F146B030E136F0401000186EF5BF0C1
:1057900004016EBF12D00F0E006E6D3900160A0E96
:1057A000005C03E2300E002602D06E51002600C0DD
:1057B00077F400011FEC22F004010F0E6D170A0EA2
:1057C0006D5D02E2300E02D06E9F6E516D276DC48A
:1057D00077F400011FEC22F012000401496B486BC2
:1057E00049534CE14851070849E34851B0094C6F0F
:1057F00049C44DF46F6F000132EC1FF0100E04012C
:105800006F6F000132EC1FF004016F6B000132EC8E
:105810001FF004014B6B4A6B4B532CE14A517F083C
:1058200029E348354C6F49354D6F4C374D374C3770
:105830004D374C374D374C374D374C374D374C374C
:105840004D37800E4C174A514C274B514D234DC4B8
:1058500003F04C514DC4F7FF000159EC11F0E8CFB3
:1058600047F447C47BF415EC22F004014A2BD8B46A
:105870004B2BD2D7482BD8B4492BB2D70001A6EF77
:105880002EF0200E04013D6F3E6F3F6F406F416F61
:10589000426F436F446F456F466B010111512C08F5
:1058A000D8A44DD2122D4BD204016D6B000104EC33
:1058B00022F0036A01012151220FE96E010E03203B
:1058C000EA6EEFCF47F4D40EF66E260EF76E110E89
:1058D00004016E6F0001CAEC22F0090EE96E12C1DC
:1058E0006FF411C16EF4DEEC22F047C477F41FECC4
:1058F00022F0010E04016D6F000104EC22F0EE0EA7
:10590000F66E260EF76E3CEC23F0020E04016D6F6E
:10591000000104EC22F0060EF66E270EF76E0C0E58
:1059200004016E6F0001CAEC22F066C047F4030E5A
:105930000401486F000170EC27F0160EF66E270E7A
:10594000F76E070E04016E6F0001CAEC22F0030E21
:1059500004016D6F000104EC22F067C077F41FECC6
:1059600022F068C077F41FEC22F069C077F41FECD6
:1059700022F06AC077F41FEC22F06BC077F41FECC2
:1059800022F06CC077F41FEC22F06DC077F41FECAE
:1059900022F06EC077F41FEC22F06FC077F41FEC9A
:1059A00022F070C077F41FEC22F071C077F41FEC86
:1059B00022F072C077F41FEC22F073C077F41FEC72
:1059C00022F074C077F41FEC22F075C077F41FEC5E
:1059D00022F076C077F41FEC22F077C077F41FEC4A
:1059E00022F078C077F41FEC22F079C077F41FEC36
:1059F00022F07AC077F41FEC22F07BC077F41FEC22
:105A000022F02D0E0401776F00011FEC22F0040E2E
:105A100004016D6F000104EC22F07CC077F41FECF0
:105A200022F07DC077F41FEC22F07EC077F41FECEB
:105A300022F07FC077F41FEC22F080C077F41FECD7
:105A400022F081C077F41FEC22F082C077F41FECC3
:105A500022F083C077F41FEC22F084C077F41FECAF
:105A600022F085C077F41FEC22F086C077F41FEC9B
:105A700022F087C077F41FEC22F088C077F41FEC87
:105A800022F089C077F41FEC22F08AC077F41FEC73
:105A900022F08BC077F41FEC22F08CC077F41FEC5F
:105AA00022F08DC077F41FEC22F08EC077F41FEC4B
:105AB00022F08FC077F41FEC22F090C077F41FEC37
:105AC00022F02D0E0401776F00011FEC22F0050E6D
:105AD00004016D6F000104EC22F067C06DF4570EF5
