:0400000008EF42F0D3
:08000800046ED8CF05F0E0CF33
:1000100006F00001E9CF0CF0EACF07F0E1CF08F0DD
:10002000E2CF09F0D9CF0AF0DACF0BF0F3CF12F01C
:10003000F4CF13F0FACF14F0F5CF15F0F6CF16F099
:10004000F7CF17F000C00EF001C00FF002C010F0A3
:1000500003C011F0F2AA30EF00F0F2B46EEF1CF022
:100060009DAA36EF00F09EBA46EF1CF00EC000F0DD
:100070000FC001F010C002F011C003F00CC0E9FF86
:1000800007C0EAFF078E08C0E1FF09C0E2FF0AC00F
:10009000D9FF0BC0DAFF12C0F3FF13C0F4FF14C086
:1000A000FAFF15C0F5FF16C0F6FF17C0F7FF0450A2
:1000B00006C0E0FF05C0D8FF1000C80FF66E000EA6
:1000C000F7220900F55012000000000000000000B7
:1000D0000000000000000000000000000000000020
:1000E0000000000000000000000000000000000010
:1000F0000000000000000000000000000000000000
:1001000000000000000000000000000000000000EF
:1001100000000000000000000000000000000000DF
:1001200000000000000000000000000000000000CF
:1001300000000000000000000000000000000000BF
:1001400000000000000000000000000000000000AF
:10015000000000000000000000000000000000009F
:10016000000000000000000000000000000000008F
:10017000000000000000000000000000000000007F
:10018000000000000000000000000000000000006F
:10019000000000000000000000000000000000005F
:1001A000000000000000000000000000000000004F
:1001B000000000000000000000000000000000003F
:1001C000000000000000000055504C47423E39340A
:1001D000302B26221D18140F0A0601000000000013
:1001E000000000000000000000000000000000000F
:1001F0000005090E13171C21252A2F33383D4146CF
:100200004B4F54545454545555504C47423E393436
:10021000302B26221D18140F0A06010000000000D2
:1002200000000000000000000000000000000000CE
:100230000005090E13171C21252A2F33383D41468E
:100240004B4F54545454545555504C47423E3934F6
:10025000302B26221D18140F0A0601000000000092
:10026000000000000000000000000000000000008E
:100270000005090E13171C21252A2F33383D41464E
:100280004B4F54545454545555504C47423E3934B6
:10029000302B26221D18140F0A0601000000000052
:1002A000000000000000000000000000000000004E
:1002B0000005090E13171C21252A2F33383D41460E
:1002C0004B4F545454545454FFF9F3EDE7E1DBD54C
:1002D000CFC9C3BDB7B1ABA59F99938D87817B75FE
:1002E0006F69635D57514B453F39332D27211B15EE
:1002F0000F090300000000000000000000000000E3
:1003000000000000000000000000000000000000ED
:1003100000000000000000000000000000000000DD
:1003200000000000000000000000000000000000CD
:1003300000000000000000000000000000000000BD
:1003400000000000000000000000000000000000AD
:10035000000000000000000000000000000000009D
:10036000000000000000000000000000000000008D
:10037000000000000000000000000000000000007D
:10038000000000000000000000000000000000006D
:100390000000000000000000000000000003090F42
:1003A000151B21272D33393F454B51575D63696F2D
:1003B000757B81878D93999FA5ABB1B7BDC3C9CF1D
:1003C000D5DBE1E7EDF3F9FFFFFCF9F6F3F0EDEA39
:1003D000E7E4E1DEDBD8D5D2CFCCC9C6C3C0BDBA15
:1003E000B7B4B1AEABA8A5A29F9C999693908D8A05
:1003F0008784817E7B7875726F6C696663605D5AF5
:100400005754514E4B4845423F3C393633302D2AE4
:100410002724211E1B1815120F0C090603000000CB
:1004200000000000000000000000000000000000CC
:1004300000000000000000000000000000000000BC
:1004400000000000000000000000000000000000AC
:10045000000000000000000000000000000000009C
:10046000000000000000000000000000000000008C
:100470000000000306090C0F1215181B1E2124276B
:100480002A2D303336393C3F4245484B4E51545764
:100490005A5D606366696C6F7275787B7E81848754
:1004A0008A8D909396999C9FA2A5A8ABAEB1B4B744
:1004B000BABDC0C3C6C9CCCFD2D5D8DBDEE1E4E734
:1004C000EAEDF0F3F6F9FCFCFFFFFFFFFFFFFFFF93
:1004D000FFFFFFFFFFFFFFFFFFFFFFFFFFFFFFFF2C
:1004E000FFFFFFFFFFFFFFFFFFFFFFFFFFFFFFFF1C
:1004F000FFFFFFFFFFFFFFFFFFFFFFFFFFFFFFFF0C
:10050000FFFFFFFFFFFFFFFFFFFFFFFFFFFFFFFFFB
:10051000FFFFFFFFFFFFFFFFFFFFFFFFFFFFFFFFEB
:10052000FFFFFFFFFFFFFFFFFFFFFFFFFFFFFFFFDB
:10053000FFFFFFFFFFFFFFFFFFFFFFFFFFFFFFFFCB
:10054000FFFFFFFFFFFFFFFFFFFFFFFFFFFFFFFFBB
:10055000FFFFFFFFFFFFFFFFFFFFFFFFFFFFFFFFAB
:10056000FFFFFFFFFFFFFFFFFFFFFFFFFFFFFFFF9B
:10057000FFFFFFFFFFFFFFFFFFFFFFFFFFFFFFFF8B
:10058000FFFFFFFFFFFFFFFFFFFFFFFFFFFFFFFF7B
:10059000FFFFFFFFFFFFFFFFFFFFFFFFFFFFFFFF6B
:1005A000FFFFFFFFFFFFFFFFFFFFFFFFFFFFFFFF5B
:1005B000FFFFFFFFFFFFFFFFFFFFFFFFFFFFFFFF4B
:1005C000FFFFFFFFFFFFFFFF000000000000000033
:1005D000000000000000000000000000000000001B
:1005E000000000000000000000000000000000000B
:1005F00000000000000000000000000000000000FB
:1006000000000000000000000000000000000000EA
:1006100000000000000000000000000000000000DA
:1006200000000000000000000000000000000000CA
:1006300000000000000000000000000000000000BA
:1006400000000000000000000000000000000000AA
:10065000000000000000000000000000000000009A
:10066000000000000000000000000000000000008A
:10067000000000000000000000000000000000007A
:10068000000000000000000000000000000000006A
:10069000000000000000000000000000000000005A
:1006A000000000000000000000000000000000004A
:1006B000000000000000000000000000000000003A
:1006C000000000000000000000000000000000002A
:1006D000000000000000000000000000000000001A
:1006E000000000000000000000000000000000000A
:1006F00000000000000000000000000000000000FA
:1007000000000000000000000000000000000000E9
:1007100000000000000000000000000000000000D9
:1007200000000000000000000000000000000000C9
:1007300000000000000000000000000000000000B9
:1007400000000000000000000000000000000000A9
:100750000000000000000000000000000000000099
:100760000000000000000000000000000000000089
:100770000000000000000000000000000000000079
:100780000000000000000000000000000000000069
:100790000000000000000000000000000000000059
:1007A0000000000000000000000000000000000049
:1007B0000000000000000000000000000000000039
:1007C0000000000000000000FFFFFFFFFFFFFFFF31
:1007D000FFFFFFFFFFFFFFFFFFFFFFFFFFFFFFFF29
:1007E000FFFFFFFFFFFFFFFFFFFFFFFFFFFFFFFF19
:1007F000FFFFFFFFFFFFFFFFFFFFFFFFFFFFFFFF09
:10080000FFFFFFFFFFFFFFFFFFFFFFFFFFFFFFFFF8
:10081000FFFFFFFFFFFFFFFFFFFFFFFFFFFFFFFFE8
:10082000FFFFFFFFFFFFFFFFFFFFFFFFFFFFFFFFD8
:10083000FFFFFFFFFFFFFFFFFFFFFFFFFFFFFFFFC8
:10084000FFFFFFFFFFFFFFFFFFFFFFFFFFFFFFFFB8
:10085000FFFFFFFFFFFFFFFFFFFFFFFFFFFFFFFFA8
:10086000FFFFFFFFFFFFFFFFFFFFFFFFFFFFFFFF98
:10087000FFFFFFFFFFFFFFFFFFFFFFFFFFFFFFFF88
:10088000FFFFFFFFFFFFFFFFFFFFFFFFFFFFFFFF78
:10089000FFFFFFFFFFFFFFFFFFFFFFFFFFFFFFFF68
:1008A000FFFFFFFFFFFFFFFFFFFFFFFFFFFFFFFF58
:1008B000FFFFFFFFFFFFFFFFFFFFFFFFFFFFFFFF48
:1008C000FFFFFFFFFFFFFFFF000810182028303850
:1008D000404850586068707880889098A0A8B0B858
:1008E000C0C8D0D8E0E8F0E8E0D8D0C8C0B8B0A818
:1008F000A0989088807870686058504840383028B8
:100900002018100800081018202830384048505887
:100910006068707880889098A0A8B0B8C0C8D0D817
:10092000E0E8F0E8E0D8D0C8C0B8B0A8A0989088B7
:100930008078706860585048403830282018100877
:1009400000081018202830384048505860687078E7
:1009500080889098A0A8B0B8C0C8D0D8E0E8F0E8E7
:10096000E0D8D0C8C0B8B0A8A09890888078706847
:1009700060585048403830282018100800081018D7
:1009800020283038404850586068707880889098A7
:10099000A0A8B0B8C0C8D0D8E0E8F0E8E0D8D0C887
:1009A000C0B8B0A8A0989088807870686058504807
:1009B00040383028201810080020406080A0C0E097
:1009C000FFDFBF9F7F5F3F1F80008000800080802F
:1009D00000800080008080008000800080FF00FF99
:1009E00000FF00FFFF00FF00FF00FFFF00FF00FF10
:1009F00000FF80008000800080FF00FF00FF00FFFC
:100A00008000800080008080008000800080800066
:100A10008000800080FF00FF00FF00FFFF00FF005C
:100A2000FF00FFFF00FF00FF00FF8000800080004C
:100A300080FF00FF00FF00FF8000800080008080BA
:100A400000800080008080008000800080FF00FF28
:100A500000FF00FFFF00FF00FF00FFFF00FF00FF9F
:100A600000FF80008000800080FF00FF00FF00FF8B
:100A700080008000800080800080008000808000F6
:100A80008000800080FF00FF00FF00FFFF00FF00EC
:100A9000FF00FFFF00FF00FF00FF800080008000DC
:100AA00080FF00FF00FF00FF40004000400040408A
:100AB00000400040004040004000400040FF00FF78
:100AC00000FF00FFFF000000D60FF66E0A0EF722AF
:100AD0000900F550120000000000000000000000B6
:100AE0000000000000000000000000000000000006
:100AF00000000000000000000000000000000000F6
:100B000000000000000000000000000000000000E5
:100B100000000000000000000000000000000000D5
:100B200000000000000000000000000000000000C5
:100B300000000000000000000000000000000000B5
:100B400000000000000000000000000000000000A5
:100B50000000000000000000000000000000000095
:100B60000000000000000000000000000000000085
:100B70000000000000000000000000000000000075
:100B80000000000000000000000000000000000065
:100B90000000000000000000000000000000000055
:100BA0000000000000000000000000000000000045
:100BB0000000000000000000000000000000000035
:100BC0000000000000000000000000000000000025
:100BD0000000000000000005090E13171C21252A43
:100BE0002F33383D41464B4F545555504C47423EAC
:100BF0003934302B26221D18140F0A06010000007C
:100C000000000000000000000000000000000000E4
:100C10000000000000000005090E13171C21252A02
:100C20002F33383D41464B4F545555504C47423E6B
:100C30003934302B26221D18140F0A06010000003B
:100C400000000000000000000000000000000000A4
:100C50000000000000000005090E13171C21252AC2
:100C60002F33383D41464B4F545555504C47423E2B
:100C70003934302B26221D18140F0A0601000000FB
:100C80000000000000000000000000000000000064
:100C90000000000000000005090E13171C21252A82
:100CA0002F33383D41464B4F545555504C47423EEB
:100CB0003934302B26221D18140F0A0601000000BB
:100CC0000000000000000000000000000000000024
:100CD0000000000000000000000000000000000014
:100CE0000000000000000000000000000000000004
:100CF00000000000000000000000000000000000F4
:100D00000003090F151B21272D33393F454B515740
:100D10005D63696F757B81878D93999FA5ABB1B733
:100D2000BDC3C9CFD5DBE1E7EDF3F9FFF9F3EDE79B
:100D3000E1DBD5CFC9C3BDB7B1ABA59F99938D8773
:100D4000817B756F69635D57514B453F39332D2763
:100D5000211B150F09030000000000000000000027
:100D60000000000000000000000000000000000083
:100D70000000000000000000000000000000000073
:100D80000000000000000000000000000000000063
:100D90000000000000000000000000000000000053
:100DA0000000000000000000000000000000000043
:100DB0000000000000000000000000000000000033
:100DC0000000000000000000000000000000000023
:100DD0000000000000000306090C0F1215181B1E6E
:100DE0002124272A2D303336393C3F4245484B4E8B
:100DF0005154575A5D606366696C6F7275787B7E7B
:100E00008184878A8D909396999C9FA2A5A8ABAE6A
:100E1000B1B4B7BABDC0C3C6C9CCCFD2D5D8DBDE5A
:100E2000E1E4E7EAEDF0F3F6F9FCFFFCF9F6F3F0A4
:100E3000EDEAE7E4E1DEDBD8D5D2CFCCC9C6C3C04A
:100E4000BDBAB7B4B1AEABA8A5A29F9C999693903A
:100E50008D8A8784817E7B7875726F6C696663602A
:100E60005D5A5754514E4B4845423F3C393633301A
:100E70002D2A2724211E1B1815120F0C090603000A
:100E80000000000000000000000000000000000062
:100E90000000000000000000000000000000000052
:100EA0000000000000000000000000000000000042
:100EB0000000000000000000000000000000000032
:100EC0000000000000000000000000000000000022
:100ED0000000000000000000000000000000000012
:100EE0000000000000000000000000000000000002
:100EF00000000000000000000000000000000000F2
:100F000000000000000000000000000000000000E1
:100F100000000000000000000000000000000000D1
:100F200000000000000000000000000000000000C1
:100F300000000000000000000000000000000000B1
:100F400000000000000000000000000000000000A1
:100F50000000000000000000000000000000000091
:100F60000000000000000000000000000000000081
:100F70000000000000000000000000000000000071
:100F80000000000000000000000000000000000061
:100F90000000000000000000000000000000000051
:100FA0000000000000000000000000000000000041
:100FB0000000000000000000000000000000000031
:100FC0000000000000000000000000000000000021
:100FD000000000000000FFFFFFFFFFFFFFFFFFFF1B
:100FE000FFFFFFFFFFFFFFFFFFFFFFFFFFFFFFFF11
:100FF000FFFFFFFFFFFFFFFFFFFFFFFFFFFFFFFF01
:10100000FFFFFFFFFFFFFFFFFFFFFFFFFFFFFFFFF0
:10101000FFFFFFFFFFFFFFFFFFFFFFFFFFFFFFFFE0
:10102000FFFFFFFFFFFFFFFFFFFFFFFFFFFFFFFFD0
:10103000FFFFFFFFFFFFFFFFFFFFFFFFFFFFFFFFC0
:10104000FFFFFFFFFFFFFFFFFFFFFFFFFFFFFFFFB0
:10105000FFFFFFFFFFFFFFFFFFFFFFFFFFFFFFFFA0
:10106000FFFFFFFFFFFFFFFFFFFFFFFFFFFFFFFF90
:10107000FFFFFFFFFFFFFFFFFFFFFFFFFFFFFFFF80
:10108000FFFFFFFFFFFFFFFFFFFFFFFFFFFFFFFF70
:10109000FFFFFFFFFFFFFFFFFFFFFFFFFFFFFFFF60
:1010A000FFFFFFFFFFFFFFFFFFFFFFFFFFFFFFFF50
:1010B000FFFFFFFFFFFFFFFFFFFFFFFFFFFFFFFF40
:1010C000FFFFFFFFFFFFFFFFFFFFFFFFFFFFFFFF30
:1010D000FFFFFFFFFFFF0000000000000000000016
:1010E0000000000000000000000000000000000000
:1010F00000000000000000000000000000000000F0
:1011000000000000000000000000000000000000DF
:1011100000000000000000000000000000000000CF
:1011200000000000000000000000000000000000BF
:1011300000000000000000000000000000000000AF
:10114000000000000000000000000000000000009F
:10115000000000000000000000000000000000008F
:10116000000000000000000000000000000000007F
:10117000000000000000000000000000000000006F
:10118000000000000000000000000000000000005F
:10119000000000000000000000000000000000004F
:1011A000000000000000000000000000000000003F
:1011B000000000000000000000000000000000002F
:1011C000000000000000000000000000000000001F
:1011D000000000000000FFFFFFFFFFFFFFFFFFFF19
:1011E000FFFFFFFFFFFFFFFFFFFFFFFFFFFFFFFF0F
:1011F000FFFFFFFFFFFFFFFFFFFFFFFFFFFFFFFFFF
:10120000FFFFFFFFFFFFFFFFFFFFFFFFFFFFFFFFEE
:10121000FFFFFFFFFFFFFFFFFFFFFFFFFFFFFFFFDE
:10122000FFFFFFFFFFFFFFFFFFFFFFFFFFFFFFFFCE
:10123000FFFFFFFFFFFFFFFFFFFFFFFFFFFFFFFFBE
:10124000FFFFFFFFFFFFFFFFFFFFFFFFFFFFFFFFAE
:10125000FFFFFFFFFFFFFFFFFFFFFFFFFFFFFFFF9E
:10126000FFFFFFFFFFFFFFFFFFFFFFFFFFFFFFFF8E
:10127000FFFFFFFFFFFFFFFFFFFFFFFFFFFFFFFF7E
:10128000FFFFFFFFFFFFFFFFFFFFFFFFFFFFFFFF6E
:10129000FFFFFFFFFFFFFFFFFFFFFFFFFFFFFFFF5E
:1012A000FFFFFFFFFFFFFFFFFFFFFFFFFFFFFFFF4E
:1012B000FFFFFFFFFFFFFFFFFFFFFFFFFFFFFFFF3E
:1012C000FFFFFFFFFFFFFFFFFFFFFFFFFFFFFFFF2E
:1012D000FFFFFFFFFFFF00081018202830384048AC
:1012E00050586068707880889098A0A8B0B8C0C83E
:1012F000D0D8E0E8F0E8E0D8D0C8C0B8B0A8A0984E
:10130000908880787068605850484038302820189D
:1013100010080008101820283038404850586068DD
:10132000707880889098A0A8B0B8C0C8D0D8E0E8FD
:10133000F0E8E0D8D0C8C0B8B0A8A098908880786D
:10134000706860585048403830282018100800084D
:1013500010182028303840485058606870788088CD
:101360009098A0A8B0B8C0C8D0D8E0E8F0E8E0D81D
:10137000D0C8C0B8B0A8A09890888078706860582D
:10138000504840383028201810080008101820282D
:101390003038404850586068707880889098A0A88D
:1013A000B0B8C0C8D0D8E0E8F0E8E0D8D0C8C0B83D
:1013B000B0A8A098908880787068605850484038ED
:1013C0003028201810080020406080A0C0E0FFDF17
:1013D000BF9F7F5F3F3F0080800000808000808053
:1013E0000000808000FFFF0000FFFF008080000001
:1013F00080800080800000808000FFFF0000FFFFF1
:1014000000FFFF0000FFFF00FFFF0000FFFF008064
:1014100080000080800080800000808000FFFF004E
:1014200000FFFF008080000080800080800000803E
:101430008000FFFF0000FFFF00FFFF0000FFFF0034
:10144000FFFF0000FFFF00808000008080008080A0
:101450000000808000FFFF0000FFFF008080000090
:1014600080800080800000808000FFFF0000FFFF80
:1014700000FFFF0000FFFF00FFFF0000FFFF0080F4
:1014800080000080800080800000808000FFFF00DE
:1014900000FFFF00808000008080008080000080CE
:1014A0008000FFFF0000FFFF00FFFF0000FFFF00C4
:1014B000FFFF0000FFFF00404000004040004040B0
:1014C0000000404000FFFF0000FFFF004040000020
:1014D000404000FF0000E40FF66E140EF7220900F2
:1014E000F5501200000000000000000000000000A5
:1014F00000000000000000000000000000000000EC
:1015000000000000000000000000000000000000DB
:1015100000000000000000000000000000000000CB
:1015200000000000000000000000000000000000BB
:1015300000000000000000000000000000000000AB
:10154000000000000000000000000000000000009B
:10155000000000000000000000000000000000008B
:10156000000000000000000000000000000000007B
:10157000000000000000000000000000000000006B
:10158000000000000000000000000000000000005B
:10159000000000000000000000000000000000004B
:1015A000000000000000000000000000000000003B
:1015B000000000000000000000000000000000002B
:1015C000000000000000000000000000000000001B
:1015D000000000000000000000000000000000000B
:1015E00000000000000000000000000000000000FB
:1015F00000000000000000000005090E13171C2168
:10160000252A2F33383D41464B4F545555504C47B2
:10161000423E3934302B26221D18140F0A060100D1
:1016200000000000000000000000000000000000BA
:1016300000000000000000000005090E13171C2127
:10164000252A2F33383D41464B4F545555504C4772
:10165000423E3934302B26221D18140F0A06010091
:10166000000000000000000000000000000000007A
:1016700000000000000000000005090E13171C21E7
:10168000252A2F33383D41464B4F545555504C4732
:10169000423E3934302B26221D18140F0A06010051
:1016A000000000000000000000000000000000003A
:1016B00000000000000000000005090E13171C21A7
:1016C000252A2F33383D41464B4F545555504C47F2
:1016D000423E3934302B26221D18140F0A06010011
:1016E00000000000000000000000000000000000FA
:1016F00000000000000000000000000000000000EA
:1017000000000000000000000000000000000000D9
:1017100000000000000000000000000000000000C9
:1017200000000000000000000000000000000000B9
:1017300000000000000000000000000000000000A9
:101740000000000000000000000000000000000099
:101750000000000000000000000000000000000089
:101760000000000003090F151B21272D33393F45C9
:101770004B51575D63696F757B81878D93999FA5E9
:10178000ABB1B7BDC3C9CFD5DBE1E7EDF3F9FFF9E5
:10179000F3EDE7E1DBD5CFC9C3BDB7B1ABA59F99E9
:1017A000938D87817B756F69635D57514B453F39D9
:1017B000332D27211B150F09030000000000000036
:1017C0000000000000000000000000000000000019
:1017D0000000000000000000000000000000000009
:1017E00000000000000000000000000000000000F9
:1017F00000000000000000000000000000000000E9
:1018000000000000000000000000000000000000D8
:1018100000000000000000000000000000000000C8
:1018200000000000000000000000000000000000B8
:1018300000000000000000000306090C0F1215183C
:101840001B1E2124272A2D303336393C3F42454880
:101850004B4E5154575A5D606366696C6F72757870
:101860007B7E8184878A8D909396999C9FA2A5A860
:10187000ABAEB1B4B7BABDC0C3C6C9CCCFD2D5D850
:10188000DBDEE1E4E7EAEDF0F3F6F9FCFFFCF9F664
:10189000F3F0EDEAE7E4E1DEDBD8D5D2CFCCC9C680
:1018A000C3C0BDBAB7B4B1AEABA8A5A29F9C999670
:1018B00093908D8A8784817E7B7875726F6C696660
:1018C00063605D5A5754514E4B4845423F3C393650
:1018D00033302D2A2724211E1B1815120F0C090640
:1018E00003000000000000000000000000000000F5
:1018F00000000000000000000000000000000000E8
:1019000000000000000000000000000000000000D7
:1019100000000000000000000000000000000000C7
:1019200000000000000000000000000000000000B7
:1019300000000000000000000000000000000000A7
:101940000000000000000000000000000000000097
:101950000000000000000000000000000000000087
:101960000000000000000000000000000000000077
:101970000000000000000000000000000000000067
:101980000000000000000000000000000000000057
:101990000000000000000000000000000000000047
:1019A0000000000000000000000000000000000037
:1019B0000000000000000000000000000000000027
:1019C0000000000000000000000000000000000017
:1019D0000000000000000000000000000000000007
:1019E00000000000000000000000000000000000F7
:1019F00000000000000000000000000000000000E7
:101A000000000000000000000000000000000000D6
:101A100000000000000000000000000000000000C6
:101A200000000000000000000000000000000000B6
:101A300000000000000000000000000000000000A6
:101A40000000000000000000000000000000000096
:101A50000000000000000000000000000000000086
:101A60000000000000000000000000000000000076
:101A70000000000000000000000000000000000066
:101A80000000000000000000000000000000000056
:101A90000000000000000000000000000000000046
:101AA0000000000000000000000000000000000036
:101AB0000000000000000000000000000000000026
:101AC0000000000000000000000000000000000016
:101AD0000000000000000000000000000000000006
:101AE00000000000FFFFFFFFFFFFFFFFFFFFFFFF02
:101AF000FFFFFFFFFFFFFFFFFFFFFFFFFFFFFFFFF6
:101B0000FFFFFFFFFFFFFFFFFFFFFFFFFFFFFFFFE5
:101B1000FFFFFFFFFFFFFFFFFFFFFFFFFFFFFFFFD5
:101B2000FFFFFFFFFFFFFFFFFFFFFFFFFFFFFFFFC5
:101B3000FFFFFFFFFFFFFFFFFFFFFFFFFFFFFFFFB5
:101B4000FFFFFFFFFFFFFFFFFFFFFFFFFFFFFFFFA5
:101B5000FFFFFFFFFFFFFFFFFFFFFFFFFFFFFFFF95
:101B6000FFFFFFFFFFFFFFFFFFFFFFFFFFFFFFFF85
:101B7000FFFFFFFFFFFFFFFFFFFFFFFFFFFFFFFF75
:101B8000FFFFFFFFFFFFFFFFFFFFFFFFFFFFFFFF65
:101B9000FFFFFFFFFFFFFFFFFFFFFFFFFFFFFFFF55
:101BA000FFFFFFFFFFFFFFFFFFFFFFFFFFFFFFFF45
:101BB000FFFFFFFFFFFFFFFFFFFFFFFFFFFFFFFF35
:101BC000FFFFFFFFFFFFFFFFFFFFFFFFFFFFFFFF25
:101BD000FFFFFFFFFFFFFFFFFFFFFFFFFFFFFFFF15
:101BE000FFFFFFFFFFFFFFFFFFFFFFFFFFFFFFFF05
:101BF000FFFFFFFFFFFFFFFFFFFFFFFFFFFFFFFFF5
:101C0000FFFFFFFFFFFFFFFFFFFFFFFFFFFFFFFFE4
:101C1000FFFFFFFFFFFFFFFFFFFFFFFFFFFFFFFFD4
:101C2000FFFFFFFFFFFFFFFFFFFFFFFFFFFFFFFFC4
:101C3000FFFFFFFFFFFFFFFFFFFFFFFFFFFFFFFFB4
:101C4000FFFFFFFFFFFFFFFFFFFFFFFFFFFFFFFFA4
:101C5000FFFFFFFFFFFFFFFFFFFFFFFFFFFFFFFF94
:101C6000FFFFFFFFFFFFFFFFFFFFFFFFFFFFFFFF84
:101C7000FFFFFFFFFFFFFFFFFFFFFFFFFFFFFFFF74
:101C8000FFFFFFFFFFFFFFFFFFFFFFFFFFFFFFFF64
:101C9000FFFFFFFFFFFFFFFFFFFFFFFFFFFFFFFF54
:101CA000FFFFFFFFFFFFFFFFFFFFFFFFFFFFFFFF44
:101CB000FFFFFFFFFFFFFFFFFFFFFFFFFFFFFFFF34
:101CC000FFFFFFFFFFFFFFFFFFFFFFFFFFFFFFFF24
:101CD000FFFFFFFFFFFFFFFFFFFFFFFFFFFFFFFF14
:101CE000FFFFFFFF000810182028303840485058E8
:101CF0006068707880889098A0A8B0B8C0C8D0D824
:101D0000E0E8F0E8E0D8D0C8C0B8B0A8A0989088C3
:101D10008078706860585048403830282018100883
:101D200000081018202830384048505860687078F3
:101D300080889098A0A8B0B8C0C8D0D8E0E8F0E8F3
:101D4000E0D8D0C8C0B8B0A8A09890888078706853
:101D500060585048403830282018100800081018E3
:101D600020283038404850586068707880889098B3
:101D7000A0A8B0B8C0C8D0D8E0E8F0E8E0D8D0C893
:101D8000C0B8B0A8A0989088807870686058504813
:101D90004038302820181008000810182028303843
:101DA000404850586068707880889098A0A8B0B873
:101DB000C0C8D0D8E0E8F0E8E0D8D0C8C0B8B0A833
:101DC000A0989088807870686058504840383028D3
:101DD000201810080020406080A0C0E0FFDFBF9FF7
:101DE0007F5F3F3F00000080808080000000FFFF99
:101DF000FFFF0000008080808000000080808080E5
:101E0000000000FFFFFFFF000000808080800000D6
:101E100000FFFFFFFF000000FFFFFFFF000000804A
:101E2000808080000000FFFFFFFF000000808080B6
:101E30008000000080808080000000FFFFFFFF0026
:101E4000000080808080000000FFFFFFFF00000096
:101E5000FFFFFFFF00000080808080000000FFFF88
:101E6000FFFF000000808080800000008080808074
:101E7000000000FFFFFFFF00000080808080000066
:101E800000FFFFFFFF000000FFFFFFFF00000080DA
:101E9000808080000000FFFFFFFF00000080808046
:101EA0008000000080808080000000FFFFFFFF00B6
:101EB000000080808080000000FFFFFFFF00000026
:101EC000FFFFFFFF00000040404040000000FFFF18
:101ED000FFFF000000404040400000004040404004
:101EE0000000FFFFF20FF66E1E0EF7220900F550FC
:101EF0001200000000000000004F00000007000773
:101F000000147F147F14242A7F2A1223130864628A
:101F100036495522500005030000001C22410000F4
:101F200041221C0014083E081408083E080800500E
:101F30003000000808080808006060000020100851
:101F400004023E5149453E00427F400042615149F2
:101F5000462141454B311814127F1027454545391C
:101F60003C4A494930017109050336494949360659
:101F70004949291E00363600000056360000081474
:101F800022410014141414140041221408020151B7
:101F90000906324979413E7E1111117E7F49494936
:101FA000363E414141227F4141221C7F49494941FE
:101FB0007F090909013E4149497A7F0808087F00E5
:101FC000417F41002040413F017F081422417F4072
:101FD0004040407F020C027F7F0408107F3E414159
:101FE000413E7F090909063E4151215E7F091929B9
:101FF00046464949493101017F01013F4040403F88
:102000001F2040201F3F4038403F631408146307DF
:10201000087008076151494543007F4141000204AF
:102020000810200041417F000402010204404040AA
:102030004040000102040020545454787F48444436
:10204000383844444420384444487F385454541861
:10205000087E0901020C5252523E7F0804047800A7
:10206000447D40002040443D007F10284400004152
:102070007F40007C041804787C08040478384444C9
:1020800044387C14141408081414187C7C080404C4
:10209000084854545420043F4440203C4040207C95
:1020A0001C2040201C3C4030403C44281028440C5C
:1020B0005050503C4464544C4400083641000000E9
:1020C0007F0000004136080008082A1C08081C2A66
:1020D00008080402FF02042040FF40202C32023294
:1020E0002C443C047C44635549414114147C141233
:1020F000443C1414747C141C147C10105410107F75
:102100007F7F7F7F05057D0505728D8A8810444499
:102110005F444400000000000000000000000000D8
:1021200000000000000000000000000000000000AF
:10213000000000000000000000000000000000009F
:10214000000000000000000000000000000000008F
:10215000000000000000000000000000000000007F
:10216000000000000000000000000000000000006F
:1021700000000000000000705070000000000F011F
:1021800001404078000010204000000018180000B6
:102190000A0A4A2A1E042434140C20107804001859
:1021A000084C483848487848484828187C08087C33
:1021B00008281840484878405454547C0018005867
:1021C0004038080808080801413D090720107C0232
:1021D000010E0243221E42427E424222120A7F0226
:1021E000423F02423E0A0A7F0A0A084642221E0471
:1021F00003423E04424242427E024F221F024A4AAA
:1022000040201C4222122A46023F424A46064840CB
:10221000201E08464A321E0A4A3E09080E004E2079
:102220001E04453D0504007F08100044241F0404DB
:102230004042424240422A122A0622127B162200C3
:1022400040201F0078000204783F44444444024286
:1022500042221E040204083032027F02320212229D
:10226000520E002A2A2A40382422207040281028A2
:10227000060A3E4A4A4A047F04140C4042427E4009
:102280004A4A4A4A7E040545251C0F40201F007C0F
:10229000007E80307E402010087E4242427E0E0248
:1022A00042221E4242402018020401020007050794
:1022B0000000C00FF66E220EF7220900F550120042
:1022C000008C02222222DC0020FF200000000000FF
:1022D000000000000000000000000020702000004E
:1022E00000000000000000000000000000000000EE
:1022F000000000000020702000000000000000002E
:102300000000000000000000000083C3E3331F0F43
:10231000070000FFFFFF333333330080FCFFFFC7AC
:10232000FFFFFC8000030303FFFFFF03030300FF25
:10233000FFFF333333330000FCFEFF0303C7C684C3
:10234000000102020202010020FF20000000000044
:10235000000000000000000000000000000000007D
:10236000000000000000000000000000000000006D
:10237000000000000000000000000000000000005D
:10238000000000000000000000000303030303033B
:102390000300C0630303030303030083434340803C
:1023A00000C3434340404000639393608040202338
:1023B000234383030303000000010303030301001D
:1023C0000018048242221C0020FF200000000000B0
:1023D000000000000000000000000020702000004D
:1023E00000000000000000000000000000000000ED
:1023F000000000000020702000000000000000002D
:10240000000000000000000000000000000080E06C
:10241000782F010000000000000043605048444352
:102420000027424242241800000000001F204040C4
:102430004020190000000000000000000000000023
:10244000000203020202020020FF20000000000040
:10245000000000000000000000000000000000007C
:10246000000000000000000000000000000000006C
:10247000000000000000000000000000000000005C
:102480000000000000000000000080E0380E0300A3
:1024900000000000000000000000300888888870FC
:1024A0000000806018F800007088F040B00800005C
:1024B000000000000000000000000000000000001C
:1024C00000000404FE00000020FF200000000000C7
:1024D000000080C040203010080808247422020246
:1024E00002020404040C0818102040C08000000000
:1024F000000000000020702000000000000000002C
:1025000000000000008040201806030000000020AA
:1025100070200000000000000000060808080807FE
:1025200000030202020F020008060107080700006C
:10253000000000000000000000000000000000009B
:10254000000000000300000020FF20C060301806DB
:102550000201010000000000000000000000000077
:102560000000000000000000000000000001020266
:102570000408081010202040404040202020101067
:10258000080C040201000000000000000000000030
:1025900000000000000000000000000202FF000038
:1025A000000C824121110E007C820101827C00F826
:1025B000100808F0100808F000C0704E414E70C0BE
:1025C00000F804020204F800203F202020202020F0
:1025D000202020202020202020A02020702020A0AB
:1025E000A02020202020202020202020202020206B
:1025F0002020A0A0A020702020A0A020202020200B
:102600002020202020202020202020A0A0A0A020CA
:10261000702020A0A02020000000C02090919020D9
:102620000011111111D13100E010111110E00081E1
:102630000000000180000081808100000000000196
:102640000000010202010000000000000000000084
:10265000000000000000000101FF0000003E41807A
:1026600080413E000000000000000000000000006B
:1026700086C1A0908887003E418080413E000000D6
:102680000000000000000000000063808888887758
:10269000003E418080413E00000007091010100FED
:1026A00000000018070000000E111111110E000F9C
:1026B000101010081F000912141409000000000077
:1026C0004D4F44453A55617274202020202020202F
:1026D000202530346C75256300002D2D2D2D2D2DDA
:1026E0002D2D2D2D2D2D2D2D2D2D2D2D2D2D2D2D1A
:1026F000000075617274312076616C75653D25301E
:1027000033752020202020202D004D4F44453A5382
:102710006572766F284F55543A4137292530336C0E
:10272000752563002D2D2D2D2D2D2D2D2D2D2D2D90
:102730002D2D2D2D2D2D2D2D2D2D000025303163EE
:10274000416E676C65203D2025303375202530347F
:102750006C75757320202D002530316354617267CC
:102760006574416E676C65203D20253033752020EF
:10277000202D00002530316353746570416E676C05
:1027800065203D202530337520202020202D00009D
:10279000253031635475726E203D20004F4646202F
:1027A0002020202020202020202D000025303163F3
:1027B000205B4F726967696E5D2054617267657452
:1027C000202020202D002530316320204F726967A2
:1027D000696E205B5461726765745D2020202D0056
:1027E0004F4E20202020202020202020202D0000BF
:1027F00025303163205B53746F705D2053746172B8
:1028000074202020202020202D002530316320201E
:1028100053746F70205B53746172745D20202020AC
:1028200020202D003C456E7465723E20746F206E32
:102830006578742E2020202020202D004D4F444507
:102840003A54656D702652482020202020253034CF
:102850006C75256300002D2D2D2D2D2D2D2D2D2D4D
:102860002D2D2D2D2D2D2D2D2D2D2D2D00002042EA
:102870004D453238302020202020414D3233323037
:102880002020202D000020414D32333232202020E4
:1028900020202020202020202020202D000020206B
:1028A0002020202020202020202020202020202028
:1028B0002020202D0000202020202020202020204B
:1028C00020202020202020202020202D000020203B
:1028D00020536F7272792E2020202020202020206B
:1028E0002020202D0000202020696E20707265704D
:1028F00061726174696F6E2E2020202D00004D4F93
:1029000044453A4952202020202020202020202504
:1029100030346C75256300002D2D2D2D2D2D2D2D82
:102920002D2D2D2D2D2D2D2D2D2D2D2D2D2D000031
:102930002020202020202020202020202020202097
:1029400020202020202D00002020202020202020BA
:10295000202020202020202020202020202D0000AA
:102960002020202020202020202020202020202067
:1029700020202020202D000020202020202020208A
:10298000202020202020202020202020202D00007A
:10299000202020536F7272792E20202020202020AA
:1029A00020202020202D0000202020696E20707221
:1029B000657061726174696F6E2E2020202D000099
:1029C0004D4F44453A5246494420202020202020A3
:1029D000202530346C75256300002D2D2D2D2D2DD7
:1029E0002D2D2D2D2D2D2D2D2D2D2D2D2D2D2D2D17
:1029F0000000202020202020202020202020202017
:102A0000202020202020202D0000202020202020F9
:102A10002020202020202020202020202020202DA9
:102A200000002020202020202020202020202020E6
:102A3000202020202020202D0000202020202020C9
:102A40002020202020202020202020202020202D79
:102A50000000202020536F7272792E202020202029
:102A6000202020202020202D0000202020696E2002
:102A70007072657061726174696F6E2E2020202DF6
:102A800000004D4F44453A4D503320202020202057
:102A90002020202530346C75256300002D2D2D2D30
:102AA0002D2D2D2D2D2D2D2D2D2D2D2D2D2D2D2D56
:102AB0002D2D0000204B5434303341202020202085
:102AC0002020202020202020202D00002020202039
:102AD00020202020202020202020202020202020F6
:102AE000202D000020202020202020202020202019
:102AF0002020202020202020202D00002020202009
:102B000020202020202020202020202020202020C5
:102B1000202D0000202020536F7272792E2020205B
:102B20002020202020202020202D0000202020698F
:102B30006E207072657061726174696F6E2E2020F4
:102B4000202D00004D4F44453A4D6F74696F6E2043
:102B5000202020202530346C752563002D2D2D2D4F
:102B60002D2D2D2D2D2D2D2D2D2D2D2D2D2D2D2D95
:102B70002D2D000020424D583035352020202020BA
:102B80002020202020202020202D00002020202078
:102B90002020202020202020202020202020202035
:102BA000202D000020202020202020202020202058
:102BB0002020202020202020202D00002020202048
:102BC0002020202020202020202020202020202005
:102BD000202D0000202020536F7272792E2020209B
:102BE0002020202020202020202D000020202069CF
:102BF0006E207072657061726174696F6E2E202034
:102C0000202D00004D4F44453A4C434420457272FC
:102C10006F722020202530346C75256300002D2D27
:102C20002D2D2D2D2D2D2D2D2D2D2D2D2D2D2D2DD4
:102C30002D2D2D2D000020637572736F725F696EEC
:102C40006465783D2530336C75202020202D0000F0
:102C50002020202020202020202020202020202074
:102C600020202020202D0000202020202020202097
:102C7000202020202020202020202020202D000087
:102C80002020202020202020202020202020202044
:102C900020202020202D0000202020536F727279E8
:102CA0002E2020202020202020202020202D000049
:102CB000202020696E207072657061726174696F86
:102CC0006E2E2020202D00004D4F44453A4F706558
:102CD0006E696E672020202020202530336C7525FA
:102CE000303163002D2D2D2D2D2D2D2D2D2D2D2D04
:102CF0002D2D2D2D2D2D2D2D2D2D0000546869737A
:102D00002073686F77206E6578742074696D653FF5
:102D1000202D0000202020202020202020202020E6
:102D20002530316359657320253031634E6F202D76
:102D300000002020202020202020202020202020D3
:102D4000202020202020202D000020486F77207494
:102D50006F2075736520627574746F6E2E20202D40
:102D60000000456E7465722043616E63656C20558A
:102D70007020446F776E202D0000253031632020B5
:102D800020202025303163202020202020253031B4
:102D900063202020202530316320202D00004D4F5E
:102DA00044453A4D6F646553656C7363742020200D
:102DB0002530336C7525303163002D2D2D2D2D2DB3
:102DC0002D2D2D2D2D2D2D2D2D2D2D2D2D2D2D2D33
:102DD00000002530316348617264496E666F2025BA
:102DE000303163525443202020202020202D000029
:102DF00025303163494F20202020202020253031EC
:102E000063536572766F20202020202D000025302E
:102E10003163554152542020202020253031634910
:102E20006C6C756D694C4544202D00002530316374
:102E30004772617068696320202530316354656D85
:102E4000702652482020202D00003C43414E53451F
:102E50004C3E4261636B20746F2020202020202D87
:102E600000002020202074686973206D6F64652045
:102E700073656C6563742E2D00004D4F44453A4DCB
:102E80006F646553656C7363742020202530336C48
:102E90007525303163002D2D2D2D2D2D2D2D2D2D12
:102EA0002D2D2D2D2D2D2D2D2D2D2D2D00002530B1
:102EB0003163495220202020202020202020202063
:102EC0002020202020202D00253031635246494407
:102ED00020202020202020202020202020202020F2
:102EE0002D00253031634D5033202020202020201C
:102EF000202020202020202020202D00253031637C
:102F00004D6F74696F6E202020202020202020200B
:102F1000202020202D003C43414E53454C3E426131
:102F2000636B20746F2020202020202D00002020A3
:102F3000202074686973206D6F64652073656C650B
:102F400063742E2D00004D4F44453A4861726477FA
:102F5000617265496E666F202530336C752563009C
:102F60002D2D2D2D2D2D2D2D2D2D2D2D2D2D2D2D91
:102F70002D2D2D2D2D2D00004350553D4D69637293
:102F80006F6368697020202020202020202D000001
:102F90002020202050494331384634364B323220ED
:102FA00020202020202D00004C43443D544F5057FA
:102FB0004159204C4D36303239534357202D0000B3
:102FC000566F6C746167653A332E3356202020208B
:102FD00020202020202D0000446F743A31323878B0
:102FE000363420546578743A32317838202D000018
:102FF00020202020202020202020202020202025CC
:103000003031634E455854202D004D4F44453A48C9
:1030100061726477617265496E666F202530336C2A
:10302000752563002D2D2D2D2D2D2D2D2D2D2D2D87
:103030002D2D2D2D2D2D2D2D2D2D000050726F6439
:10304000756365723D5A4541544543202020202038
:10305000202D000054656D706C61746520736F667F
:103060007477617265202020202D00002020202010
:10307000205665723D25732D000020202020202041
:10308000202025303163476F746F204F70656E6963
:103090006E672D00506C6561736520736F66747781
:1030A0006172652020202020202D0000202020207B
:1030B00020202075736520697420667265656C79BF
:1030C000212D00004D4F44453A494F20202020201B
:1030D00020202020202530346C75256300002D2D04
:1030E0002D2D2D2D2D2D2D2D2D2D2D2D2D2D2D2D10
:1030F0002D2D2D2D000049A54F207261372D303D1B
:1031000025303175253031752530317525303175D3
:103110002C2530317525303175253031752530310C
:10312000752020202D004F5554207262352D303DE2
:1031300025303175253031752530317525303175A3
:10314000253031752530317520202020202D0000BC
:10315000414E207265312D303D2530346C752C2563
:1031600030346C752020202D0000202020202020CD
:103170002020202020202020202020202020202D42
:10318000000020202020202020202020202020207F
:10319000202020202020202D000020202020202062
:1031A0002020202020202020202020202020202D12
:1031B00000004D4F44453A496C6C756D694C45446F
:1031C000202020202530336C752563002D2D2D2DDA
:1031D0002D2D2D2D2D2D2D2D2D2D2D2D2D2D2D2D1F
:1031E0002D2D000025303163575332383132622C97
:1031F00032383131284F55543A4136292D0020209C
:1032000020202020202020202020202020202020BE
:103210002020202D000020202020202020202020E1
:1032200020202020202020202020202D00002020D1
:10323000202020202020202020202020202020208E
:103240002020202D000020202020202020202020B1
:1032500020202020202020202020202D00002020A1
:10326000202020202020202020202020202020205E
:103270002020202D00004D4F44453A57533238311D
:1032800032622C32383131202530336C75256300A1
:103290002D2D2D2D2D2D2D2D2D2D2D2D2D2D2D2D5E
:1032A0002D2D2D2D2D2D0000206C65645F76616C19
:1032B00075653D2530336C75202020202020202D81
:1032C000000025303163636F6C6F725F7365743D0E
:1032D0002530327520202020202020202D00253070
:1032E00031636D6F64655F7365743D2530327520A1
:1032F00020202020202020202D00253031637370D5
:103300006565643D25303275202020202020202056
:10331000202020202D00253031637369676E616C99
:10332000747970653D2530327520202020202020C2
:103330002D002530316374696D696E673D2530322B
:103340007520202020202020202020202D004D4FDF
:1033500044453A575332383132622C3238313120B9
:103360002530336C752563002D2D2D2D2D2D2D2D04
:103370002D2D2D2D2D2D2D2D2D2D2D2D2D2D0000D7
:10338000253031636272696768746E6573733D25B9
:103390003033752020202020202D000020202020E8
:1033A000202020202020202020202020202020201D
:1033B000202D000020202020202020202020202040
:1033C0002020202020202020202D00002020202030
:1033D00020202020202020202020202020202020ED
:1033E000202D000020202020202020202020202010
:1033F0002020202020202020202D00002020202000
:1034000020202020202020202020202020202020BC
:10341000202D00004D4F44453A525443285258380D
:103420003930302920202530336C75256300416404
:10343000643A572F523D307836342F307836352065
:103440002020202D0000444154453A3230253032AE
:10345000782F253032782F253032782000005449DB
:103460004D453A253032783A253032783A25303297
:103470007820202020202020202D00002020202027
:10348000202020202020202020202020202020203C
:10349000202D00003C456E7465723E20746F2054F0
:1034A000696D65456469742E202D000044415445C2
:1034B0003A202020202F253032782F2530327820D6
:1034C0000000444154453A3230253032782F2530BF
:1034D00032782F2530327820000054494D453A2566
:1034E0003032783A253032783A2530327820202030
:1034F00020202020202D00002020202020202020FF
:10350000202020202020202020202020202D0000EE
:103510003C456E7465723E20746F204E6578742E43
:1035200020202020202D0000444154453A323025EF
:103530003032782F20202F2530327820000044416F
:1035400054453A3230253032782F253032782F25C5
:1035500030327820000054494D453A253032783ACF
:10356000253032783A253032782020202020202043
:10357000202D00002020202020202020202020207E
:103580002020202020202020202D00003C456E748B
:1035900065723E20746F204E6578742E20202020A6
:1035A000202D0000444154453A3230253032782FE6
:1035B000253032782F2020200000444154453A32F3
:1035C00030253032782F253032782F253032782050
:1035D000000054494D453A253032783A253032784A
:1035E0003A2530327820202020202020202D000075
:1035F00020202020202020202020202020202020CB
:1036000020202020202D00003C456E7465723E2055
:10361000746F204E6578742E20202020202D00000D
:10362000444154453A3230253032782F25303278B3
:103630002F2530327820000020202020202D00006F
:1036400054494D453A253032783A253032783A257A
:1036500030327820202020202020202D0000202023
:10366000202020202020202020202020202020205A
:103670002020202D00003C456E7465723E20746F42
:10368000204E6578742E20202020202D00004441FB
:1036900054453A3230253032782F253032782F2574
:1036A00030327820000054494D453A20203A2530E8
:1036B00032783A2530327820202020202020202DFA
:1036C000000054494D453A253032783A2530327859
:1036D0003A2530327820202020202020202D000084
:1036E00020202020202020202020202020202020DA
:1036F00020202020202D00003C456E7465723E2065
:10370000746F204E6578742E20202020202D00001C
:10371000444154453A3230253032782F25303278C2
:103720002F2530327820000054494D453A2530325B
:10373000783A20203A25303278202020202020207E
:10374000202D000054494D453A253032783A253035
:1037500032783A2530327820202020202020202D59
:103760000000202020202020202020202020202099
:10377000202020202020202D00003C456E74657202
:103780003E20746F204E6578742E20202020202D3E
:103790000000444154453A3230253032782F2530EC
:1037A00032782F2530327820000054494D453A2593
:1037B0003032783A253032783A20202020202020DC
:1037C0002020202D000054494D453A253032783ACA
:1037D000253032783A2530327820202020202020D1
:1037E000202D00002020202020202020202020200C
:1037F0002020202020202020202D00003C456E7419
:1038000065723E20746F204E6578742E2020202033
:10381000202D0000536176653F20202020202020AD
:103820002020202020202020202D00003C456E74E8
:1038300065723E206F72203C43616E63656C3E2072
:10384000202D0000202020202020202020202020AB
:103850002020202020202020202D0000202020209B
:103860002020202020202020202020202020202058
:10387000202D00009EAAFED7ABCF1FF0AECF01F0E7
:103880001FA202D0AB98AB8854EF1CF09EAA23D0A5
:10389000036A6651670FE96E000E0320EA6EEACFF5
:1038A0005CF4E9CF5BF4E6D75CC4EAFF5BC4E9FFF4
:1038B00001C0EFFF036A6651670FE96E000E032037
:1038C000EA6EEFCF59F4040159519EA8FED7AD6EB0
:1038D0000001662BDBD79E9A36EF00F020C1D7FFA0
:1038E0001FC1D6FF2E5202E0000E01D0010E2E6E37
:1038F000010E2F6E0101156F406E416E3E2A3E2C67
:1039000001D0422A435213E1C282C2B2FED704015F
:10391000D890C334566EC434576E010E436E180EE1
:10392000016EC250830B0110C26E13D00101432CF3
:1039300011D0C282C2B2FED70401D890C334586EEF
:10394000C434596E436A140E016EC250830B0110C9
:10395000C26E0101375203E13650090810E2376A9E
:10396000366A305202E0000E01D0010E306E010EB8
:10397000316E2151030802E1216B01D0212B362A3F
:10398000D8B4372A395203E1385031080AE2396A8B
:10399000386A325202E0000E01D0010E326E010E82
:1039A000336E382AD8B4392A3B5203E13A506308BF
:1039B0000BE23B6A3A6A345202E0000E01D0010E7B
:1039C000346E010E356E3F6E3A2AD8B43B2A3C2A3B
:1039D000D8B43D2AF294000136EF00F05A542D2A53
:1039E0002A2A2A2D534F4654205665722E302E39DE
:1039F000302055415254310D0A00616E616C6F6781
:103A00005F76616C75653D2530346C646D560D0ACA
:103A100000007261313D25640D0A0000040154511B
:103A20005603F3CF01F0F4CF00F05703F350002614
:103A300055515603F3500020026E000112008E0E05
:103A4000006E4CC401F04BC402F0036A015209E15C
:103A500002C001F0026A080E005E015202E1006A33
:103A600008D0D89001BE04D0023601360006F9D73E
:103A7000019E120004014B51D8B471D0006E4F5119
:103A8000D8B46DD0002604E3810E002668E204D08D
:103A90007F0E005E64E363E04CC453F45051531B4B
:103AA0004C8F508F4E515203F4CF55F44D5151036A
:103AB000F4CF03F0F3CF54F45203F3505527F450EE
:103AC0005423000E03224E515103F3505527F45056
:103AD0005423000E026A032202224C515203F35077
:103AE0005427F4500322000E02224C515103F3508C
:103AF0000326F4500222000E016A01224E515003A7
:103B0000F3505427F4500322000E022201224D519B
:103B10005003F3500326F4500222000E01224C51B0
:103B20005003F3500226F4500122002A01BE05D0B2
:103B300054370336023601360006000E54AF0AD061
:103B4000032A02220122015005E1025003E1035041
:103B500001E1002A53BF018E53AF019E04D0006AD9
:103B6000016A026A036A000112008E0E006E0401EF
:103B70004B51005E4CC402F04DC401F0028E005265
:103B800009E0D890025202E1015204E0023201320F
:103B9000002EF7D74CAF05D0011E021E012AD8B463
:103BA000022A000112000401436B426B436B426B1B
:103BB0004351385DD8A035D104E13751425DD8B0CA
:103BC00030D1340E4225E96E010E4321EA6E556B69
:103BD00041C454F4010E576F566B00011FDF02C041
:103BE00047F401C046F4040142510124016E4351DF
:103BF0000220036E015003C0F7FF00015DEC00F0EE
:103C00000401466F4C6B33C14BF4000118DF03C055
:103C10004EF402C04DF401C04CF400C04BF40A0E47
:103C20000401526FD70E516F230E506F780E4F6FF5
:103C3000000120DF00C047F401C048F402C049F48D
:103C400003C04AF404014C6B46C44BF40001F7DE98
:103C500003C04EF402C04DF401C04CF400C04BF45C
:103C60004AC452F449C451F448C450F447C44FF410
:103C700001DF03C04EF402C04DF401C04CF400C09B
:103C80004BF473DF01C0EFFF350E04014225E96EEE
:103C9000020E4321EA6E556B41C454F4010E576F76
:103CA000566B0001BBDE02C047F401C046F40401BC
:103CB00042510124016E43510220036E015003C0A2
:103CC000F7FF000164EC05F00401466F4C6B33C153
:103CD0004BF40001B4DE03C04EF402C04DF401C049
:103CE0004CF400C04BF40A0E0401526FD70E516F12
:103CF000230E506F780E4F6F0001BCDE00C047F4FA
:103D000001C048F402C049F403C04AF404014C6BFA
:103D100046C44BF4000193DE03C04EF402C04DF4E0
:103D200001C04CF400C04BF44AC452F449C451F4ED
:103D300048C450F447C44FF49DDE03C04EF402C0A3
:103D40004DF401C04CF400C04BF40FDF01C0EFFF95
:103D5000360E04014225E96E030E4321EA6E556BCF
:103D600041C454F4010E576F566B000157DE02C078
:103D700047F401C046F4040142510124016E43514D
:103D80000220036E015003C0F7FF00016BEC0AF044
:103D90000401466F4C6B33C14BF4000150DE03C08D
:103DA0004EF402C04DF401C04CF400C04BF40A0EB6
:103DB0000401526FD70E516F230E506F780E4F6F64
:103DC000000158DE00C047F401C048F402C049F4C5
:103DD00003C04AF404014C6B46C44BF400012FDECF
:103DE00003C04EF402C04DF401C04CF400C04BF4CB
:103DF0004AC452F449C451F448C450F447C44FF47F
:103E000039DE03C04EF402C04DF401C04CF400C0D2
:103E10004BF4ABDE01C0EFFF0401422BD8B4432BBF
:103E2000C7D600011200040EEA6E460EE96EEF508E
:103E30000EE0140E016E006A002EFED7012EFBD795
:103E4000BF0E006E002EFED700D0EF2EF2D712006C
:103E50008B929492956A4EC48CFF8B9094908B8039
:103E6000949012008B8494948B8294928B80949083
:103E70008B8494948B949494050E0401466F0001F6
:103E8000D2DF8B8494940F0E006E002EFED700D0EC
:103E9000AF0E04014E6F0001DBDF400E04014E6FD8
:103EA0000001D6DFA00E04014E6F0001D1DFA60E87
:103EB00004014E6F0001CCDFA40E04014E6F00011F
:103EC000C7DFA20E04014E6F0001C2DFC80E04015D
:103ED0004E6F0001BDDF2F0E04014E6F0001B8DFF1
:103EE000250E04014E6F0001B3DF810E04014E6FF9
:103EF0000001AEDF3CC44EF4ABDFA2EF20F0700E49
:103F0000D36E9B8C9B9E870ED56EF28A9D8AC00EC7
:103F1000F212D180FD0E0101206F8C0E1F6F20C1A7
:103F2000D7FF1FC1D6FFA00E0F01426FC050C00BBC
:103F30000709C06EC08EC280C150F00B0809C16E67
:103F4000000E386F030E3C6F000E396F3A6F3B6FF7
:103F50000F0E926E000E936E980E946E000E956E7C
:103F60009680968296949696D0500F0BD0A8000E0D
:103F7000D080D082D088D886D8882D6EF2CF3DF4FC
:103F8000F29EAA6AA96AA69CA69EA680A8500401D1
:103F90003DBFF28E0101126F116BF2CF3DF4F29E24
:103FA000AA6A010EA96EA69CA69EA680A85004012E
:103FB0003DBFF28E01011127000E1223113D06D0E4
:103FC000123D04D0020E126FBD0E116FF2CF3DF400
:103FD000F29EAA6A100EA96EA69CA69EA680A85064
:103FE00004013DBFF28E01012E6F2E3D02D0030E63
:103FF0002E6FF2CF3DF4F29EAA6A110EA96EA69C16
:10400000A69EA680A85004013DBFF28E01012F6F2D
:104010002F3D02D0010E2F6FF2CF3DF4F29EAA6A1F
:10402000120EA96EA69CA69EA680A85004013DBFB4
:10403000F28E0101306F303D02D0010E306FF2CFB1
:104040003DF4F29EAA6A130EA96EA69CA69EA680B7
:10405000A85004013DBFF28E0101316F313D01D006
:10406000316BF2CF3DF4F29EAA6A140EA96EA69CA3
:10407000A69EA680A85004013DBFF28E0101326FBA
:10408000323D01D0326BF2CF3DF4F29EAA6A150E9A
:10409000A96EA69CA69EA680A85004013DBFF28EE4
:1040A0000101336F333D02D00A0E336F115306E125
:1040B000125304E1146B010E136F41D011510A0821
:1040C00006E1125304E1146B010E136F38D0125342
:1040D00003E11151630809E2125307E11151C608C7
:1040E00004E3146B010E136F2AD01151580807E135
:1040F0001251020804E1146B010E136F20D011510C
:10410000BD080CE11251020809E1146B010E136F96
:104110002EC141F4000147DD13D001011151BE0849
:104120000CE11251020809E1146B060E136F2EC147
:1041300041F4000138DD04D00101146B136B000160
:10414000040090D671EF43F09280486A80A0482A1C
:1041500048C05AF09282496A80A2492A49C05CF05C
:1041600092844A6A80A44A2A4AC05EF092864B6AC8
:1041700080A64B2A4BC060F05A5203E1636B626B1E
:1041800016D05A2C09D0635307E16251630804E347
:10419000622BD8B4632B0BD05A2C09D0625164081F
:1041A00006E1635304E10101126B0A0E116F000175
:1041B00077EF43F00401446B0A0E436F42C444F4AA
:1041C00041C443F4AA6A010EA96E43C4A8FFA69C89
:1041D000A69EA684F250006EF29E0F01550EA76EA9
:1041E000AA0EA76EA682A6B2FED7A6940050F2121F
:1041F00044C443F40401446BAA6AA96A43C4A8FFF7
:10420000A69CA69EA684F250006EF29E0F01550E4B
:10421000A76EAA0EA76EA682A6B2FED7A6940050DD
:10422000F212000112000401436B426B456B446BB8
:10423000466B476B486B415302E1E2EF2EF0412D94
:1042400095D034C146F435C247F436C348F4436BC5
:10425000426B010E375D006E000E3859036E00C0D0
:1042600001F04351035C56E303E10150425D52E229
:10427000340E4225016E010E4321036E010E4225CC
:104280004B6F000E43214C6F340E4B25E96E010E2F
:104290004C21EA6EEFCF4DF403C0EAFF01C0E9FF05
:1042A0004DC4EFFF350E4225016E020E4321036E11
:1042B000010E42254B6F000E43214C6F350E4B25EE
:1042C000E96E020E4C21EA6EEFCF4DF403C0EAFF17
:1042D00001C0E9FF4DC4EFFF360E4225016E030E0B
:1042E0004321036E010E42254B6F000E43214C6F9C
:1042F000360E4B25E96E030E4C21EA6EEFCF4DF4DE
:1043000003C0EAFF01C0E9FF4DC4EFFF422BD8B460
:10431000432B9FD7010E375D496F000E38594A6F06
:10432000340E4925E96E010E4A21EA6E46C4EFFFBC
:10433000010E375D496F000E38594A6F350E492519
:10434000E96E020E4A21EA6E47C4EFFF010E375DA7
:10435000496F000E38594A6F360E4925E96E030E33
:104360004A21EA6E48C4EFFFE2EF2EF04151020805
:104370006FE138C443F437C442F4425302E143537B
:1043800047E0010E425D446F000E4359456F340E05
:104390004225016E010E4321036E340E4425E96E61
:1043A000010E4521EA6EEFCF4BF403C0EAFF01C0D6
:1043B000E9FF4BC4EFFF350E4225016E020E43218B
:1043C000036E350E4425E96E020E4521EA6EEFCFED
:1043D0004BF403C0EAFF01C0E9FF4BC4EFFF360E08
:1043E0004225016E030E4321036E360E4425E96E0D
:1043F000030E4521EA6EEFCF4BF403C0EAFF01C084
:10440000E9FF4BC4EFFF4251D8B443074207B5D789
:10441000340E3725E96E010E3821EA6EEFCF34F104
:104420000101350E04013725E96E020E3821EA6ECE
:10443000EFCF35F20201360E04013725E96E030E87
:104440003821EA6EEFCF36F30301E3EF2EF00401DB
:104450004151030865E1436B426B010E375D006E0D
:10446000000E3859036E00C001F04351035C56E35F
:1044700003E10150425D52E2340E4225016E010E0D
:104480004321036E010E42254B6F000E43214C6FFA
:10449000340E4B25E96E010E4C21EA6EEFCF4DF440
:1044A00003C0EAFF01C0E9FF4DC4EFFF350E42250E
:1044B000016E020E4321036E010E42254B6F000E6A
:1044C00043214C6F350E4B25E96E020E4C21EA6EEE
:1044D000EFCF4DF403C0EAFF01C0E9FF4DC4EFFF89
:1044E000360E4225016E030E4321036E010E422556
:1044F0004B6F000E43214C6F360E4B25E96E030EB9
:104500004C21EA6EEFCF4DF403C0EAFF01C0E9FF92
:104510004DC4EFFF422BD8B4432B9FD7E2EF2EF0D0
:1045200041510408D8A490D0436B426B010E375D13
:10453000006E000E3859036E00C001F04351035C59
:10454000D8A080D003E10150425D7CE24251375D4A
:10455000496F435138594A6F010E495F000E4A5B5B
:10456000340E4925016E010E4A21036E4251375D1A
:104570004D6F435138594E6F020E4D5F000E4E5B2A
:10458000340E4D25E96E010E4E21EA6EEFCF4FF449
:1045900003C0EAFF01C0E9FF4FC4EFFF4251375D9E
:1045A000496F435138594A6F010E495F000E4A5B0B
:1045B000350E4925016E020E4A21036E4251375DC8
:1045C0004D6F435138594E6F020E4D5F000E4E5BDA
:1045D000350E4D25E96E020E4E21EA6EEFCF4FF4F7
:1045E00003C0EAFF01C0E9FF4FC4EFFF4251375D4E
:1045F000496F435138594A6F010E495F000E4A5BBB
:10460000360E4925016E030E4A21036E4251375D75
:104610004D6F435138594E6F020E4D5F000E4E5B89
:10462000360E4D25E96E030E4E21EA6EEFCF4FF4A4
:1046300003C0EAFF01C0E9FF4FC4EFFF422BD8B42B
:10464000432B74D7E2EF2EF041510508D8A487D14F
:1046500034C146F435C247F436C348F4436B426B69
:10466000D89038314A6F3731496F010E495D006E7D
:10467000000E4A59036E00C001F04351035C56E33B
:1046800003E10150425D52E2340E4225016E010EFB
:104690004321036E010E42254B6F000E43214C6FE8
:1046A000340E4B25E96E010E4C21EA6EEFCF4DF42E
:1046B00003C0EAFF01C0E9FF4DC4EFFF350E4225FC
:1046C000016E020E4321036E010E42254B6F000E58
:1046D00043214C6F350E4B25E96E020E4C21EA6EDC
:1046E000EFCF4DF403C0EAFF01C0E9FF4DC4EFFF77
:1046F000360E4225016E030E4321036E010E422544
:104700004B6F000E43214C6F360E4B25E96E030EA6
:104710004C21EA6EEFCF4DF403C0EAFF01C0E9FF80
:104720004DC4EFFF422BD8B4432B9AD7D8903831E1
:104730004A6F3731496F010E495F000E4A5B340EF4
:104740004925E96E010E4A21EA6E46C4EFFFD89072
:1047500038314A6F3731496F010E495F000E4A5BAD
:10476000350E4925E96E020E4A21EA6E47C4EFFF75
:10477000D89038314A6F3731496F010E495F000ECA
:104780004A5B360E4925E96E030E4A21EA6E48C49B
:10479000EFFF010E375D496F000E38594A6F340E36
:1047A0004925E96E010E4A21EA6EEFCF46F4010E6B
:1047B000375D496F000E38594A6F350E4925E96E4D
:1047C000020E4A21EA6EEFCF47F4010E375D496FC2
:1047D000000E38594A6F360E4925E96E030E4A21FC
:1047E000EA6EEFCF48F4436B426BD89038314A6F92
:1047F0003731496F010E495D006E000E4A59036E54
:1048000000C001F04351035CD8A080D003E1015007
:10481000425D7CE24251375D496F435138594A6FDE
:10482000010E495F000E4A5B340E4925016E010EF0
:104830004A21036E4251375D4D6F435138594E6FD7
:10484000020E4D5F000E4E5B340E4D25E96E010EDB
:104850004E21EA6EEFCF4FF403C0EAFF01C0E9FF3B
:104860004FC4EFFF4251375D496F435138594A6F8A
:10487000010E495F000E4A5B350E4925016E020E9E
:104880004A21036E4251375D4D6F435138594E6F87
:10489000020E4D5F000E4E5B350E4D25E96E020E89
:1048A0004E21EA6EEFCF4FF403C0EAFF01C0E9FFEB
:1048B0004FC4EFFF4251375D496F435138594A6F3A
:1048C000010E495F000E4A5B360E4925016E030E4C
:1048D0004A21036E4251375D4D6F435138594E6F37
:1048E000020E4D5F000E4E5B360E4D25E96E030E37
:1048F0004E21EA6EEFCF4FF403C0EAFF01C0E9FF9B
:104900004FC4EFFF422BD8B4432B6FD7D890383128
:104910004A6F3731496F340E4925E96E010E4A213D
:10492000EA6E46C4EFFFD89038314A6F3731496F8D
:10493000350E4925E96E020E4A21EA6E47C4EFFFA3
:10494000D89038314A6F3731496F360E4925E96EB4
:10495000030E4A21EA6E48C4EFFFE2EF2EF0415108
:104960000608D8A494D1D89038314A6F3731496FAE
:10497000010E495F000E4A5B340E4925E96E010EB7
:104980004A21EA6EEFCF46F4D89038314A6F37317A
:10499000496F010E495F000E4A5B350E4925E96EED
:1049A000020E4A21EA6EEFCF47F4D89038314A6FB1
:1049B0003731496F010E495F000E4A5B360E4925BB
:1049C000E96E030E4A21EA6EEFCF48F4436B426B67
:1049D000D89038314A6F3731496F010E495D006E0A
:1049E000000E4A59036E00C001F04351035CD8A089
:1049F00084D004E10150425DD8B07FD0D8903831E6
:104A00004A6F3731496F4251495F43514A5B010E4A
:104A1000495F000E4A5B340E4925016E010E4A21A2
:104A2000036E4251375D4D6F435138594E6F020E40
:104A30004D5F000E4E5B340E4D25E96E010E4E218A
:104A4000EA6EEFCF4FF403C0EAFF01C0E9FF4FC4A5
:104A5000EFFF4251375D496F435138594A6F010E9C
:104A6000495F000E4A5B350E4925016E020E4A2150
:104A7000036E4251375D4D6F435138594E6F020EF0
:104A80004D5F000E4E5B350E4D25E96E020E4E2138
:104A9000EA6EEFCF4FF403C0EAFF01C0E9FF4FC455
:104AA000EFFF4251375D496F435138594A6F010E4C
:104AB000495F000E4A5B360E4925016E030E4A21FE
:104AC000036E4251375D4D6F435138594E6F020EA0
:104AD0004D5F000E4E5B360E4D25E96E030E4E21E6
:104AE000EA6EEFCF4FF403C0EAFF01C0E9FF4FC405
:104AF000EFFF422BD8B4432B6BD7D89038314A6F95
:104B00003731496F340E4925E96E010E4A21EA6EAC
:104B100046C4EFFFD89038314A6F3731496F350EB0
:104B20004925E96E020E4A21EA6E47C4EFFFD8908C
:104B300038314A6F3731496F360E4925E96E030E19
:104B40004A21EA6E48C4EFFF34C146F435C247F447
:104B500036C348F4436B426BD89038314A6F3731D3
:104B6000496F010E495D006E000E4A59036E00C088
:104B700001F04351035C56E303E10150425D52E210
:104B8000340E4225016E010E4321036E010E4225B3
:104B90004B6F000E43214C6F340E4B25E96E010E16
:104BA0004C21EA6EEFCF4DF403C0EAFF01C0E9FFEC
:104BB0004DC4EFFF350E4225016E020E4321036EF8
:104BC000010E42254B6F000E43214C6F350E4B25D5
:104BD000E96E020E4C21EA6EEFCF4DF403C0EAFFFE
:104BE00001C0E9FF4DC4EFFF360E4225016E030EF2
:104BF0004321036E010E42254B6F000E43214C6F83
:104C0000360E4B25E96E030E4C21EA6EEFCF4DF4C4
:104C100003C0EAFF01C0E9FF4DC4EFFF422BD8B447
:104C2000432B9AD7D89038314A6F3731496F010EEC
:104C3000495F000E4A5B340E4925E96E010E4A2198
:104C4000EA6E46C4EFFFD89038314A6F3731496F6A
:104C5000010E495F000E4A5B350E4925E96E020ED2
:104C60004A21EA6E47C4EFFFD89038314A6F373196
:104C7000496F010E495F000E4A5B360E4925E96E09
:104C8000030E4A21EA6E48C4EFFFE2EF2EF04151D5
:104C90000708D8A489D0436B426B4351385DD8A034
:104CA00081D004E13751425DD8B07CD0340E42252A
:104CB000E96E010E4321EA6EEF50090818E2340E46
:104CC0004225016E010E4321036E01C049F44A6F73
:104CD000340E4225E96E010E4321EA6E0A0EEF5CA6
:104CE0004B6F03C0EAFF01C0E9FFEF6E07D0340E3F
:104CF0004225E96E010E4321EA6EEF6A350E422528
:104D0000E96E020E4321EA6EEF50090818E2350EF3
:104D10004225016E020E4321036E01C049F44A6F21
:104D2000350E4225E96E020E4321EA6E0A0EEF5C53
:104D30004B6F03C0EAFF01C0E9FFEF6E07D0350EED
:104D40004225E96E020E4321EA6EEF6A360E4225D5
:104D5000E96E030E4321EA6EEF50090818E2360EA1
:104D60004225016E030E4321036E01C049F44A6FD0
:104D7000360E4225E96E030E4321EA6E0A0EEF5C01
:104D80004B6F03C0EAFF01C0E9FFEF6E07D0360E9C
:104D90004225E96E030E4321EA6EEF6A422BD8B436
:104DA000432B7BD7E2EF2EF041510808D8A489D0DD
:104DB000436B426B4351385DD8A081D004E1375139
:104DC000425DD8B07CD0340E4225E96E010E4321FD
:104DD000EA6EEF50F50818E3340E4225016E010E1D
:104DE0004321036E01C049F44A6F340E4225E96E37
:104DF000010E4321EA6E0A0EEF244B6F03C0EAFF57
:104E000001C0E9FFEF6E07D0340E4225E96E010EB6
:104E10004321EA6EEF68350E4225E96E020E43210A
:104E2000EA6EEF50F50818E3350E4225016E020ECA
:104E30004321036E01C049F44A6F350E4225E96EE5
:104E4000020E4321EA6E0A0EEF244B6F03C0EAFF05
:104E500001C0E9FFEF6E07D0350E4225E96E020E64
:104E60004321EA6EEF68360E4225E96E030E4321B8
:104E7000EA6EEF50F50818E3360E4225016E030E78
:104E80004321036E01C049F44A6F360E4225E96E94
:104E9000030E4321EA6E0A0EEF244B6F03C0EAFFB4
:104EA00001C0E9FFEF6E07D0360E4225E96E030E12
:104EB0004321EA6EEF68422BD8B4432B7BD7E2EF55
:104EC0002EF041510908D8A4BDD0436B426B435129
:104ED000385DD8A0B5D004E13751425DD8B0B0D02C
:104EE000340E4225E96E010E4321EA6EEF5093081D
:104EF00014E3340E4225016E010E4321036E340E7D
:104F00004225E96E010E4321EA6E0A0EEF2403C02A
:104F1000EAFF01C0E9FFEF6E25D0340E4225E96EAD
:104F2000010E4321EA6EEF50A60814E2340E42252A
:104F3000016E010E4321036E340E4225E96E010E0F
:104F40004321EA6E0A0EEF5C03C0EAFF01C0E9FFED
:104F5000EF6E08D0340E4225E96E010E4321EA6E51
:104F60009D0EEF6E350E4225E96E020E4321EA6E6C
:104F7000EF50580814E3350E4225016E020E43210E
:104F8000036E350E4225E96E020E4321EA6E0A0ECB
:104F9000EF2403C0EAFF01C0E9FFEF6E25D0350E14
:104FA0004225E96E020E4321EA6EEF506B0814E2CF
:104FB000350E4225016E020E4321036E350E422549
:104FC000E96E020E4321EA6E0A0EEF5C03C0EAFFAF
:104FD00001C0E9FFEF6E08D0350E4225E96E020EE2
:104FE0004321EA6E620EEF6E360E4225E96E030E25
:104FF0004321EA6EEF50090818E2360E4225016E91
:10500000030E4321036E01C049F44A6F360E422558
:10501000E96E030E4321EA6E0A0EEF5C4B6F03C08C
:10502000EAFF01C0E9FFEF6E07D0360E4225E96EB8
:10503000030E4321EA6EEF6A422BD8B4432B47D7C5
:10504000E2EF2EF041510A08D8A404D23A53D8A472
:10505000A9D03B6B436B426B4351385DD8A09AD0CB
:1050600004E13751425DD8B095D0340E4225E96E47
:10507000010E4321EA6EEF50F50818E3340E422585
:10508000016E010E4321036E01C049F44A6F340ED4
:105090004225E96E010E4321EA6E0A0EEF244B6FA2
:1050A00003C0EAFF01C0E9FFEF6E07D0340E4225CE
:1050B000E96E010E4321EA6EEF68350E4225E96E76
:1050C000020E4321EA6EEF50090818E2350E422520
:1050D000016E020E4321036E01C049F44A6F350E82
:1050E0004225E96E020E4321EA6E0A0EEF5C4B6F19
:1050F00003C0EAFF01C0E9FFEF6E07D0350E42257D
:10510000E96E020E4321EA6EEF6A360E4225E96E21
:10511000030E4321EA6EEF50090818E2360E4225CD
:10512000016E030E4321036E01C049F44A6F360E2F
:105130004225E96E030E4321EA6E0A0EEF5C4B6FC7
:1051400003C0EAFF01C0E9FFEF6E07D0360E42252B
:10515000E96E030E4321EA6EEF6A340E4225E96ED2
:10516000010E4321EA6EEF3C11D0350E4225E96E67
:10517000020E4321EA6EEF5209E1360E4225E96E36
:10518000030E4321EA6EEF5201E13B2B422BD8B4D0
:10519000432B62D737513B5D04E1385302E1010EE6
:1051A0003A6F56D13A2DA9D03B6B436B426B4351BA
:1051B000385DD8A09AD004E13751425DD8B095D07F
:1051C000350E4225E96E020E4321EA6EEF50F508D6
:1051D00018E3350E4225016E020E4321036E01C015
:1051E00049F44A6F350E4225E96E020E4321EA6EFC
:1051F0000A0EEF244B6F03C0EAFF01C0E9FFEF6E18
:1052000007D0350E4225E96E020E4321EA6EEF68A3
:10521000340E4225E96E010E4321EA6EEF50090873
:1052200018E2340E4225016E010E4321036E01C0C7
:1052300049F44A6F340E4225E96E010E4321EA6EAD
:105240000A0EEF5C4B6F03C0EAFF01C0E9FFEF6E8F
:1052500007D0340E4225E96E010E4321EA6EEF6A53
:10526000360E4225E96E030E4321EA6EEF5009081F
:1052700018E2360E4225016E030E4321036E01C073
:1052800049F44A6F360E4225E96E030E4321EA6E59
:105290000A0EEF5C4B6F03C0EAFF01C0E9FFEF6E3F
:1052A00007D0360E4225E96E030E4321EA6EEF6AFF
:1052B000340E4225E96E010E4321EA6EEF5211E1F0
:1052C000350E4225E96E020E4321EA6EEF3C09D00D
:1052D000360E4225E96E030E4321EA6EEF5201E1DC
:1052E0003B2B422BD8B4432B62D737513B5D04E1B3
:1052F000385302E1020E3A6FABD03A510208D8A4FB
:10530000A7D03B6B436B426B4351385DD8A09AD01A
:1053100004E13751425DD8B095D0360E4225E96E92
:10532000030E4321EA6EEF50F50818E3360E4225CE
:10533000016E030E4321036E01C049F44A6F360E1D
:105340004225E96E030E4321EA6E0A0EEF244B6FED
:1053500003C0EAFF01C0E9FFEF6E07D0360E422519
:10536000E96E030E4321EA6EEF68340E4225E96EC2
:10537000010E4321EA6EEF50090818E2340E42256F
:10538000016E010E4321036E01C049F44A6F340ED1
:105390004225E96E010E4321EA6E0A0EEF5C4B6F67
:1053A00003C0EAFF01C0E9FFEF6E07D0340E4225CB
:1053B000E96E010E4321EA6EEF6A350E4225E96E71
:1053C000020E4321EA6EEF50090818E2350E42251D
:1053D000016E020E4321036E01C049F44A6F350E7F
:1053E0004225E96E020E4321EA6E0A0EEF5C4B6F16
:1053F00003C0EAFF01C0E9FFEF6E07D0350E42257A
:10540000E96E020E4321EA6EEF6A340E4225E96E20
:10541000010E4321EA6EEF5211E1350E4225E96E8D
:10542000020E4321EA6EEF5209E1360E4225E96E83
:10543000030E4321EA6EEF3C01D03B2B422BD8B444
:10544000432B62D737513B5D03E1385301E13A6B9F
:10545000E2EF2EF041510B08D8A456D13A53D8A40C
:10546000A9D03B6B436B426B4351385DD8A09AD0B7
:1054700004E13751425DD8B095D0340E4225E96E33
:10548000010E4321EA6EEF50F50818E3340E422571
:10549000016E010E4321036E01C049F44A6F340EC0
:1054A0004225E96E010E4321EA6E0A0EEF244B6F8E
:1054B00003C0EAFF01C0E9FFEF6E07D0340E4225BA
:1054C000E96E010E4321EA6EEF68350E4225E96E62
:1054D000020E4321EA6EEF50090818E2350E42250C
:1054E000016E020E4321036E01C049F44A6F350E6E
:1054F0004225E96E020E4321EA6E0A0EEF5C4B6F05
:1055000003C0EAFF01C0E9FFEF6E07D0350E422568
:10551000E96E020E4321EA6EEF6A360E4225E96E0D
:10552000030E4321EA6EEF50090818E2360E4225B9
:10553000016E030E4321036E01C049F44A6F360E1B
:105540004225E96E030E4321EA6E0A0EEF5C4B6FB3
:1055500003C0EAFF01C0E9FFEF6E07D0360E422517
:10556000E96E030E4321EA6EEF6A340E4225E96EBE
:10557000010E4321EA6EEF3C11D0350E4225E96E53
:10558000020E4321EA6EEF5209E1360E4225E96E22
:10559000030E4321EA6EEF5201E13B2B422BD8B4BC
:1055A000432B62D737513B5D04E1385302E1010ED2
:1055B0003A6FA9D03A2DA7D03B6B436B426B435156
:1055C000385DD8A09AD004E13751425DD8B095D06B
:1055D000350E4225E96E020E4321EA6EEF50F508C2
:1055E00018E3350E4225016E020E4321036E01C001
:1055F00049F44A6F350E4225E96E020E4321EA6EE8
:105600000A0EEF244B6F03C0EAFF01C0E9FFEF6E03
:1056100007D0350E4225E96E020E4321EA6EEF688F
:10562000340E4225E96E010E4321EA6EEF5009085F
:1056300018E2340E4225016E010E4321036E01C0B3
:1056400049F44A6F340E4225E96E010E4321EA6E99
:105650000A0EEF5C4B6F03C0EAFF01C0E9FFEF6E7B
:1056600007D0340E4225E96E010E4321EA6EEF6A3F
:10567000360E4225E96E030E4321EA6EEF5009080B
:1056800018E2360E4225016E030E4321036E01C05F
:1056900049F44A6F360E4225E96E030E4321EA6E45
:1056A0000A0EEF5C4B6F03C0EAFF01C0E9FFEF6E2B
:1056B00007D0360E4225E96E030E4321EA6EEF6AEB
:1056C000340E4225E96E010E4321EA6EEF5211E1DC
:1056D000350E4225E96E020E4321EA6EEF3C09D0F9
:1056E000360E4225E96E030E4321EA6EEF5201E1C8
:1056F0003B2B422BD8B4432B62D737513B5D03E1A0
:10570000385301E13A6B5ED341510C08D8A4F5D16E
:105710003A53D8A4A9D03B6B436B426B4351385DDD
:10572000D8A09AD004E13751425DD8B095D0340E5C
:105730004225E96E010E4321EA6EEF50F50818E3A9
:10574000340E4225016E010E4321036E01C049F45F
:105750004A6F340E4225E96E010E4321EA6E0A0EAD
:10576000EF244B6F03C0EAFF01C0E9FFEF6E07D0E3
:10577000340E4225E96E010E4321EA6EEF68350EC4
:105780004225E96E020E4321EA6EEF50090818E245
:10579000350E4225016E020E4321036E01C049F40D
:1057A0004A6F350E4225E96E020E4321EA6E0A0E5B
:1057B000EF5C4B6F03C0EAFF01C0E9FFEF6E07D05B
:1057C000350E4225E96E020E4321EA6EEF6A360E6F
:1057D0004225E96E030E4321EA6EEF50090818E2F4
:1057E000360E4225016E030E4321036E01C049F4BB
:1057F0004A6F360E4225E96E030E4321EA6E0A0E09
:10580000EF5C4B6F03C0EAFF01C0E9FFEF6E07D00A
:10581000360E4225E96E030E4321EA6EEF6A340E1E
:105820004225E96E010E4321EA6EEF3C11D0350EA0
:105830004225E96E020E4321EA6EEF5209E1360E6F
:105840004225E96E030E4321EA6EEF5201E13B2B44
:10585000422BD8B4432B62D737513B5D04E1385318
:1058600002E1010E3A6F48D13A2DA9D03B6B436B50
:10587000426B4351385DD8A09AD004E13751425D64
:10588000D8B095D0350E4225E96E020E4321EA6E5E
:10589000EF50F50818E3350E4225016E020E432144
:1058A000036E01C049F44A6F350E4225E96E020EBF
:1058B0004321EA6E0A0EEF244B6F03C0EAFF01C0DA
:1058C000E9FFEF6E07D0350E4225E96E020E432147
:1058D000EA6EEF68340E4225E96E010E4321EA6E4E
:1058E000EF50090818E2340E4225016E010E4321E3
:1058F000036E01C049F44A6F340E4225E96E010E71
:105900004321EA6E0A0EEF5C4B6F03C0EAFF01C051
:10591000E9FFEF6E07D0340E4225E96E010E4321F8
:10592000EA6EEF6A360E4225E96E030E4321EA6EF7
:10593000EF50090818E2360E4225016E030E43218E
:10594000036E01C049F44A6F360E4225E96E030E1C
:105950004321EA6E0A0EEF5C4B6F03C0EAFF01C001
:10596000E9FFEF6E07D0360E4225E96E030E4321A4
:10597000EA6EEF6A340E4225E96E010E4321EA6EAB
:10598000EF5211E1350E4225E96E020E4321EA6E17
:10599000EF3C09D0360E4225E96E030E4321EA6E34
:1059A000EF5201E13B2B422BD8B4432B62D7375146
:1059B0003B5D04E1385302E1020E3A6F9DD03A514B
:1059C0000208D8A499D03B6B436B426B4351385DBE
:1059D000D8A08CD004E13751425DD8B087D0360EC4
:1059E0004225E96E030E4321EA6EEF50300818E3BA
:1059F000360E4225016E030E4321036E01C049F4A9
:105A00004A6F360E4225E96E030E4321EA6E0A0EF6
:105A1000EF244B6F03C0EAFF01C0E9FFEF6E08D02F
:105A2000360E4225E96E030E4321EA6E300EEF6E0C
:105A3000340E4225E96E010E4321EA6EEF5009084B
:105A400018E2340E4225016E010E4321036E01C09F
:105A500049F44A6F340E4225E96E010E4321EA6E85
:105A60000A0EEF5C4B6F03C0EAFF01C0E9FFEF6E67
:105A700007D0340E4225E96E010E4321EA6EEF6A2B
:105A8000350E4225E96E020E4321EA6EEF500908F9
:105A900018E2350E4225016E020E4321036E01C04D
:105AA00049F44A6F350E4225E96E020E4321EA6E33
:105AB0000A0EEF5C4B6F03C0EAFF01C0E9FFEF6E17
:105AC00007D0350E4225E96E020E4321EA6EEF6AD9
:105AD000360E4225E96E030E4321EA6EEF50300880
