:04000000F2EF27F004
:08000800046ED8CF05F0E0CF33
:1000100006F00001E9CF0CF0EACF07F0E1CF08F0DD
:10002000E2CF09F0D9CF0AF0DACF0BF0F3CF12F01C
:10003000F4CF13F0FACF14F0F5CF15F0F6CF16F099
:10004000F7CF17F000C00EF001C00FF002C010F0A3
:1000500003C011F0F2AA30EF00F0F2B445EF19F04E
:100060009DAA36EF00F09EBA1DEF19F00EC000F009
:100070000FC001F010C002F011C003F00CC0E9FF86
:1000800007C0EAFF078E08C0E1FF09C0E2FF0AC00F
:10009000D9FF0BC0DAFF12C0F3FF13C0F4FF14C086
:1000A000FAFF15C0F5FF16C0F6FF17C0F7FF0450A2
:1000B00006C0E0FF05C0D8FF1000C80FF66E000EA6
:1000C000F7220900F55012000000000000000000B7
:1000D0000000000000000000000000000000000020
:1000E0000000000000000000000000000000000010
:1000F0000000000000000000000000000000000000
:1001000000000000000000000000000000000000EF
:1001100000000000000000000000000000000000DF
:1001200000000000000000000000000000000000CF
:1001300000000000000000000000000000000000BF
:1001400000000000000000000000000000000000AF
:10015000000000000000000000000000000000009F
:10016000000000000000000000000000000000008F
:10017000000000000000000000000000000000007F
:10018000000000000000000000000000000000006F
:10019000000000000000000000000000000000005F
:1001A000000000000000000000000000000000004F
:1001B000000000000000000000000000000000003F
:1001C000000000000000000000000000000000002F
:1001D000000000000000000000000000000000001F
:1001E000000000000000000000000000000000000F
:1001F00000000000000000000000000000000000FF
:1002000000000000000000000000000000000000EE
:1002100000000000000000000000000000000000DE
:1002200000000000000000000000000000000000CE
:1002300000000000000000000000000000000000BE
:1002400000000000000000000000000000000000AE
:10025000000000000000000000000000000000009E
:10026000000000000000000000000000000000008E
:10027000000000000000000000000000000000007E
:10028000000000000000000000000000000000006E
:10029000000000000000000000000000000000005E
:1002A000000000000000000000000000000000004E
:1002B000000000000000000000000000000000003E
:1002C0000000000000000000BFBFBFBFBFBFBFBF36
:1002D000BFBFBFBFBFBFBFBFBFBFBFBFBFBFBFBF2E
:1002E000BFBFBFBFBFBFBFBFBFBFBFBFBFBFBFBF1E
:1002F000BFBFBFBFBFBFBFBFBFBFBFBFBFBFBFBF0E
:10030000BFBFBFBFBFBFBFBFBFBFBFBFBFBFBFBFFD
:10031000BFBFBFBFBFBFBFBFBFBFBFBFBFBFBFBFED
:10032000BFBFBFBFBFBFBFBFBFBFBFBFBFBFBFBFDD
:10033000BFBFBFBFBFBFBFBFBFBFBFBFBFBFBFBFCD
:10034000BFBFBFBFBFBFBFBFBFBFBFBFBFBFBFBFBD
:10035000BFBFBFBFBFBFBFBFBFBFBFBFBFBFBFBFAD
:10036000BFBFBFBFBFBFBFBFBFBFBFBFBFBFBFBF9D
:10037000BFBFBFBFBFBFBFBFBFBFBFBFBFBFBFBF8D
:10038000BFBFBFBFBFBFBFBFBFBFBFBFBFBFBFBF7D
:10039000BFBFBFBFBFBFBFBFBFBFBFBFBFBFBFBF6D
:1003A000BFBFBFBFBFBFBFBFBFBFBFBFBFBFBFBF5D
:1003B000BFBFBFBFBFBFBFBFBFBFBFBFBFBFBFBF4D
:1003C000BFBFBFBFBFBFBFBF000000000000000035
:1003D000000000000000000000000000000000001D
:1003E000000000000000000000000000000000000D
:1003F00000000000000000000000000000000000FD
:1004000000000000000000000000000000000000EC
:1004100000000000000000000000000000000000DC
:1004200000000000000000000000000000000000CC
:1004300000000000000000000000000000000000BC
:1004400000000000000000000000000000000000AC
:10045000000000000000000000000000000000009C
:10046000000000000000000000000000000000008C
:10047000000000000000000000000000000000007C
:10048000000000000000000000000000000000006C
:10049000000000000000000000000000000000005C
:1004A000000000000000000000000000000000004C
:1004B000000000000000000000000000000000003C
:1004C0000000000000000000FFFFFFFFFFFFFFFF34
:1004D000FFFFFFFFFFFFFFFFFFFFFFFFFFFFFFFF2C
:1004E000FFFFFFFFFFFFFFFFFFFFFFFFFFFFFFFF1C
:1004F000FFFFFFFFFFFFFFFFFFFFFFFFFFFFFFFF0C
:10050000FFFFFFFFFFFFFFFFFFFFFFFFFFFFFFFFFB
:1006E000FFFFFFFFFFFFFF000000FFFFFFFFFFFF17
:1006F000FFFFFFFFFFFFFFFFFFFFFFFFFFFFFFFF0A
:10070000FFFFFFFFFF00000000000000FFFFFFFFF2
:10071000FFFFFFFFFFFFFFFFFFFFFFFFFFFFFFFFE9
:10072000FFFFFF0000000000000000000000FFFFCE
:10073000FFFFFFFFFFFFFFFFFFFFFFFFFFFFFFFFC9
:10074000FF000000000000000000000000000000AA
:10075000FFFFFFFFFFFFFFFFFFFFFFFFFFFFFF00A8
:100760000000000000000000000000000000000089
:100770000000FFFFFFFFFFFFFFFFFFFFFF00000084
:100780000000000000000000000000000000000069
:1007900000000000FFFFFFFFFFFFFF000000000060
:1007A0000000000000000000000000000000000049
:1007B000000000000000FFFFFF000000000000003C
:1007C0000000000000000000FF000000000000002A
:1007D0000000000000000000000000000000000019
:1007E000000000000000FFFFFFFFFF00000000000E
:1007F00000000000000000000000000000000000F9
:1008000000000000FFFFFFFFFFFFFFFFFF000000F1
:1008100000000000000000000000000000000000D8
:100820000000FFFFFFFFFFFFFFFFFFFFFFFFFF00D5
:1008300000000000000000000000000000000000B8
:10084000FFFFFFFFFFFFFFFFFFFFFFFFFFFFFFFFB8
:10085000FF00000000000000000000000000FFFF9B
:10086000FFFFFFFFFFFFFFFFFFFFFFFFFFFFFFFF98
:10087000FFFFFF000000000000000000FFFFFFFF7F
:10088000FFFFFFFFFFFFFFFFFFFFFFFFFFFFFFFF78
:10089000FFFFFFFFFF0000000000FFFFFFFFFFFF63
:1008A000FFFFFFFFFFFFFFFFFFFFFFFFFFFFFFFF58
:1008B000FFFFFFFFFFFFFF00FFFFFFFFFFFFFFFF47
:1008C000FFFFFFFFFFFFFFFFFFFFFFFFFFFFFFFF38
:1008D000FFFFFFFFFFFFFFFFFFFFFFFFFFFFFFFF28
:1008E000FFFFFFFFFFFFFFFFFFFFFFFFFFFFFFFF18
:1008F000FFFFFFFFFFFFFFFFFFFFFF000000FFFF05
:10090000FFFF000000FFFFFFFFFF00FFFFFF00FFF2
:10091000FF00FFFFFF00FFFFFFFF00FFFFFFFFFFE4
:10092000FF00FFFFFF00FFFFFFFFFFFFFFFF00FFD4
:10093000FFFFFFFFFF00FFFFFFFFFF000000FFFFC3
:10094000FF00FFFFFFFFFFFFFFFFFFFFFFFF00FFB5
:10095000FF00FFFFFFFFFFFFFFFFFFFFFFFF00FFA5
:10096000FF00FFFFFFFFFFFFFFFF00FFFFFF00FF94
:10097000FF00FFFFFF00FFFFFFFFFF000000FFFF82
:10098000FFFF000000FFFFFFFFFFFFFFFFFFFFFF74
:10099000FFFFFFFFFFFFFFFFFFFFFFFFFFFFFFFF67
:1009A000FFFFFFFFFFFFFFFFFFFFFFFFFFFFFFFF57
:1009B000FFFFFFFFFFFFFFFFFFFFFFFFFFFFFFFF47
:1009C000FFFFFFFFFFFFFFFF00000000000000002F
:1009D0000000000000000000000000000000000017
:1009E0000000000000000000000000000000000007
:1009F0000000000000000000000000FFFFFF0000FA
:100A00000000FFFFFF0000000000FF000000FF00EB
:100A100000FF000000FF00000000FF0000000000D9
:100A200000FF000000FF0000000000000000FF00C9
:100A30000000000000FF0000000000FFFFFF0000BA
:100A400000FF000000000000000000000000FF00A8
:100A500000FF000000000000000000000000FF0098
:100A600000FF000000FF00000000FF000000FF008A
:100A700000FF000000FF0000000000FFFFFF00007B
:100A80000000FFFFFF000000000000000000000069
:100A90000000000000000000000000000000000056
:100AA0000000000000000000000000000000000046
:100AB0000000000000000000000000000000000036
:100AC0000000000000000000000000000000000026
:100AD0000000000000000000000000000000000016
:100AE0000000000000000000000000000000000006
:100AF00000000000000000000000000000000000F6
:100B0000000000000000000000FF0000FF0000FFE8
:100B1000FFFF0000FFFF000000FF0000FF00FF00DC
:100B200000FF00FF0000FF0000FF00FFFF00FF00CC
:100B300000FF00FF0000FF0000FF0000FF00FF00BB
:100B400000FF00FFFF00FF0000FFFF00FF0000FFAD
:100B5000FFFF00FF0000FF0000FF0000FF00FF009C
:100B6000000000FF00FFFF0000FF0000FF0000008A
:100B700000FF00FF0000FF000000FFFF0000FF007B
:100B8000000000FF0000FF00000000000000000067
:100B90000000000000000000000000000000000055
:100BA0000000000000000000000000000000000045
:100BB0000000000000000000000000000000000035
:100BC0000000000000000000000000000000000025
:100BD0000000000000000000000000000000000015
:100BE0000000000000000000000000000000000005
:100BF00000000000000000000000000000000000F5
:100C000000000000000000000000FFFF00000000E6
:100C100000FF0000FFFF000000FF0000FF00FF00DA
:100C2000000000FF0000FF0000000000FF000000C7
:100C300000FF00000000FF0000FF00000000FF00B8
:100C400000000000FF0000000000FF0000000000A6
:100C500000FF00000000FF0000FF00000000FF0098
:100C6000000000000000FF0000FF0000FF00000087
:100C700000FF00FF0000FF000000FFFF0000FFFF7B
:100C8000FFFF0000FFFF0000000000000000000068
:100C90000000000000000000000000000000000054
:100CA0000000000000000000000000000000000044
:100CB0000000000000000000000000000000000034
:100CC0000000000000000000000000000000000024
:100CD0000000000000000000000000000000000014
:100CE0000000000000000000000000000000000004
:100CF00000000000000000000000000000000000F4
:100D0000000000000000000000FF000000FF0000E5
:100D1000FFFF0000FFFFFF0000FF000000FF0000DA
:100D2000FF00FF000000FF0000FF000000FF00FFC9
:100D30000000FF000000FF0000FFFF0000FF0000B8
:100D4000000000FF00FF0000000000FF00000000A6
:100D50000000FF000000FF0000FF000000FF000097
:100D6000FF000000FF000000000000FF000000FF87
:100D70000000FF000000FF0000FF00000000FFFF78
:100D800000000000FF000000000000000000000064
:100D90000000000000000000000000000000000053
:100DA0000000000000000000000000000000000043
:100DB0000000000000000000000000000000000033
:100DC0000000000000000000FFFFFFFFFFFFFFFF2B
:100DD000FFFFFFFFFFFFFFFFFFFFFFFFFFFFFFFF23
:100DE000FFFFFFFFFFFFFFFFFFFFFFFFFFFFFFFF13
:100DF000FFFFFFFFFFFFFFFFFFFFFFFFFFFFFFFF03
:100E0000FFFFFFFFFFFFFFFFFF00FFFFFF00FFFFF0
:100E10000000FFFF000000FFFF00FFFFFF00FFFFDB
:100E200000FF00FFFFFF00FFFF00FFFFFF00FF00CC
:100E3000FFFF00FFFFFF00FFFF0000FFFF00FFFFBD
:100E4000FFFFFF00FF00FFFFFFFFFF00FFFFFFFFAF
:100E5000FFFF00FFFFFF00FFFF00FFFFFF00FFFF9E
:100E600000FFFFFF00FFFFFFFFFFFF00FFFFFF008E
:100E7000FFFF00FFFFFF00FFFF00FFFFFFFF00007D
:100E8000FFFFFFFF00FFFFFFFFFFFFFFFFFFFFFF71
:100E9000FFFFFFFFFFFFFFFFFFFFFFFFFFFFFFFF62
:100EA000FFFFFFFFFFFFFFFFFFFFFFFFFFFFFFFF52
:100EB000FFFFFFFFFFFFFFFFFFFFFFFFFFFFFFFF42
:100EC000FFFFFFFFFFFFFFFFFFFFFFFFFFFFFFFF32
:100ED000FFFFFFFFFFFFFFFFFFFFFFFFFFFFFFFF22
:100EE000FFFFFFFFFFFFFFFFFFFFFFFFFFFFFFFF12
:100EF000FFFFFFFFFFFFFFFFFFFFFFFFFFFFFFFF02
:100F0000FFFFFFFFFFFFFFFFFFFFFFFFFFFFFFFFF1
:100F1000FFFFFFFFFFFFFFFFFFFFFFFFFFFFFFFFE1
:100F2000FFFFFFFFFFFFFFFFFFFFFFFFFFFFFFFFD1
:100F3000FFFFFFFFFFFFFFFFFFFFFFFFFFFFFFFFC1
:100F4000FFFFFFFFFFFFFFFFFFFFFFFFFFFFFFFFB1
:100F5000FFFFFFFFFFFFFFFFFFFFFFFFFFFFFFFFA1
:100F6000FFFFFFFFFFFFFFFFFFFFFFFFFFFFFFFF91
:100F7000FFFFFFFFFFFFFFFFFFFFFFFFFFFFFFFF81
:100F8000FFFFFFFFFFFFFFFFFFFFFFFFFFFFFFFF71
:100F9000FFFFFFFFFFFFFFFFFFFFFFFFFFFFFFFF61
:100FA000FFFFFFFFFFFFFFFFFFFFFFFFFFFFFFFF51
:100FB000FFFFFFFFFFFFFFFFFFFFFFFFFFFFFFFF41
:100FC000FFFFFFFFFFFFFFFF000000000000000029
:100FD000000000000000000000FFFF0000FFFF0015
:100FE00000FFFF0000FFFF0000FFFF0000FFFF0009
:100FF00000FFFF0000FFFF00000000FFFF0000FFF8
:10100000FF0000FFFF000000000000FFFF0000FFE6
:10101000FF0000FFFF00000000FFFF0000FFFF00D7
:1010200000FFFF0000FFFF0000FFFF0000FFFF00C8
:1010300000FFFF0000FFFF00000000FFFF0000FFB7
:10104000FF0000FFFF000000000000FFFF0000FFA6
:10105000FF0000FFFF00000000FFFF0000FFFF0097
:1010600000FFFF0000FFFF0000FFFF0000FFFF0088
:1010700000FFFF0000FFFF00000000FFFF0000FF77
:10108000FF0000FFFF000000000000FFFF0000FF66
:10109000FF0000FFFF00000000FFFF0000FFFF0057
:1010A00000FFFF0000FFFF0000FFFF0000FFFF0048
:1010B00000FFFF0000FFFF00000000000000000034
:1010C0000000000000000000D60FF66E100EF722A0
:1010D0000900F550120000000000000000000000B0
:1010E0000000000000000000000000000000000000
:1010F00000000000000000000000000000000000F0
:1011000000000000000000000000000000000000DF
:1011100000000000000000000000000000000000CF
:1011200000000000000000000000000000000000BF
:1011300000000000000000000000000000000000AF
:10114000000000000000000000000000000000009F
:10115000000000000000000000000000000000008F
:10116000000000000000000000000000000000007F
:10117000000000000000000000000000000000006F
:10118000000000000000000000000000000000005F
:10119000000000000000000000000000000000004F
:1011A000000000000000000000000000000000003F
:1011B000000000000000000000000000000000002F
:1011C000000000000000000000000000000000001F
:1011D000000000000000000000000000000000000F
:1011E00000000000000000000000000000000000FF
:1011F00000000000000000000000000000000000EF
:1012000000000000000000000000000000000000DE
:1012100000000000000000000000000000000000CE
:1012200000000000000000000000000000000000BE
:1012300000000000000000000000000000000000AE
:10124000000000000000000000000000000000009E
:10125000000000000000000000000000000000008E
:10126000000000000000000000000000000000007E
:10127000000000000000000000000000000000006E
:10128000000000000000000000000000000000005E
:10129000000000000000000000000000000000004E
:1012A000000000000000000000000000000000003E
:1012B000000000000000000000000000000000002E
:1012C000000000000000000000000000000000001E
:1012D000000000000000BFBFBFBFBFBFBFBFBFBF98
:1012E000BFBFBFBFBFBFBFBFBFBFBFBFBFBFBFBF0E
:1012F000BFBFBFBFBFBFBFBFBFBFBFBFBFBFBFBFFE
:10130000BFBFBFBFBFBFBFBFBFBFBFBFBFBFBFBFED
:10131000BFBFBFBFBFBFBFBFBFBFBFBFBFBFBFBFDD
:10132000BFBFBFBFBFBFBFBFBFBFBFBFBFBFBFBFCD
:10133000BFBFBFBFBFBFBFBFBFBFBFBFBFBFBFBFBD
:10134000BFBFBFBFBFBFBFBFBFBFBFBFBFBFBFBFAD
:10135000BFBFBFBFBFBFBFBFBFBFBFBFBFBFBFBF9D
:10136000BFBFBFBFBFBFBFBFBFBFBFBFBFBFBFBF8D
:10137000BFBFBFBFBFBFBFBFBFBFBFBFBFBFBFBF7D
:10138000BFBFBFBFBFBFBFBFBFBFBFBFBFBFBFBF6D
:10139000BFBFBFBFBFBFBFBFBFBFBFBFBFBFBFBF5D
:1013A000BFBFBFBFBFBFBFBFBFBFBFBFBFBFBFBF4D
:1013B000BFBFBFBFBFBFBFBFBFBFBFBFBFBFBFBF3D
:1013C000BFBFBFBFBFBFBFBFBFBFBFBFBFBFBFBF2D
:1013D000BFBFBFBFBFBFFFFFFFFFFFFFFFFFFFFF9D
:1013E000FFFFFFFFFFFFFFFFFFFFFFFFFFFFFFFF0D
:1013F000FFFFFFFFFFFFFFFFFFFFFFFFFFFFFFFFFD
:10140000FFFFFFFFFFFFFFFFFFFFFFFFFFFFFFFFEC
:10141000FFFFFFFFFFFFFFFFFFFFFFFFFFFFFFFFDC
:10142000FFFFFFFFFFFFFFFFFFFFFFFFFFFFFFFFCC
:10143000FFFFFFFFFFFFFFFFFFFFFFFFFFFFFFFFBC
:10144000FFFFFFFFFFFFFFFFFFFFFFFFFFFFFFFFAC
:10145000FFFFFFFFFFFFFFFFFFFFFFFFFFFFFFFF9C
:10146000FFFFFFFFFFFFFFFFFFFFFFFFFFFFFFFF8C
:10147000FFFFFFFFFFFFFFFFFFFFFFFFFFFFFFFF7C
:10148000FFFFFFFFFFFFFFFFFFFFFFFFFFFFFFFF6C
:10149000FFFFFFFFFFFFFFFFFFFFFFFFFFFFFFFF5C
:1014A000FFFFFFFFFFFFFFFFFFFFFFFFFFFFFFFF4C
:1014B000FFFFFFFFFFFFFFFFFFFFFFFFFFFFFFFF3C
:1014C000FFFFFFFFFFFFFFFFFFFFFFFFFFFFFFFF2C
:1014D000FFFFFFFFFFFF0000000000000000000012
:1014E00000000000000000000000000000000000FC
:1014F00000000000000000000000000000000000EC
:1015000000000000000000000000000000000000DB
:1015100000000000000000000000000000000000CB
:1015200000000000000000000000000000000000BB
:1015300000000000000000000000000000000000AB
:10154000000000000000000000000000000000009B
:10155000000000000000000000000000000000008B
:10156000000000000000000000000000000000007B
:10157000000000000000000000000000000000006B
:10158000000000000000000000000000000000005B
:10159000000000000000000000000000000000004B
:1015A000000000000000000000000000000000003B
:1015B000000000000000000000000000000000002B
:1015C000000000000000000000000000000000001B
:1015D000000000000000FFFFFFFFFFFFFFFFFFFF15
:1015E000FFFFFFFFFFFFFFFFFFFFFFFFFFFFFFFF0B
:1015F000FFFFFFFFFFFFFFFFFFFFFFFFFFFFFFFFFB
:10160000FFFFFFFFFFFFFFFFFFFFFFFFFFFFFFFFEA
:10161000FFFFFFFFFFFFFFFFFFFFFFFFFFFFFFFFDA
:10162000FFFFFFFFFFFFFFFFFFFFFFFFFFFFFFFFCA
:10163000FFFFFFFFFFFFFFFFFFFFFFFFFFFFFFFFBA
:10164000FFFFFFFFFFFFFFFFFFFFFFFFFFFFFFFFAA
:10165000FFFFFFFFFFFFFFFFFFFFFFFFFFFFFFFF9A
:10166000FFFFFFFFFFFFFFFFFFFFFFFFFFFFFFFF8A
:10167000FFFFFFFFFFFFFFFFFFFFFFFFFFFFFFFF7A
:10168000FFFFFFFFFFFFFFFFFFFFFFFFFFFFFFFF6A
:10169000FFFFFFFFFFFFFFFFFFFFFFFFFFFFFFFF5A
:1016A000FFFFFFFFFFFFFFFFFFFFFFFFFFFFFFFF4A
:1016B000FFFFFFFFFFFFFFFFFFFFFFFFFFFFFFFF3A
:1016C000FFFFFFFFFFFFFFFFFFFFFFFFFFFFFFFF2A
:1016D000FFFFFFFFFFFFFFFFFFFFFFFFFFFFFFFF1A
:1016E000FFFFFFFFFFFFFFFFFFFFFFFFFFFFFFFF0A
:1016F000FFFFFFFFFF000000FFFFFFFFFFFFFFFFF7
:10170000FFFFFFFFFFFFFFFFFFFFFFFFFFFFFFFFE9
:10171000FFFFFF00000000000000FFFFFFFFFFFFD2
:10172000FFFFFFFFFFFFFFFFFFFFFFFFFFFFFFFFC9
:10173000FF0000000000000000000000FFFFFFFFAE
:10174000FFFFFFFFFFFFFFFFFFFFFFFFFFFFFF00A8
:101750000000000000000000000000000000FFFF8B
:10176000FFFFFFFFFFFFFFFFFFFFFFFFFF00000086
:101770000000000000000000000000000000000069
:10178000FFFFFFFFFFFFFFFFFFFFFF000000000064
:101790000000000000000000000000000000000049
:1017A0000000FFFFFFFFFFFFFF0000000000000040
:1017B0000000000000000000000000000000000029
:1017C00000000000FFFFFF0000000000000000001C
:1017D000000000000000FF0000000000000000000A
:1017E00000000000000000000000000000000000F9
:1017F00000000000FFFFFFFFFF00000000000000EE
:1018000000000000000000000000000000000000D8
:101810000000FFFFFFFFFFFFFFFFFF0000000000D1
:1018200000000000000000000000000000000000B8
:10183000FFFFFFFFFFFFFFFFFFFFFFFFFF000000B5
:101840000000000000000000000000000000FFFF9A
:10185000FFFFFFFFFFFFFFFFFFFFFFFFFFFFFF0097
:10186000000000000000000000000000FFFFFFFF7C
:10187000FFFFFFFFFFFFFFFFFFFFFFFFFFFFFFFF78
:10188000FF000000000000000000FFFFFFFFFFFF5F
:10189000FFFFFFFFFFFFFFFFFFFFFFFFFFFFFFFF58
:1018A000FFFFFF0000000000FFFFFFFFFFFFFFFF43
:1018B000FFFFFFFFFFFFFFFFFFFFFFFFFFFFFFFF38
:1018C000FFFFFFFFFF00FFFFFFFFFFFFFFFFFFFF27
:1018D000FFFFFFFFFFFFFFFFFFFFFFFFFFFFFFFF18
:1018E000FFFFFFFFFFFFFFFFFFFFFFFFFFFFFFFF08
:1018F000FFFFFFFFFFFFFFFFFFFFFFFFFFFFFFFFF8
:10190000FFFFFFFFFFFFFFFFFF000000FFFFFFFFE4
:10191000000000FFFFFFFFFF00FFFFFF00FFFF00D1
:10192000FFFFFF00FFFFFFFF00FFFFFFFFFFFF00C4
:10193000FFFFFF00FFFFFFFFFFFFFFFF00FFFFFFB5
:10194000FFFFFF00FFFFFFFFFF000000FFFFFF00A2
:10195000FFFFFFFFFFFFFFFFFFFFFFFF00FFFF0095
:10196000FFFFFFFFFFFFFFFFFFFFFFFF00FFFF0085
:10197000FFFFFFFFFFFFFFFF00FFFFFF00FFFF0074
:10198000FFFFFF00FFFFFFFFFF000000FFFFFFFF63
:10199000000000FFFFFFFFFFFFFFFFFFFFFFFFFF54
:1019A000FFFFFFFFFFFFFFFFFFFFFFFFFFFFFFFF47
:1019B000FFFFFFFFFFFFFFFFFFFFFFFFFFFFFFFF37
:1019C000FFFFFFFFFFFFFFFFFFFFFFFFFFFFFFFF27
:1019D000FFFFFFFFFFFF000000000000000000000D
:1019E00000000000000000000000000000000000F7
:1019F00000000000000000000000000000000000E7
:101A0000000000000000000000FFFFFF00000000D9
:101A1000FFFFFF0000000000FF000000FF0000FFCC
:101A2000000000FF00000000FF000000000000FFB9
:101A3000000000FF0000000000000000FF000000A8
:101A4000000000FF0000000000FFFFFF000000FF9B
:101A5000000000000000000000000000FF0000FF88
:101A6000000000000000000000000000FF0000FF78
:101A7000000000FF00000000FF000000FF0000FF6A
:101A8000000000FF0000000000FFFFFF000000005A
:101A9000FFFFFF0000000000000000000000000049
:101AA0000000000000000000000000000000000036
:101AB0000000000000000000000000000000000026
:101AC0000000000000000000000000000000000016
:101AD0000000000000000000000000000000000006
:101AE00000000000000000000000000000000000F6
:101AF00000000000000000000000000000000000E6
:101B000000000000000000000000000000000000D5
:101B100000000000000000FF0000FF0000FFFFFFCA
:101B20000000FFFF000000FF0000FF00FF0000FFBB
:101B300000FF0000FF0000FF00FFFF00FF0000FFAC
:101B400000FF0000FF0000FF0000FF00FF0000FF9B
:101B500000FFFF00FF0000FFFF00FF0000FFFFFF8E
:101B600000FF0000FF0000FF0000FF00FF0000007A
:101B700000FF00FFFF0000FF0000FF00000000FF6B
:101B800000FF0000FF000000FFFF0000FF0000005A
:101B900000FF0000FF000000000000000000000047
:101BA0000000000000000000000000000000000035
:101BB0000000000000000000000000000000000025
:101BC0000000000000000000000000000000000015
:101BD0000000000000000000000000000000000005
:101BE00000000000000000000000000000000000F5
:101BF00000000000000000000000000000000000E5
:101C000000000000000000000000000000000000D4
:101C10000000000000000000FFFF0000000000FFC7
:101C20000000FFFF000000FF0000FF00FF000000B9
:101C300000FF0000FF0000000000FF00000000FFA8
:101C400000000000FF0000FF00000000FF00000097
:101C50000000FF0000000000FF000000000000FF87
:101C600000000000FF0000FF00000000FF00000077
:101C700000000000FF0000FF0000FF00000000FF68
:101C800000FF0000FF000000FFFF0000FFFFFFFF5C
:101C90000000FFFF00000000000000000000000046
:101CA0000000000000000000000000000000000034
:101CB0000000000000000000000000000000000024
:101CC0000000000000000000000000000000000014
:101CD0000000000000000000000000000000000004
:101CE00000000000000000000000000000000000F4
:101CF00000000000000000000000000000000000E4
:101D000000000000000000000000000000000000D3
:101D100000000000000000FF000000FF0000FFFFC7
:101D20000000FFFFFF0000FF000000FF0000FF00B9
:101D3000FF000000FF0000FF000000FF00FF0000A8
:101D4000FF000000FF0000FFFF0000FF0000000098
:101D500000FF00FF0000000000FF00000000000086
:101D6000FF000000FF0000FF000000FF0000FF0078
:101D70000000FF000000000000FF000000FF000066
:101D8000FF000000FF0000FF00000000FFFF000058
:101D90000000FF0000000000000000000000000044
:101DA0000000000000000000000000000000000033
:101DB0000000000000000000000000000000000023
:101DC0000000000000000000000000000000000013
:101DD000000000000000FFFFFFFFFFFFFFFFFFFF0D
:101DE000FFFFFFFFFFFFFFFFFFFFFFFFFFFFFFFF03
:101DF000FFFFFFFFFFFFFFFFFFFFFFFFFFFFFFFFF3
:101E0000FFFFFFFFFFFFFFFFFFFFFFFFFFFFFFFFE2
:101E1000FFFFFFFFFFFFFF00FFFFFF00FFFF0000CE
:101E2000FFFF000000FFFF00FFFFFF00FFFF00FFBC
:101E300000FFFFFF00FFFF00FFFFFF00FF00FFFFAD
:101E400000FFFFFF00FFFF0000FFFF00FFFFFFFF9D
:101E5000FF00FF00FFFFFFFFFF00FFFFFFFFFFFF8F
:101E600000FFFFFF00FFFF00FFFFFF00FFFF00FF7D
:101E7000FFFF00FFFFFFFFFFFF00FFFFFF00FFFF6F
:101E800000FFFFFF00FFFF00FFFFFFFF0000FFFF5D
:101E9000FFFF00FFFFFFFFFFFFFFFFFFFFFFFFFF51
:101EA000FFFFFFFFFFFFFFFFFFFFFFFFFFFFFFFF42
:101EB000FFFFFFFFFFFFFFFFFFFFFFFFFFFFFFFF32
:101EC000FFFFFFFFFFFFFFFFFFFFFFFFFFFFFFFF22
:101ED000FFFFFFFFFFFFFFFFFFFFFFFFFFFFFFFF12
:101EE000FFFFFFFFFFFFFFFFFFFFFFFFFFFFFFFF02
:101EF000FFFFFFFFFFFFC0C0C0C0C0C0C0C0C0C068
:101F0000C0C0C0C0C0C0C0C0C0C0C0C0C0C0C0C0D1
:101F1000C0C0C0C0C0C0C0C0C0C0C0C0C0C0C0C0C1
:101F2000C0C0C0C0C0C0FFFFFFFFFFFFFFFFFFFF3B
:101F3000FFFFFFFFFFFFFFFFFFFFFFFFFFFFFFFFB1
:101F4000FFFFFFFFFFFFC0C0C0C0C0C0C0C0C0C017
:101F5000C0C0C0C0C0C0C0C0C0C0C0C0C0C0C0C081
:101F6000C0C0C0C0C0C0FFFFFFFFFFFFFFFFFFFFFB
:101F7000FFFFFFFFFFFFFFFFFFFFFFFFFFFFFFFF71
:101F8000FFFFFFFFFFFFC0C0C0C0C0C0C0C0C0C0D7
:101F9000C0C0C0C0C0C0C0C0C0C0C0C0C0C0C0C041
:101FA000C0C0C0C0C0C0C0C0C0C0C0C0C0C0C0C031
:101FB000C0C0C0C0C0C0FFFFFFFFFFFFFFFFFFFFAB
:101FC000FFFFFFFFFFFFFFFFFFFFFFFFFFFFFFFF21
:101FD000FFFFFFFFFFFF0000000000000000000007
:101FE00000000000000000FFFF0000FFFF0000FFF6
:101FF000FF0000FFFF0000FFFF0000FFFF0000FFE9
:10200000FF0000FFFF00000000FFFF0000FFFF00D7
:1020100000FFFF000000000000FFFF0000FFFF00C6
:1020200000FFFF00000000FFFF0000FFFF0000FFB7
:10203000FF0000FFFF0000FFFF0000FFFF0000FFA8
:10204000FF0000FFFF00000000FFFF0000FFFF0097
:1020500000FFFF000000000000FFFF0000FFFF0086
:1020600000FFFF00000000FFFF0000FFFF0000FF77
:10207000FF0000FFFF0000FFFF0000FFFF0000FF68
:10208000FF0000FFFF00000000FFFF0000FFFF0057
:1020900000FFFF000000000000FFFF0000FFFF0046
:1020A00000FFFF00000000FFFF0000FFFF0000FF37
:1020B000FF0000FFFF0000FFFF0000FFFF0000FF28
:1020C000FF0000FFFF000000000000000000000013
:1020D000000000000000E40FF66E200EF722090059
:1020E000F550120000000000000000000000000099
:1020F00000000000000000000000000000000000E0
:1021000000000000000000000000000000000000CF
:1021100000000000000000000000000000000000BF
:1021200000000000000000000000000000000000AF
:10213000000000000000000000000000000000009F
:10214000000000000000000000000000000000008F
:10215000000000000000000000000000000000007F
:10216000000000000000000000000000000000006F
:10217000000000000000000000000000000000005F
:10218000000000000000000000000000000000004F
:10219000000000000000000000000000000000003F
:1021A000000000000000000000000000000000002F
:1021B000000000000000000000000000000000001F
:1021C000000000000000000000000000000000000F
:1021D00000000000000000000000000000000000FF
:1021E00000000000FFFFFFFFFFFFFFFFFFFFFFFFFB
:1021F000FFFFFFFFFFFFFFFFFFFFFFFFFFFFFFFFEF
:10220000FFFFFFFFFFFFFFFFFFFFFFFFFFFFFFFFDE
:10221000FFFFFFFFFFFFFFFFFFFFFFFFFFFFFFFFCE
:10222000FFFFFFFFFFFFFFFFFFFFFFFFFFFFFFFFBE
:10223000FFFFFFFFFFFFFFFFFFFFFFFFFFFFFFFFAE
:10224000FFFFFFFFFFFFFFFFFFFFFFFFFFFFFFFF9E
:10225000FFFFFFFFFFFFFFFFFFFFFFFFFFFFFFFF8E
:10226000FFFFFFFFFFFFFFFFFFFFFFFFFFFFFFFF7E
:10227000FFFFFFFFFFFFFFFFFFFFFFFFFFFFFFFF6E
:10228000FFFFFFFFFFFFFFFFFFFFFFFFFFFFFFFF5E
:10229000FFFFFFFFFFFFFFFFFFFFFFFFFFFFFFFF4E
:1022A000FFFFFFFFFFFFFFFFFFFFFFFFFFFFFFFF3E
:1022B000FFFFFFFFFFFFFFFFFFFFFFFFFFFFFFFF2E
:1022C000FFFFFFFFFFFFFFFFFFFFFFFFFFFFFFFF1E
:1022D000FFFFFFFFFFFFFFFFFFFFFFFFFFFFFFFF0E
:1022E000FFFFFFFFBFBFBFBFBFBFBFBFBFBFBFBFFE
:1022F000BFBFBFBFBFBFBFBFBFBFBFBFBFBFBFBFEE
:10230000BFBFBFBFBFBFBFBFBFBFBFBFBFBFBFBFDD
:10231000BFBFBFBFBFBFBFBFBFBFBFBFBFBFBFBFCD
:10232000BFBFBFBFBFBFBFBFBFBFBFBFBFBFBFBFBD
:10233000BFBFBFBFBFBFBFBFBFBFBFBFBFBFBFBFAD
:10234000BFBFBFBFBFBFBFBFBFBFBFBFBFBFBFBF9D
:10235000BFBFBFBFBFBFBFBFBFBFBFBFBFBFBFBF8D
:10236000BFBFBFBFBFBFBFBFBFBFBFBFBFBFBFBF7D
:10237000BFBFBFBFBFBFBFBFBFBFBFBFBFBFBFBF6D
:10238000BFBFBFBFBFBFBFBFBFBFBFBFBFBFBFBF5D
:10239000BFBFBFBFBFBFBFBFBFBFBFBFBFBFBFBF4D
:1023A000BFBFBFBFBFBFBFBFBFBFBFBFBFBFBFBF3D
:1023B000BFBFBFBFBFBFBFBFBFBFBFBFBFBFBFBF2D
:1023C000BFBFBFBFBFBFBFBFBFBFBFBFBFBFBFBF1D
:1023D000BFBFBFBFBFBFBFBFBFBFBFBFBFBFBFBF0D
:1023E000BFBFBFBF000000000000000000000000F1
:1023F00000000000000000000000000000000000DD
:1024000000000000000000000000000000000000CC
:1024100000000000000000000000000000000000BC
:1024200000000000000000000000000000000000AC
:102FF0000000000000FFFF0000FFFF0000FFFF00D7
:1030000000FFFF0000FFFF0000FFFF0000FFFF00C8
:1030100000FFFF00000000FFFF0000FFFF0000FFB7
:10302000FF000000000000FFFF0000FFFF0000FFA6
:10303000FF00000000FFFF0000FFFF0000FFFF0097
:1030400000FFFF0000FFFF0000FFFF0000FFFF0088
:1030500000FFFF00000000FFFF0000FFFF0000FF77
:10306000FF000000000000FFFF0000FFFF0000FF66
:10307000FF00000000FFFF0000FFFF0000FFFF0057
:1030800000FFFF0000FFFF0000FFFF0000FFFF0048
:1030900000FFFF00000000FFFF0000FFFF0000FF37
:1030A000FF000000000000FFFF0000FFFF0000FF26
:1030B000FF00000000FFFF0000FFFF0000FFFF0017
:1030C00000FFFF0000FFFF0000FFFF0000FFFF0008
:1030D00000FFFF00000000000000000000000000F2
:1030E000000000005A454154454320636F2E2C6C6C
:1030F00074642E2563002050494331364634364BE4
:1031000032322B4C434400005369676E626F617228
:103110006420554E495425630000506174746572F3
:103120006E4E6F3D253032752C253031752C253093
:103130003175000020202020202020202020202069
:1031400020202020202530336C752563000020636B
:10315000575332383132622C32383131284F55547E
:103160003A4230292D00202020202020202020201D
:10317000202020202020202530336C75256300007E
:103180002063575332383132622C32383131284F74
:1031900055543A4230292D0025303163496E666F0F
:1031A00020202020202020202020200025303163D6
:1031B000494F2020202020202020202020202000D7
:1031C0004350553D50494331384634364B32322016
:1031D00000004C43443D41514D313630325841207E
:1031E000202000007261372D303D253031752530AB
:1031F000317525303175253031752C2530317525E7
:1032000030317525303175253031752000007265FB
:10321000312D303D2530346C752C2530346C756D76
:1032200056009EAAFED7ABCF1FF0AECF01F01FA273
:1032300002D0AB98AB882BEF19F09EAA23D0036A7B
:103240006051610FE96E000E0320EA6EEACF54F47C
:10325000E9CF53F4E6D754C4EAFF53C4E9FF01C0F1
:10326000EFFF036A6051610FE96E000E0320EA6E02
:10327000EFCF51F4040151519EA8FED7AD6E00016D
:10328000602BDBD79E9A36EF00F013C1D7FF12C137
:10329000D6FF2E5202E0000E01D0010E2E6E010E5E
:1032A0002F6E0101116F406E416E3E2A3E2C01D0FF
:1032B000422AD8904334036A440FE96E000E03207B
:1032C000EA6EC282C2B2FED70401C334026EC434B5
:1032D000036E02360336FC0E021602C0EFFF03C077
:1032E000ECFF435211E1C282C2B2FED7D890C33480
:1032F000506EC434516E010E436E180E016EC250F2
:10330000830B0110C26E11D0432C0FD0C282C2B207
:10331000FED7D890C334526EC434536E436A140E31
:10332000016EC250830B0110C26E375203E136505A
:10333000090812E2376A366A305202E0000E01D004
:10334000010E306E010E316E01011451030802E1CD
:10335000146B01D0142B0401362AD8B4372A395201
:1033600003E1385031080AE2396A386A325202E021
:10337000000E01D0010E326E010E336E382AD8B421
:10338000392A3B5203E13A5063080BE23B6A3A6A3E
:10339000345202E0000E01D0010E346E010E356E83
:1033A0003F6E3A2AD8B43B2A3C2AD8B43D2AF2943C
:1033B000000136EF00F05369676E626F617264203E
:1033C000554E495420005665722E257300005A54FC
:1033D0002D2A2A2A2A2D534F4654205665722E3004
:1033E0002E39302055415254310D0A00616E616C06
:1033F0006F675F76616C75653D2530346C646D5622
:103400000D0A00007261313D25640D0A00000401BF
:1034100041514303F3CF01F0F4CF00F04403F350E4
:10342000002642514303F3500020026E00011200B7
:103430008E0E006E47C401F046C402F0036A0152CA
:1034400009E102C001F0026A080E005E015202E1C9
:10345000006A08D0D89001BE04D0023601360006BA
:10346000F9D7019E120004014651D8B471D0006E04
:103470004A51D8B46DD0002604E3810E002668E2DC
:1034800004D07F0E005E64E363E047C44EF44B510A
:103490004E1B478F4B8F49514D03F4CF50F4485189
:1034A0004C03F4CF03F0F3CF4FF44D03F350502708
:1034B000F4504F23000E032249514C03F350502780
:1034C000F4504F23000E026A0322022247514D039B
:1034D000F3504F27F4500322000E022247514C03B1
:1034E000F3500326F4500222000E016A01224951D2
:1034F0004B03F3504F27F4500322000E0222012207
:1035000048514B03F3500326F4500222000E0122CF
:1035100047514B03F3500226F4500122002A01BE0A
:1035200005D04F370336023601360006000E4FAF86
:103530000AD0032A02220122015005E1025003E1D0
:10354000035001E1002A4EBF018E4EAF019E04D010
:10355000006A016A026A036A000112008E0E006EA0
:1035600004014651005E47C402F048C401F0028ED7
:10357000005209E0D890025202E1015204E0023206
:103580000132002EF7D747AF05D0011E021E012AD7
:10359000D8B4022A0001120004013E6B3D6B3E6B61
:1035A0003D6B3E51265DD8A035D104E125513D5DEE
:1035B000D8B030D1220E3D25E96E010E3E21EA6ED3
:1035C000426B3CC441F4010E446F436B00011FDFAA
:1035D00002C042F401C041F404013D510124016ED6
:1035E0003E510220036E015003C0F7FF00015DEC65
:1035F00000F00401416F476B1FC146F4000118DF62
:1036000003C049F402C048F401C047F400C046F4C6
:103610000A0E04014D6FD70E4C6F230E4B6F780EC0
:103620004A6F000120DF00C042F401C043F402C031
:1036300044F403C045F40401476B41C446F400015F
:10364000F7DE03C049F402C048F401C047F400C0EB
:1036500046F445C44DF444C44CF443C44BF442C452
:103660004AF401DF03C049F402C048F401C047F442
:1036700000C046F473DF01C0EFFF230E04013D25B7
:10368000E96E020E3E21EA6E426B3CC441F4010E2B
:10369000446F436B0001BBDE02C042F401C041F441
:1036A00004013D510124016E3E510220036E015080
:1036B00003C0F7FF000164EC08F00401416F476BA1
:1036C0001FC146F40001B4DE03C049F402C048F44F
:1036D00001C047F400C046F40A0E04014D6FD70E36
:1036E0004C6F230E4B6F780E4A6F0001BCDE00C09A
:1036F00042F401C043F402C044F403C045F40401A1
:10370000476B41C446F4000193DE03C049F402C094
:1037100048F401C047F400C046F445C44DF444C425
:103720004CF443C44BF442C44AF49DDE03C049F454
:1037300002C048F401C047F400C046F40FDF01C0E6
:10374000EFFF240E04013D25E96E030E3E21EA6ED3
:10375000426B3CC441F4010E446F436B000157DEE1
:1037600002C042F401C041F404013D510124016E44
:103770003E510220036E015003C0F7FF00016BECC5
:1037800010F00401416F476B1FC146F4000150DE89
:1037900003C049F402C048F401C047F400C046F435
:1037A0000A0E04014D6FD70E4C6F230E4B6F780E2F
:1037B0004A6F000158DE00C042F401C043F402C069
:1037C00044F403C045F40401476B41C446F40001CE
:1037D0002FDE03C049F402C048F401C047F400C022
:1037E00046F445C44DF444C44CF443C44BF442C4C1
:1037F0004AF439DE03C049F402C048F401C047F47A
:1038000000C046F4ABDE01C0EFFF04013D2BD8B48D
:103810003E2BC7D600011200C69E9E964DC4C9FF1E
:10382000020EC6BE05D09EA6FED7000EC5BC010E78
:10383000016E1200C580C5B0FED77C0E04014D6F2D
:103840000001EADF800E04014D6F0001E5DF48C48E
:103850004DF4E2DFC584C5B4FED71200040EEA6E53
:10386000410EE96EEF500EE0140E016E006A002E5C
:10387000FED7012EFBD7BF0E006E002EFED700D064
:10388000EF2EF2D71200010E0401415F0CE3040E8B
:10389000EA6E410EE96EEF5006E0040E006E002E57
:1038A000FED7EF2EFAD700011200380E0401486F40
:1038B0000001C0DF390E0401486F0001BBDF140EA8
:1038C0000401486F0001B6DF0401385103080BE121
:1038D000700E486F0001AEDF5E0E0401486F0001FC
:1038E000A9DF0AD004017A0E486F0001A3DF5C0E45
:1038F0000401486F00019EDF6C0E0401486F000157
:1039000099DFC80E0401416F0001A8DF380E0401E1
:10391000486F00018FDF0C0E0401486F00018ADF41
:10392000010E0401486F000185DF010E0401416FA3
:10393000000194DF640E0401416F0001A4DFDEEF9B
:103940001DF00401456B400E466F036A4451450F5C
:10395000E96E040E0320EA6EEF5043258009476F9D
:10396000486F000167DF12000401425306E1436B18
:10397000446B0001E6DF08D00401422D06D0436B02
:10398000010E446F0001DDDF040100011200C5805B
:10399000C5B0FED77C0E04014D6F00013DDF400E27
:1039A00004014D6F000138DF4CC44DF435DFC58490
:1039B000C5B4FED712000900F5520CE0F6CF42F470
:1039C000F7CF43F4F5CF4CF4E2DF42C4F6FF43C433
:1039D000F7FFF1D712000900F6CF44F4F7CF45F412
:1039E000F5CF4CF4D4DF44C4F6FF45C4F7FF04011F
:1039F000432F01D002D00001EED700011200EF5298
:103A00000FE0EACF39F4E9CF38F4EFCF4CF4BFDF61
:103A100039C4EAFF38C4E9FFE92AD8B4EA2AEFD763
:103A2000F9EF1DF0700ED36E9B8C9B9E870ED56EAA
:103A3000F28A9D8AC00EF212D180FD0E0101136F31
:103A40008C0E126F13C1D7FF12C1D6FFA00E0F014B
:103A5000426FC050C00B0709C06EC08EC280C150FB
:103A6000F00B0809C16E000E386F030E3C6F000E9C
:103A7000396F3A6F3B6F0F0E926E000E936E980E79
:103A8000946E000E956E9680968296949696D0507F
:103A90000F0BD0A8000ED080D082D088D886D888CE
:103AA0002D6EF2CF38F4F29EAA6AA96AA69CA69E51
:103AB000A680A850040138BFF28E01010C6F0B6B79
:103AC000F2CF38F4F29EAA6A010EA96EA69CA69EB9
:103AD000A680A850040138BFF28E01010B27000E0A
:103AE0000C230B3D04D00C3D02D00C6B0B6BF2CFC2
:103AF00038F4F29EAA6A100EA96EA69CA69EA68015
:103B0000A850040138BFF28E01011A6F1A3D02D08D
:103B1000050E1A6FF2CF38F4F29EAA6A150EA96E3E
:103B2000A69CA69EA680A850040138BFF28E010173
:103B30001F6F1F3D02D0190E1F6F1AC13CF4000108
:103B40002BDD01010B5303E10C5301E131D00B518B
:103B50000A0806E10C5304E1106B010E0F6F28D028
:103B60000C5303E10B51630809E20C5307E10B51BD
:103B7000C60804E3106B010E0F6F1AD00B515808E2
:103B800007E10C51020804E1106B010E0F6F10D019
:103B90000B51BD0804E10C51020801E109D00B51A1
:103BA000BE0804E10C51020801E102D0106B0F6B5A
:103BB0000400050E0401386F000177D60401426B42
:103BC0000001D2DEB60EF66E330EF76EF4DE010E95
:103BD0000401426F0001C8DEC60EF66E330EF76EAA
:103BE000040E0401436F0001F6DEEA6A200EE96E5E
:103BF00006D70400320E0401416F00012FDE0400DD
:103C0000320E0401416F000129DE0400320E04016E
:103C1000416F000123DE0400320E0401416F0001F8
:103C20001DDE0400320E0401416F000117DE0400A6
:103C3000320E0401416F000111DE0400320E040156
:103C4000416F00010BDE0400320E0401416F0001E0
:103C500005DE0400320E0401416F0001FFDD0400A7
:103C6000320E0401416F0001F9DD0400320E04013F
:103C7000416F0001F3DD0400320E0401416F0001C9
:103C8000EDDD0400320E0401416F0001E7DD0400A8
:103C9000320E0401416F0001E1DD0400320E040127
:103CA000416F0001DBDD0400320E0401416F0001B1
:103CB000D5DD0400320E0401416F0001CFDD0400A8
:103CC000320E0401416F0001C9DD0400320E04010F
:103CD000416F0001C3DD0400320E0401416F000199
:103CE000BDDD5CEF29F09280486A80A0482A48C078
:103CF00054F09282496A80A2492A49C056F09284BF
:103D00004A6A80A44A2A4AC058F092864B6A80A622
:103D10004B2A4BC05AF0545203E15D6A5C6A16D0DC
:103D2000542C09D05D5207E15C50630804E35C2A1F
:103D3000D8B45D2A0BD0542C09D05C50640806E13D
:103D40005D5204E101010C6B0A0E0B6F000162EF82
:103D500029F004014551016A445D03E244C400F0C6
:103D60000CD0006A080E466F443700364551005C9F
:103D7000D8B0006E0136462FF7D70001120001506F
:103D800042C444F4640E0401456F0001E2DF00C048
:103D900042F40150300E08E1040143A30FD043B7B1
:103DA0000DD043B9200E04D00401439743994381B9
:103DB000012601C04CF40001EADD040142C444F4D0
:103DC0000A0E456F0001C5DF00C042F40150300EFD
:103DD00008E1040143B70AD043A108D043B9200E3B
:103DE0000001012601C04CF4D2DD0401300E42274F
:103DF00042C44CF40001CBDD1200EACF4BF4E9CF12
:103E00004AF404014439F009466F4627E20F476F30
:103E1000320F496F44510F0B472747274927E90FB6
:103E2000486F4827482743390F0B48274927483709
:103E30004937491F493743510F0B49274637070E6A
:103E4000456F0A0E48074927FDE347074827FDE36A
:103E500046074727FDE345074627FDE3040EEA6EC4
:103E6000450EE96E070E4A154A9DE926490EE95CA2
:103E7000D8B44A8DEF50006E08E14ABD06D04AB969
:103E800015D04AB702D0200E03D04A874A99300E87
:103E90000026EACF44F4E9CF43F400C04CF400011B
:103EA00076DD44C4EAFF43C4E9FF0401EE504AADA5
:103EB000DDD700011200200E0401386F396F3A6F10
:103EC0003B6F3C6F3D6F3E6F3F6F406F416B380EF5
:103ED00001010F25E96E040E1021EA6E3E0EEF6E11
:103EE0000B534BE10C5349E10401426B00013CDDF3
:103EF000036A01011451150FE96E010E0320EA6EE9
:103F0000EFCF42F4080EF66E310EF76E0E0E04017E
:103F1000436F000160DD42C44CF439DD010E040141
:103F2000426F000121DD1A0EF66E310EF76E0A0E99
:103F30000401436F00014FDD1AC142F4010E040178
:103F4000436F00011CDF2C0E04014C6F00011FDDCC
:103F50001EC142F4080E0401436F000110DF2C0E55
:103F600004014C6F000113DD1DC142F4080E040171
:103F7000436F000104DF62D001010B2D2FD00C53E1
:103F80002DE10401426B0001EFDC036A01011451D1
:103F9000150FE96E010E0320EA6EEFCF42F4340EE6
:103FA000F66E310EF76E110E0401436F000113DD42
:103FB0000A0EE96E0CC144F40BC143F41EDF42C487
:103FC0004CF4E5DC010E0401426F0001CDDC4E0E25
:103FD000F66E310EF76EEFDC31D001010B510208A5
:103FE0002EE10C532CE10401426B0001BDDC036A9D
:103FF00001011451150FE96E010E0320EA6EEFCF97
:1040000042F4660EF66E310EF76E110E0401436F28
:104010000001E1DC0A0EE96E0CC144F40BC143F46B
:10402000ECDE42C44CF4B3DC010E0401426F00012B
:104030009BDC800EF66E310EF76EBDDC01010001D7
:104040006DEF29F004013D6B3C6B01011E53D8A4B8
:104050009ED18A8093908A909390370E0401416F8D
:10406000000111DC04013D6B3C6B3D51265DD8A085
:1040700089D104E125513C5DD8B084D1230E3C2583
:10408000E96E020E3D21EA6EEFCF3EF4220E3C2592
:10409000E96E010E3D21EA6EEFCF3FF4240E3C2580
:1040A000E96E030E3D21EA6EEFCF40F48A809390D3
:1040B00000D03EBF02D08A9001D08A80939000D079
:1040C0008A90939000D000D000D08A80939000D046
:1040D0003EBD02D08A9001D08A80939000D08A9011
:1040E000939000D000D000D08A80939000D03EBB47
:1040F00002D08A9001D08A80939000D08A909390C9
:1041000000D000D000D08A80939000D03EB902D079
:104110008A9001D08A80939000D08A90939000D0AA
:1041200000D000D08A80939000D03EB702D08A9011
:1041300001D08A80939000D08A90939000D000D0D4
:1041400000D08A80939000D03EB502D08A9001D0F2
:104150008A80939000D08A90939000D000D000D0B5
:104160008A80939000D03EB302D08A9001D08A809A
:10417000939000D08A90939000D000D000D08A8095
:10418000939000D03EB102D08A9001D08A80939063
:1041900000D08A90939000D000D000D08A80939075
:1041A00000D03FBF02D08A9001D08A80939000D087
:1041B0008A90939000D000D000D08A80939000D055
:1041C0003FBD02D08A9001D08A80939000D08A901F
:1041D000939000D000D000D08A80939000D03FBB55
:1041E00002D08A9001D08A80939000D08A909390D8
:1041F00000D000D000D08A80939000D03FB902D088
:104200008A9001D08A80939000D08A90939000D0B9
:1042100000D000D08A80939000D03FB702D08A901F
:1042200001D08A80939000D08A90939000D000D0E3
:1042300000D08A80939000D03FB502D08A9001D000
:104240008A80939000D08A90939000D000D000D0C4
:104250008A80939000D03FB302D08A9001D08A80A8
:10426000939000D08A90939000D000D000D08A80A4
:10427000939000D03FB102D08A9001D08A80939071
:1042800000D08A90939000D000D000D08A80939084
:1042900000D040BF02D08A9001D08A80939000D095
:1042A0008A90939000D000D000D08A80939000D064
:1042B00040BD02D08A9001D08A80939000D08A902D
:1042C000939000D000D000D08A80939000D040BB63
:1042D00002D08A9001D08A80939000D08A909390E7
:1042E00000D000D000D08A80939000D040B902D096
:1042F0008A9001D08A80939000D08A90939000D0C9
:1043000000D000D08A80939000D040B702D08A902D
:1043100001D08A80939000D08A90939000D000D0F2
:1043200000D08A80939000D040B502D08A9001D00E
:104330008A80939000D08A90939000D000D000D0D3
:104340008A80939000D040B302D08A9001D08A80B6
:10435000939000D08A90939000D000D000D08A80B3
:10436000939000D040B102D08A9001D08A8093907F
:1043700000D08A90939000D000D000D03C2BD8B4CD
:104380003D2B73D68A809390C7EF26F001011E2D36
:104390005DD18A8093908A909390010E0401416FC1
:1043A00000012EEC1CF004013D6B3C6B3D51265D81
:1043B000D8A047D104E125513C5DD8B042D1230EAD
:1043C0003C25E96E020E3D21EA6EEFCF3EF4220E4F
:1043D0003C25E96E010E3D21EA6EEFCF3FF4240E3D
:1043E0003C25E96E030E3D21EA6EEFCF40F48A8052
:1043F000939000003EBF02D08A9001D08A809390B3
:1044000000D08A9093908A80939000003EBD02D0A5
:104410008A9001D08A80939000D08A9093908A806D
:10442000939000003EBB02D08A9001D08A80939086
:1044300000D08A9093908A80939000003EB902D079
:104440008A9001D08A80939000D08A9093908A803D
:10445000939000003EB702D08A9001D08A8093905A
:1044600000D08A9093908A80939000003EB502D04D
:104470008A9001D08A80939000D08A9093908A800D
:10448000939000003EB302D08A9001D08A8093902E
:1044900000D08A9093908A80939000003EB102D021
:1044A0008A9001D08A80939000D08A9093908A80DD
:1044B000939000003FBF02D08A9001D08A809390F1
:1044C00000D08A9093908A80939000003FBD02D0E4
:1044D0008A9001D08A80939000D08A9093908A80AD
:1044E000939000003FBB02D08A9001D08A809390C5
:1044F00000D08A9093908A80939000003FB902D0B8
:104500008A9001D08A80939000D08A9093908A807C
:10451000939000003FB702D08A9001D08A80939098
:1045200000D08A9093908A80939000003FB502D08B
:104530008A9001D08A80939000D08A9093908A804C
:10454000939000003FB302D08A9001D08A8093906C
:1045500000D08A9093908A80939000003FB102D05F
:104560008A9001D08A80939000D08A9093908A801C
:104570009390000040BF02D08A9001D08A8093902F
:1045800000D08A9093908A809390000040BD02D022
:104590008A9001D08A80939000D08A9093908A80EC
:1045A0009390000040BB02D08A9001D08A80939003
:1045B00000D08A9093908A809390000040B902D0F6
:1045C0008A9001D08A80939000D08A9093908A80BC
:1045D0009390000040B702D08A9001D08A809390D7
:1045E00000D08A9093908A809390000040B502D0CA
:1045F0008A9001D08A80939000D08A9093908A808C
:104600009390000040B302D08A9001D08A809390AA
:1046100000D08A9093908A809390000040B102D09D
:104620008A9001D08A80939000D08A909390050E52
:10463000006E002EFED700D000003C2BD8B43D2BDE
:10464000B5D68A809390C7EF26F001011E5102086B
:10465000D8A4DFD18A8093908A909390010E0401B0
:10466000416F00012EEC1CF004013D6B3C6B3D5191
:10467000265DD8A0CAD104E125513C5DD8B0C5D192
:1046800001011D531BE1230E04013C25E96E020EBE
:104690003D21EA6EEFCF3EF4220E3C25E96E010E7D
:1046A0003D21EA6EEFCF3FF4240E3C25E96E030E68
:1046B0003D21EA6EEFCF40F41CD001011D2D1AD030
:1046C000220E04013C25E96E010E3D21EA6EEFCF7A
:1046D0003EF4230E3C25E96E020E3D21EA6EEFCF3B
:1046E0003FF4240E3C25E96E030E3D21EA6EEFCF28
:1046F00040F401018A809390000004013EBF02D083
:104700008A9001D08A80939000D000D000008A90D7
:10471000939000D000D08A80939000003EBD02D0DC
:104720008A9001D08A80939000D000D000008A90B7
:10473000939000D000D08A80939000003EBB02D0BE
:104740008A9001D08A80939000D000D000008A9097
:10475000939000D000D08A80939000003EB902D0A0
:104760008A9001D08A80939000D000D000008A9077
:10477000939000D000D08A80939000003EB702D082
:104780008A9001D08A80939000D000D000008A9057
:10479000939000D000D08A80939000003EB502D064
:1047A0008A9001D08A80939000D000D000008A9037
:1047B000939000D000D08A80939000003EB302D046
:1047C0008A9001D08A80939000D000D000008A9017
:1047D000939000D000D08A80939000003EB102D028
:1047E0008A9001D08A80939000D000D000008A90F7
:1047F000939000D000D08A80939000003FBF02D0F9
:104800008A9001D08A80939000D000D000008A90D6
:10481000939000D000D08A80939000003FBD02D0DA
:104820008A9001D08A80939000D000D000008A90B6
:10483000939000D000D08A80939000003FBB02D0BC
:104840008A9001D08A80939000D000D000008A9096
:10485000939000D000D08A80939000003FB902D09E
:104860008A9001D08A80939000D000D000008A9076
:10487000939000D000D08A80939000003FB702D080
:104880008A9001D08A80939000D000D000008A9056
:10489000939000D000D08A80939000003FB502D062
:1048A0008A9001D08A80939000D000D000008A9036
:1048B000939000D000D08A80939000003FB302D044
:1048C0008A9001D08A80939000D000D000008A9016
:1048D000939000D000D08A80939000003FB102D026
:1048E0008A9001D08A80939000D000D000008A90F6
:1048F000939000D000D08A809390000040BF02D0F7
:104900008A9001D08A80939000D000D000008A90D5
:10491000939000D000D08A809390000040BD02D0D8
:104920008A9001D08A80939000D000D000008A90B5
:10493000939000D000D08A809390000040BB02D0BA
:104940008A9001D08A80939000D000D000008A9095
:10495000939000D000D08A809390000040B902D09C
:104960008A9001D08A80939000D000D000008A9075
:10497000939000D000D08A809390000040B702D07E
:104980008A9001D08A80939000D000D000008A9055
:10499000939000D000D08A809390000040B502D060
:1049A0008A9001D08A80939000D000D000008A9035
:1049B000939000D000D08A809390000040B302D042
:1049C0008A9001D08A80939000D000D000008A9015
:1049D000939000D000D08A809390000040B102D024
:1049E0008A9001D08A80939000D000D000008A90F5
:1049F000939000D000D0050E006E002EFED700D0A0
:104A000000003C2BD8B43D2B32D68A809390BFD186
:104A100001011E510308D8A4BBD18A8093908A90CB
:104A20009390010E0401416F00012EEC1CF0040173
:104A30003D6B3C6B3D51265DD8A0A7D104E12551CB
:104A40003C5DD8B0A2D1230E3C25E96E020E3D217B
:104A5000EA6EEFCF3EF4220E3C25E96E010E3D21B9
:104A6000EA6EEFCF3FF4240E3C25E96E030E3D21A4
:104A7000EA6EEFCF40F48A80939000D03EBF02D020
:104A80008A9001D08A80939000D000D000008A9054
:104A9000939000D000D08A80939000D03EBD02D089
:104AA0008A9001D08A80939000D000D000008A9034
:104AB000939000D000D08A80939000D03EBB02D06B
:104AC0008A9001D08A80939000D000D000008A9014
:104AD000939000D000D08A80939000D03EB902D04D
:104AE0008A9001D08A80939000D000D000008A90F4
:104AF000939000D000D08A80939000D03EB702D02F
:104B00008A9001D08A80939000D000D000008A90D3
:104B1000939000D000D08A80939000D03EB502D010
:104B20008A9001D08A80939000D000D000008A90B3
:104B3000939000D000D08A80939000D03EB302D0F2
:104B40008A9001D08A80939000D000D000008A9093
:104B5000939000D000D08A80939000D03EB102D0D4
:104B60008A9001D08A80939000D000D000008A9073
:104B7000939000D000D08A80939000D03FBF02D0A5
:104B80008A9001D08A80939000D000D000008A9053
:104B9000939000D000D08A80939000D03FBD02D087
:104BA0008A9001D08A80939000D000D000008A9033
:104BB000939000D000D08A80939000D03FBB02D069
:104BC0008A9001D08A80939000D000D000008A9013
:104BD000939000D000D08A80939000D03FB902D04B
:104BE0008A9001D08A80939000D000D000008A90F3
:104BF000939000D000D08A80939000D03FB702D02D
:104C00008A9001D08A80939000D000D000008A90D2
:104C1000939000D000D08A80939000D03FB502D00E
:104C20008A9001D08A80939000D000D000008A90B2
:104C3000939000D000D08A80939000D03FB302D0F0
:104C40008A9001D08A80939000D000D000008A9092
:104C5000939000D000D08A80939000D03FB102D0D2
:104C60008A9001D08A80939000D000D000008A9072
:104C7000939000D000D08A80939000D040BF02D0A3
:104C80008A9001D08A80939000D000D000008A9052
:104C9000939000D000D08A80939000D040BD02D085
:104CA0008A9001D08A80939000D000D000008A9032
:104CB000939000D000D08A80939000D040BB02D067
:104CC0008A9001D08A80939000D000D000008A9012
:104CD000939000D000D08A80939000D040B902D049
:104CE0008A9001D08A80939000D000D000008A90F2
:104CF000939000D000D08A80939000D040B702D02B
:104D00008A9001D08A80939000D000D000008A90D1
:104D1000939000D000D08A80939000D040B502D00C
:104D20008A9001D08A80939000D000D000008A90B1
:104D3000939000D000D08A80939000D040B302D0EE
:104D40008A9001D08A80939000D000D000008A9091
:104D5000939000D000D08A80939000D040B102D0D0
:104D60008A9001D08A80939000D000D000008A9071
:104D7000939000D000D0050E006E002EFED700D01C
:104D800000003C2BD8B43D2B55D68A80939001016E
:104D9000000152EF27F00401386B396B3A6B3B6B23
:104DA0005450555C04E0545202E1010E386F54C077
:104DB00055F05650575C04E0565202E1010E396F2F
:104DC00056C057F05850595C04E0585202E1010EA9
:104DD0003A6F58C059F05A505B5C04E05A5202E1F5
:104DE000010E3B6F5AC05BF001010B535CE10C53A9
:104DF0005AE10401385301E0386B395301E0396B53
:104E00003A5325E03A6B010E275D01011A5D02E37A
:104E10001A6B01D01A2B1AC13CF40001CCEC1AF029
:104E2000AA6A100EA96E1AC1A8FFA69CA69EA68407
:104E3000F250006EF29E0F01550EA76EAA0EA76EDD
:104E4000A682A6B2FED7A6940050F21204013B53EC
:104E500026E03B6B01011A5306E1010E0401275DB8
:104E600001011A6F01D01A071AC13CF40001CCEC01
:104E70001AF0AA6A100EA96E1AC1A8FFA69CA69ED7
:104E8000A684F250006EF29E0F01550EA76EAA0E78
:104E9000A76EA682A6B2FED7A6940050F212000119
:104EA00022EF20F00101000175EF29F00401426BAF
:104EB0000001B4EC1CF0036A01011451150FE96EF6
:104EC000010E0320EA6EEFCF38F4E40EF66E300EDA
:104ED000F76E0F0E0401436F0001EBEC1CF038C4B9
:104EE0004CF4C7EC1CF0010E0401426F0001B4EC5D
:104EF0001CF0F60EF66E300EF76EDBEC1CF07CEF5D
:104F000029F04C6A4C5202E0899801D08988929825
:104F10004D6A02E0899A01D0898A929A8A82939294
:104F2000305202E08A9401D08A849394325202E093
:104F30008A9601D08A869396345202E08A9801D0EC
:104F40008A8893982E5202E08A9A01D08A8A939A8C
:104F50002D50070A0DE00C0A12E0040A17E0030ABC
:104F60001CE0020A21E00D0A26E0030A2BE031D002
:104F70002E5202E08D9401D08D84969431D030521F
:104F800002E08D9401D08D8496942AD0305202E0B4
:104F90008D9401D08D84969423D0345202E08D9468
:104FA00001D08D8496941CD0305202E08D9401D0B3
:104FB0008D84969415D0305202E08D9401D08D846A
:104FC00096940ED0305202E08D9401D08D84969448
:104FD00007D0325202E08D9401D08D84969400D097
:104FE0007FEF29F0F86AD09E078EEA6AE96A700EB0
:104FF000D36E9B8C9B9E1F6AB886400EAF6E030ECD
:10500000B06EA60EAC6E900EAB6E94869488CB906C
:10501000CB92CB967F0EC86E280EC66EC78EC79CED
:1050200077682D6A2E6A2F6A306A316A326A336A6B
:10503000346A356A376A366A396A386A3B6A3A6A64
:105040003D6A3C6A3E6A3F6A406A416A426A436A14
:10505000486A496A4A6A4B6A4C6A4D6A4E6A4F6AA4
:10506000516A506A536A526A546A556A566A576A54
:10507000586A596A5A6A5B6A5D6A5C6A606B0101C8
:105080000C6B0A0E0B6F0E6B0D6F106B0F6B116BB1
:10509000136B126B146B040E1A6F1B6B010E1C6FDB
:1050A0001D6B1E6F320E1F6F206B050E216F010EE0
:1050B0000401266F256B100E276F286B296B0101E9
:1050C000886BC150F00BC16E000E0F01386F3C6F42
:1050D000396F3A6F3B6F776A786A796A196A1A6A28
:1050E000320E206E300E216E320E226E300E236E86
:1050F000246E360E256E310E266E300E276E310E62
:10510000286E296E350E2A6E370E2B6E2C6A446A75
:10511000456A466A476A2C0E5E6E5F6A0001616BE3
:10512000626B636B646B656B666B676B686B696BFB
:105130006A6B6B6B6C6B6D6B6E6B6F6B706B716BAB
:10514000726B736B746B756B766B776B786B796B5B
:105150007A6B7B6B7C6B7D6B7E6B7F6B806B816B0B
:10516000826B836B846B856B866B876B886B896BBB
:105170008A6B8B6B8C6B8D6B8E6B8F6B906B916B6B
:10518000926B936B946B956B966B976B986B996B1B
:105190009A6B9B6B9C6B9D6B9E6B9F6BA06BA16BCB
:1051A000A26BA36BA46BA56BA66BA76BA86BA96B7B
:1051B000AA6BAB6BAC6BAD6BAE6BAF6BB06BB16B2B
:1051C000B26BB36BB46BB56BB66BB76BB86BB96BDB
:1051D000BA6BBB6BBC6BBD6BBE6BBF6BC06BC16B8B
:1051E000C26BC36BC46BC56BC66BC76BC86BC96B3B
:1051F000CA6BCB6BCC6BCD6BCE6BCF6BD06BD16BEB
:10520000D26BD36BD46BD56BD66BD76BD86BD96B9A
:10521000DA6BDB6BDC6BDD6BDE6BDF6BE06BE16B4A
:10522000E26BE36BE46BE56BE66BE76BE86BE96BFA
:10523000EA6BEB6BEC6BED6BEE6BEF6BF06BF16BAA
:10524000F26BF36BF46BF56BF66BF76BF86BF96B5A
:10525000FA6BFB6BFC6BFD6BFE6BFF6B0101006B74
:10526000016B026B036B046B056B066B076B086BC2
:10527000096B0A6B2F0E156F2D0E166F5F0E176FD1
:105280002E0E186F196B040E04012A6F0E0E2B6F71
:10529000150E2C6F040E2D6F2E6F2F6F306B316F2C
:1052A000326F336F150E346F0E0E356F040E366F7E
:1052B000376B000112EF1DF00400405203E0406A1A
:1052C00073EF1EF001010C5312E10B5163080FE361
:1052D0003E2C05D000015BEF1FF007D001013E50CE
:1052E000020804E23E6A000156D5010106D03E5292
:1052F00004E03E6A0001DAD50101000102D6DCD7E4
:025300000300A8
:020000040030CA
:0E00000000F8181A00BF810000C00FE00F408A
:00000001FF
